:020000040800F2
:1000000000900020D143000893150108A543000883
:10001000A5430008A5430008A54300080000000010
:10002000000000000000000000000000693D000822
:10003000A543000800000000153D000821C5000888
:10004000193E0008193E0008193E0008193E000834
:10005000193E0008193E0008193E0008193E000824
:10006000193E0008193E0008193E0008193E000814
:10007000193E0008193E0008193E0008193E000804
:10008000193E0008193E0008193E0008193E0008F4
:10009000193E0008193E0008193E0008193E0008E4
:1000A000193E0008193E0008193E0008193E0008D4
:1000B000193E0008193E0008193E0008193E0008C4
:1000C000193E0008193E0008193E0008193E0008B4
:1000D000193E0008193E0008193E0008193E0008A4
:1000E000193E0008193E0008193E0008193E000894
:1000F000193E0008193E0008193E0008193E000884
:10010000193E0008193E0008193E0008193E000873
:10011000193E0008193E0008193E0008193E000863
:10012000193E0008193E0008193E0008193E000853
:08013000193E0008193E000809
:08013800FFFFFFFFFFFFFFFFC7
:1001400001F0FF01102A2BDB10F0070F08D010F888
:10015000013B013A8B422DD010F0070F42B3F6D18C
:10016000F0B441EA012141EA014122F007047FF0A5
:1001700000070023F0E80256083C85EA010586EAFC
:10018000010685FA47F5A3FA87F586FA47F6A5FA38
:1001900087F68EB9EED1F0BC01F0FF0102F0070244
:1001A00032B110F8013B013A83EA010313B1F8D1EF
:1001B0000020704701387047002D06BF35460338D0
:1001C000073815F0010F07D1013015F4807F02BF09
:1001D000013015F4C03F0130F0BC0138704700BF5A
:1001E00081F0004102E000BF83F0004330B54FEAE8
:1001F00041044FEA430594EA050F08BF90EA020F55
:100200001FBF54EA000C55EA020C7FEA645C7FEAE7
:10021000655C00F0E2804FEA5454D4EB5555B8BF0A
:100220006D420CDD2C4480EA020281EA030382EA7B
:10023000000083EA010180EA020281EA0303362D0D
:1002400088BF30BD11F0004F4FEA01314FF4801CE0
:100250004CEA113102D0404261EB410113F0004FF2
:100260004FEA03334CEA133302D0524263EB4303A9
:1002700094EA050F00F0A780A4F10104D5F1200E47
:100280000DDB02FA0EFC22FA05F2801841F10001A2
:1002900003FA0EF2801843FA05F359410EE0A5F176
:1002A00020050EF1200E012A03FA0EFC28BF4CF0A7
:1002B000020C43FA05F3C01851EBE37101F000455D
:1002C00007D54FF0000EDCF1000C7EEB00006EEB6A
:1002D0000101B1F5801F1BD3B1F5001F0CD34908F4
:1002E0005FEA30004FEA3C0C04F101044FEA44524B
:1002F00012F5800F80F09A80BCF1004F08BF5FEAD2
:10030000500C50F1000041EB045141EA050130BDB1
:100310005FEA4C0C404141EB0101013C28BFB1F5C3
:10032000801FE9D291F0000F04BF01460020B1FA0E
:1003300081F308BF2033A3F10B03B3F120020CDAE1
:100340000C3208DD02F1140CC2F10C0201FA0CF0BF
:1003500021FA02F10CE002F11402D8BFC2F1200C24
:1003600001FA02F120FA0CFCDCBF41EA0C019040DA
:10037000E41AA2BF01EB0451294330BD6FEA040423
:100380001F3C1CDA0C340EDC04F11404C4F120020E
:1003900020FA04F001FA02F340EA030021FA04F320
:1003A00045EA030130BDC4F10C04C4F1200220FA77
:1003B00002F001FA04F340EA0300294630BD21FAB5
:1003C00004F0294630BD94F0000F83F4801306BF7B
:1003D00081F480110134013D4EE77FEA645C18BF6F
:1003E0007FEA655C29D094EA050F08BF90EA020F06
:1003F00005D054EA000C04BF1946104630BD91EAFE
:10040000030F1EBF0021002030BD5FEA545C05D100
:100410004000494128BF41F0004130BD14F580043F
:100420003CBF01F5801130BD01F0004545F0FE41B3
:1004300041F470014FF0000030BD7FEA645C1ABFE8
:10044000194610467FEA655C1CBF0B46024650EA1F
:10045000013406BF52EA033591EA030F41F400214B
:1004600030BD00BF90F0000F04BF0021704730B5D1
:100470004FF4806404F132044FF000054FF00001A6
:1004800050E700BF90F0000F04BF0021704730B567
:100490004FF4806404F1320410F0004548BF40423C
:1004A0004FF000013EE700BF42004FEAE2014FEA91
:1004B00031014FEA02701FBF12F07F4393F07F4F6C
:1004C00081F06051704732F07F4208BF704793F06F
:1004D0007F4F04BF41F40021704730B54FF4607482
:1004E00001F0004521F000411CE700BF50EA010285
:1004F00008BF704730B54FF000050AE050EA01022E
:1005000008BF704730B511F0004502D5404261EB9D
:1005100041014FF4806404F132045FEA915C3FF4DE
:10052000D8AE4FF003025FEADC0C18BF03325FEA7B
:10053000DC0C18BF033202EBDC02C2F1200300FA2C
:1005400003FC20FA02F001FA03FE40EA0E0021FA51
:1005500002F11444BDE600BF4FEA410212F5001259
:1005600015D211D56FF47873B3EB625212D94FEAFA
:10057000C12343F0004343EA505311F0004F23FAE4
:1005800002F018BF404270474FF00000704750EA39
:10059000013005D111F0004008BF6FF000407047F6
:1005A0004FF00000704700BF80F0004002E000BF45
:1005B00081F0004142001FBF5FEA410392EA030F4E
:1005C0007FEA226C7FEA236C6AD04FEA1262D2EB98
:1005D0001363C1BFD218414048404140B8BF5B429D
:1005E000192B88BF704710F0004F40F4000020F036
:1005F0007F4018BF404211F0004F41F4000121F04C
:100600007F4118BF494292EA030F3FD0A2F1010295
:1006100041FA03FC10EB0C00C3F1200301FA03F1D3
:1006200000F0004302D5494260EB4000B0F5000FF6
:1006300013D3B0F1807F06D340084FEA310102F1B5
:100640000102FE2A51D2B1F1004F40EBC25008BF67
:1006500020F0010040EA03007047490040EB000031
:10066000013A28BFB0F5000FEDD2B0FA80FCACF132
:10067000080CB2EB0C0200FA0CF0AABF00EBC2505F
:1006800052421843BCBFD0401843704792F0000F4D
:1006900081F4000106BF80F400000132013BB5E7A0
:1006A0004FEA41037FEA226C18BF7FEA236C21D016
:1006B00092EA030F04D092F0000F08BF084670477B
:1006C00090EA010F1CBF0020704712F07F4F04D149
:1006D000400028BF40F00040704712F100723CBF5C
:1006E00000F50000704700F0004343F0FE4040F486
:1006F000000070477FEA226216BF08467FEA236344
:100700000146420206BF5FEA412390EA010F40F42E
:10071000800070474FF0000304E000BF10F000437A
:1007200048BF40425FEA000C08BF704743F0964361
:1007300001464FF000001CE050EA010208BF70477C
:100740004FF000030AE000BF50EA010208BF704703
:1007500011F0004302D5404261EB41015FEA010C18
:1007600002BF84460146002043F0B64308BFA3F110
:100770008053A3F50003BCFA8CF2083AA3EBC253F2
:1007800010DB01FA02FC634400FA02FCC2F1200211
:10079000BCF1004F20FA02F243EB020008BF20F048
:1007A0000100704702F1200201FA02FCC2F12002AE
:1007B00050EA4C0021FA02F243EB020008BF20EAA3
:1007C000DC7070474FF0FF0C1CEAD0521EBF1CEAD1
:1007D000D15392EA0C0F93EA0C0F6FD01A4480EABF
:1007E000010C400218BF5FEA41211ED04FF00063A8
:1007F00043EA501043EA5111A0FB01310CF00040D4
:10080000B1F5000F3EBF490041EAD3715B0040EAF9
:10081000010062F17F02FD2A1DD8B3F1004F40EBC9
:10082000C25008BF20F00100704790F0000F0CF09C
:10083000004C08BF49024CEA502040EA51207F3A60
:10084000C2BFD2F1FF0340EAC250704740F400003B
:100850004FF00003013A5DDC12F1190FDCBF00F02C
:1008600000407047C2F10002410021FA02F1C2F1DA
:10087000200200FA02FC5FEA310040F1000053EA76
:100880004C0308BF20EADC70704792F0000F00F0C4
:10089000004C02BF400010F4000F013AF9D040EACA
:1008A0000C0093F0000F01F0004C02BF490011F45E
:1008B000000F013BF9D041EA0C018FE70CEAD1535C
:1008C00092EA0C0F18BF93EA0C0F0AD030F0004CDC
:1008D00018BF31F0004CD8D180EA010000F0004090
:1008E000704790F0000F17BF90F0004F084691F04E
:1008F000000F91F0004F14D092EA0C0F01D1420288
:100900000FD193EA0C0F03D14B0218BF084608D150
:1009100080EA010000F0004040F0FE4040F400009A
:10092000704740F0FE4040F4400070474FF0FF0C2D
:100930001CEAD0521EBF1CEAD15392EA0C0F93EA74
:100940000C0F69D0A2EB030280EA010C49024FEAC6
:10095000402037D04FF0805343EA111143EA10137F
:100960000CF000408B4238BF5B0042F17D024FF437
:10097000000C8B4224BF5B1A40EA0C00B3EB510F12
:1009800024BFA3EB510340EA5C00B3EB910F24BFFB
:10099000A3EB910340EA9C00B3EBD10F24BFA3EB80
:1009A000D10340EADC001B0118BF5FEA1C1CE0D148
:1009B000FD2A3FF650AF8B4240EBC25008BF20F0FB
:1009C000010070470CF0004C4CEA50207F32C2BF4F
:1009D000D2F1FF0340EAC250704740F400004FF0EC
:1009E0000003013A37E792F0000F00F0004C02BF1D
:1009F000400010F4000F013AF9D040EA0C0093F0E7
:100A0000000F01F0004C02BF490011F4000F013B40
:100A1000F9D041EA0C0195E70CEAD15392EA0C0FA8
:100A200008D142027FF47DAF93EA0C0F7FF470AFE0
:100A3000084676E793EA0C0F04D14B023FF44CAF23
:100A400008466EE730F0004C18BF31F0004CCAD1B8
:100A500030F000427FF45CAF31F000437FF43CAFF4
:100A60005FE700BF7BB972B90029BEBF00204FF01D
:100A7000004106E008BF00281CBF6FF000414FF0A6
:100A8000FF3000F0BFB9ADF1080C6DE904CE0029CC
:100A900009DB002B1ADB00F04DF8DDF804E0DDE99E
:100AA000022304B07047404261EB4101002B1BDB85
:100AB00000F040F8DDF804E0DDE9022304B0404234
:100AC00061EB4101524263EB43037047524263EBD7
:100AD000430300F02FF8DDF804E0DDE9022304B061
:100AE000404261EB41017047524263EB430300F027
:100AF00021F8DDF804E0DDE9022304B0524263EBA3
:100B00004303704753B94AB9002908BF00281CBFE6
:100B10004FF0FF314FF0FF3000F074B9ADF1080C29
:100B20006DE904CE00F006F8DDF804E0DDE902230B
:100B300004B070472DE9F047089E0D4604468846EC
:100B4000002B4DD18A42944668D9B2FA82F252B152
:100B500001FA02F3C2F1200120FA01F10CFA02FCC1
:100B600041EA030894404FEA1C45210CB8FBF5FE0E
:100B70001FFA8CF705FB1E8341EA03430EFB07F1C6
:100B800099420BD91CEB03030EF1FF3080F01E815C
:100B9000994240F21B81AEF1020E63445B1AA4B28B
:100BA000B3FBF5F005FB103344EA034400FB07F701
:100BB000A7420AD91CEB040400F1FF3380F008813E
:100BC000A74240F2058164440238E41B40EA0E402B
:100BD00000211EB1D4400023C6E90043BDE8F087E0
:100BE0008B4208D9002E00F0EE800021C6E90005F6
:100BF0000846BDE8F087B3FA83F100294AD1AB4239
:100C000002D3824200F2F980841A65EB03030120CB
:100C10009846002EE2D0C6E90048DFE702B9FFDEC1
:100C2000B2FA82F2002A40F09180A1EB0C054FEA63
:100C30001C471FFA8CFE0121B5FBF7F307FB13508D
:100C4000250C45EA00450EFB03F0A84208D91CEB31
:100C5000050503F1FF3802D2A84200F2CB804346DB
:100C60002D1AA4B2B5FBF7F007FB105544EA054472
:100C70000EFB00FEA64508D91CEB040400F1FF356D
:100C800002D2A64500F2BB802846A4EB0E0440EA3F
:100C900003409EE7C1F120078B4022FA07FC4CEA93
:100CA000030C20FA07F405FA01F31C43FD404FEA58
:100CB0001C4900FA01F3B5FBF9F8200C1FFA8CFE71
:100CC00009FB185540EA054508FB0EF0A84202FA58
:100CD00001F20BD91CEB050508F1FF3A80F0888082
:100CE000A84240F28580A8F1020865442D1AA4B2FA
:100CF000B5FBF9F009FB105544EA054500FB0EFE73
:100D0000AE4508D91CEB050500F1FF346CD2AE45A9
:100D10006AD90238654440EA0840A0FB0294A5EB7A
:100D20000E05A542C846A64656D353D05EB1B3EBD6
:100D3000080265EB0E0505FA07F722FA01F3CD402C
:100D40001F43C6E900750021BDE8F087C2F120030A
:100D500020FA03F10CFA02FC25FA03F395400D4347
:100D60004FEA1C471FFA8CFEB3FBF7F107FB11306B
:100D70002B0C43EA004301FB0EF0984204FA02F404
:100D800008D91CEB030301F1FF382FD298422DD96B
:100D9000023963441B1AADB2B3FBF7F007FB103303
:100DA00045EA034500FB0EF3AB4208D91CEB0505F1
:100DB00000F1FF3816D2AB4214D902386544ED1A5F
:100DC00040EA014138E73146304607E78646E5E626
:100DD0001846FAE64B45A9D2B9EB020864EB0C0EB3
:100DE0000138A3E74046EAE7204694E74146D1E7C9
:100DF000D0467BE7023B654432E7084609E7644496
:100E0000023842E7704700BF4FF0FF3C06E000BFEA
:100E10004FF0010C02E000BF4FF0010C4DF804CD83
:100E20004FEA410C7FEA6C5C4FEA430C18BF7FEA43
:100E30006C5C1BD001B050EA410C0CBF52EA430C71
:100E400091EA030F02BF90EA020F0020704710F1F1
:100E5000000F91EA030F58BF994208BF90422CBF80
:100E6000D8176FEAE37040F0010070474FEA410C79
:100E70007FEA6C5C02D150EA013C07D14FEA430C97
:100E80007FEA6C5CD6D152EA033CD3D05DF8040B08
:100E9000704700BF8446104662468C46194663463A
:100EA00000E000BF01B5FFF7B7FF002848BF10F111
:100EB000000F01BD4DF808EDFFF7F4FF0CBF012056
:100EC00000205DF808FB00BF4DF808EDFFF7EAFFD2
:100ED00034BF012000205DF808FB00BF4DF808ED8D
:100EE000FFF7E0FF94BF012000205DF808FB00BF82
:100EF0004DF808EDFFF7CEFF94BF012000205DF80C
:100F000008FB00BF4DF808EDFFF7C4FF34BF012018
:100F100000205DF808FB00BF10F8012B11F8013B21
:100F2000012A28BF9A42F7D0D01A7047034613F817
:100F3000012B002AFBD1181A01387047000000006D
:100F4000C1F30A52F8B5A2F2FF35132D0B468446C1
:100F50000C46064630DC002D1EDB354F2F4101EAE2
:100F60000702024315D030A3D3E90023FFF73EF96F
:100F700000220023FFF7C6FF48B1002C04DA4FF42B
:100F8000801343FA05F52C4424EA0704002623467F
:100F9000B44660461946F8BD23A3D3E90023FFF702
:100FA00025F900220023FFF7ADFF0028EFD0002C29
:100FB00024DB00263446EAE7332D08DDB5F5806FE3
:100FC000E7D10246FFF712F984460B46E1E7A2F2A9
:100FD00013424FF0FF37D7400742DAD012A3D3E9CC
:100FE0000023FFF703F900220023FFF78BFF0028FF
:100FF000CDD0002C0BDB26EA0706C8E724F000431F
:101000000C4A1E43002E18BF14460026BFE7142DBD
:1010100008D00123C5F1340503FA05F5AE1928BF40
:10102000E418E8E70134E6E79C7500883CE4377E85
:10103000FFFF0F000000F0BFF0B589B00146054684
:10104000002606A8CDE9066608F0FAFB044670B152
:10105000204B21490096CDE90350CDE901630122DF
:10106000334630460FF072FD204609B0F0BD1B4BF1
:101070000395CDE901031849009003460322184D5A
:10108000184F0FF063FD6E1C154906A808F04AFCC6
:101090000446D8B96B78CBB12B78012B0AD1124B0F
:1010A0000D490396CDE901030090034603220FF09A
:1010B0004DFDE9E72B6908490090CDE90363CDE9CF
:1010C0000107034603220FF041FDDDE706A808F003
:1010D000ABFCC9E7BA790108C86E0108D4790108E8
:1010E000180D0020F2790108E879010830B5364C76
:1010F0003648002389B0A360354B236110F0E5F931
:1011000000B3344B06930223059305AA4FF4825192
:101110003148324D0FF017FD2B48E56008F0AAFC6E
:101120000223002844D12E4A2B48CDE905324FF442
:10113000865105AA0FF007FD284609B0BDE83040EA
:10114000FFF77ABF21486A46012110F008FA08B17A
:10115000244BD7E7244B2048069305AA009B07930E
:101160004FF4C651032505950FF0EDFC174801AA71
:10117000022110F0F4F908B11C4BC3E71C4B069395
:1011800005AA019B144807934FF4C65105950FF02B
:10119000DAFCDDE90032A3FB02321B0D43EA023325
:1011A000144A0595CDE906234FF4C65105AAAFE7C9
:1011B000114A0948CDE905324FF4825105AA0FF0D2
:1011C000C2FC09B030BD00BF58000020097A0108F8
:1011D0002C0D00200C7A0108C86E0108867A0108DF
:1011E0008B7A0108207A01083B7A01084A7A0108C3
:1011F000647A0108737A0108997A01082DE9F041AF
:10120000D6B0304B2E9302232D93DFF8BC802F4EA7
:101210002F4D2E4800232DAA4FF4865110F035F99A
:101220000223CDF838800D9300230DAA30464FF4E9
:10123000865110F02AF9284601210FF0A6FC00F093
:101240007FF900F0EBF905212AA800F047FB00F038
:1012500083FD04465498FFF727F9CDE90801539818
:10126000FFF722F9CDE906015298FFF71DF9CDE904
:1012700004014E98FFF718F9CDE902015098FFF7E5
:1012800013F911AFCDE900012346124A6421384613
:101290000FF0FAFC0024104B029303222346314640
:1012A0002046CDE9004403970FF05FFC2846214615
:1012B0000FF06BFC00F062FA00F0F2F807480FF054
:1012C00092FCADE7C67A0108E47A0108106F0108C4
:1012D000A0700108FA7A01081B7B0108C0D4010044
:1012E0007FB50A4B0493022303930948002303AA02
:1012F0004FF4865110F0C9F84FF4FA700FF073FCF8
:101300004FF4FA700FF06FFCF6E700BF217B010885
:10131000106F01087FB50A4B049302230393094819
:10132000002303AA4FF4865110F0AFF84FF4FA707F
:101330000FF059FC40F6B8300FF055FCF6E700BF4F
:10134000407B0108106F0108F0B58FB03B4B0C9348
:1013500002230B9300230BAA4FF48651384810F058
:1013600094F800F0A5FCFFF7C1FE00F0F5FC0024A6
:10137000344B03900293CDE90044314923460322C4
:1013800020460FF0F2FB3048304D0CF0A9F92860F0
:101390002F48304E0CF0A4F94FF4B0123060092100
:1013A0002D480FF006FC2C484FF4B0120B210FF023
:1013B00000FC30684FF4B01203210FF0FAFB4FF439
:1013C000B012286804210FF0F4FB214623480FF0E7
:1013D000DCFB234821460FF0D8FB0026002705251B
:1013E000CDE90667CDE90245CDE900441D4B1E4914
:1013F00004944FF480521D480CF06AFB1C4B1D49AD
:101400000094CDE90667CDE90354CDE901444FF4DA
:10141000805219480CF05CFB184B1949194800948C
:10142000CDE90667CDE90354CDE901444FF480428C
:101430000CF04EFB05200FF0D6FBFBE7587B0108B4
:10144000106F0108817B01088A7B01085C0F002076
:10145000907B0108600F0020606B01089870010804
:10146000A070010815130008C0740020200500209A
:10147000E1120008A0640020A0040020FD11000873
:10148000802400202004002010B4134682681468D1
:101490000A46A446014910BC604700BF680F0020FF
:1014A00010B5224B86B01868836800215B689847A6
:1014B000C0B248B91E4B04931E48022303AA4FF43E
:1014C000865103930FF094FB1B4C4FF4C02220680D
:1014D00007210FF0B0FB20684FF4C02205210FF068
:1014E000AAFB20684FF4803206210FF0A4FB20688D
:1014F000124C4FF4C02204210FF09DFB2068002203
:1015000004210FF088FB2068002207210FF083FBE5
:101510002068002206210FF07EFB206800220521B2
:1015200006B0BDE810400FF076BB00BF640F00208E
:101530009B7B0108206F01085C0F0020600F0020DA
:101540007FB50C4B0C4A1A604FF482729A800B489C
:101550000CF0C6F80A4B186048B90A4B04930A48C5
:10156000022303AA4FF4825103930FF041FB07B00B
:101570005DF804FB680F002020A10700A97B01088B
:10158000640F0020AD7B0108206F0108F0B58BB01F
:1015900000AF01243B1D1D4E3870C7E9043407F12C
:1015A0000803C7E90634054607F110033068BF6039
:1015B00000220421C7E90834FC600FF02CFB042052
:1015C00014F0EBFD124B07F12002186807F1180127
:1015D000FFF75AFF042014F0E0FD30682246042192
:1015E0000FF019FB88B06A463B790A4993610423DE
:1015F000C2E90415084842F80C3F4FF403510FF0BC
:10160000F7FA38792C37BD46F0BD00BF5C0F0020DB
:10161000640F0020C97B0108206F01082DE9F04309
:1016200087B04D4B4D4F4E4D0493032402234C483D
:10163000039303AA4FF4865126460FF0D9FA03AA62
:101640004FF4C6512846CDE9047403960FF0D0FA42
:101650004FF47A700FF0FCFA013CF0D1414EDFF804
:10166000088130683E4D012203210FF0D4FA032493
:10167000274603AA4FF4C6512846CDE904840397B0
:101680000FF0B6FA4FF47A700FF0E2FA013CF0D1A5
:10169000DFF8D880324FDFF8D8900320FFF776FFCD
:1016A00005460A200FF0D4FA0020FFF76FFFF32D54
:1016B00012D103281CD12F4B04932948022303AADB
:1016C0004FF4865103930FF093FA41F2883007B03C
:1016D000BDE8F0430FF0BCBA312D09D1022303AAB3
:1016E0004FF486513846CDF8108003930FF080FAFE
:1016F0004FF47A700FF0ACFA0A2C10D11E4B049301
:101700003846022303AA4FF4865103930FF070FA70
:1017100041F288300FF09CFA0134E4B2BDE7142C9A
:10172000FAD9022303AA4FF4865138460393CDF821
:1017300010900FF05DFA0022032130680FF06BFA71
:101740004FF47A600FF084FA3068012203210FF021
:1017500062FA0024E0E700BFDF7B0108F47B0108A8
:10176000206F0108600F0020117C0108737C0108C4
:10177000B57C01082C7C0108907C01082DE9F04320
:1017800087B04D4B4D4F4E4D0493032402234C48DC
:10179000039303AA4FF4865126460FF029FA03AAB1
:1017A0004FF4C6512846CDE9047403960FF020FA91
:1017B0004FF47A700FF04CFA013CF0D1414DDFF854
:1017C000088128683E4E012203210FF024FA0324E9
:1017D000274603AA4FF4C6513046CDE90484039747
:1017E0000FF006FA4FF47A700FF032FA013CF0D1A4
:1017F000DFF8D880324FDFF8D8900320FFF7C6FE1D
:1018000006460A200FF024FA0120FFF7BFFEF32E50
:101810002BD1032835D12F4B049303AA02234FF475
:101820008651274803930FF0E3F94FF4FA600FF065
:101830000FFA2868002203210FF0EDF92868002232
:1018400004210FF0E8F92868002207210FF0E3F9DE
:101850002868002206210FF0DEF928680022052101
:1018600007B0BDE8F0430FF0D6B9312E09D10223FD
:1018700003AA4FF486513846CDF8108003930FF039
:10188000B7F94FF416700FF0E3F90A2CE3B20FD159
:101890000223384603AA4FF48651CDF810900393E3
:1018A0000FF0A6F941F288300FF0D2F90134A4E725
:1018B000152BFBD1084BAFE7DF7B0108C47C010887
:1018C000206F0108600F0020E27C0108737C010892
:1018D000907C0108FE7C0108487D01082DE9F04F4D
:1018E000DDB000230593284D049000230D910A9349
:1018F0000693099308930793059B0D9A934249D148
:10190000224B214850934FAA02254FF486514F9500
:101910000FF06EF90598FEF701FF0446014609989D
:10192000FFF704F8214607460698FEF7FFFF214619
:1019300080460A98FEF7FAFF214606460898FEF709
:10194000F5FF214681460798FEF7F0FF104B04464D
:101950004FAA0D484FF48651CDE94F530FF048F987
:10196000049A049BC2F89890C3F890401046002354
:10197000C2F89430C2F8A070C2F8A480C2F8A8607F
:101980005DB0BDE8F08F00BF206F0108377E010811
:10199000547E0108B74B5093059BB74851934FAA0B
:1019A00003234FF4C6514F930FF022F93020FFF775
:1019B000EDFD0B900C200FF04BF9012312A914AA96
:1019C0000FA8CDE91403CDE91613CDE9182313931D
:1019D0000B9B0EAFF32B129718AC30D1A74B509343
:1019E000059B51934FAA03234FF4C65128464F93AA
:1019F0000FF0FEF8A24B0022186804210FF00BF93B
:101A00004CAB0C93224600239E4C0B936FF03F038C
:101A10003B70206816A9FFF737FD0C9A9DF83C3003
:101A200002F8013B0B9B0C9201333D2B0B9318AA40
:101A3000ECD1934B0122186804210FF0ECF8924B83
:101A40000393924B029300243E23CDE900340322FA
:101A50004CAB294620460FF0CEF89DF85C019DF86E
:101A60005D119DF85E219DF85F319DF86A719DF8CA
:101A70006BE19DF86CC18DF841E060F307089DF8BB
:101A800054018DF842C061F30F289DF8551162F39F
:101A9000174860F307069DF856219DF8620163F32D
:101AA0001F6861F30F269DF857319DF8631162F3AB
:101AB000174660F3070A9DF864219DF866018DF8CA
:101AC000440063F31F6661F30F2A9DF865319DF8AA
:101AD00067118DF8451062F3174A63F31F6A9DF88A
:101AE00068310B930B9A9DF869318DF8473060F39C
:101AF000070B61F30F2B62F3174B3A4662F30709AA
:101B00006EF30F299DF86D718DF8402063F31F6B04
:101B10005F4B0B9A03936CF317495C4B8DF8437042
:101B200067F31F698DF84620042710AACDE9014309
:101B3000294613460097032220460FF05CF8554BC8
:101B40000393524B00970322CDE90143294611AB81
:101B500020460FF050F84046FEF7A6FC4E4ACDE96D
:101B6000000128211AA80FF08FF85046FEF79CFCC0
:101B7000494ACDE90001282124A80FF085F85846EC
:101B8000FEF792FC444ACDE9000128212EA80FF06F
:101B90007BF84846FEF788FC38AFCDE900013E4AA5
:101BA000282138460FF070F83046FEF77DFC3A4A9F
:101BB000CDE90001282142A80FF066F81AAB039383
:101BC000364B0094CDE901430322234629462046A3
:101BD0000FF011F842AB0393314B0094CDE9014370
:101BE00003222346294620460FF005F824AB039331
:101BF0002C4B0094CDE9014303222346294620467D
:101C00000EF0F9FF2EAB0393274B0094CDE901436F
:101C100003222346294620460EF0EDFF234B03976F
:101C200003222946CDE901432046234600940EF0C5
:101C3000E2FF41F288300FF00BF809985146FEF7A9
:101C4000B9FC494609900A98FEF7B4FC59460A9037
:101C50000698FEF7AFFC414606900898FEF7AAFCEE
:101C6000314608900798FEF7A5FC059B07900133C5
:101C7000059341E6A17D0108206F0108B37D0108AD
:101C80005C0F0020640F0020CD7D0108DA8401087C
:101C9000D97D0108E67D0108157B0108F37D010867
:101CA000077E01081C7E0108247E01082E7E0108A3
:101CB00030B58BB017480BF013FD044670B9164BC6
:101CC0000893022307934FF48251034607AA13484F
:101CD0000FF0DBFB124B1C600BB030BD14F0B9F8F9
:101CE00023680393054650B90E4B0C490090CDE98B
:101CF0000103012203460EF0B0FF2C46EAE70A4B2F
:101D000002930023CDE900330449032218460EF064
:101D1000A4FFDFE7757E01087C7E0108586F01088B
:101D2000740F00209D7E0108F17E010810B58CB073
:101D3000CDE9000103A968460CF092FF044C054A66
:101D400003464021204614F04FFC20460CB010BD45
:101D500002230020187F010830B589B014F07FFA03
:101D60000A220023FEF7CEFE124B00250446019501
:101D70001868836801A99B689847A8420ADA0E4B45
:101D80000693022305930D482B4605AA4FF4825172
:101D90000FF07BFB0A4800234FF47A72A4FB00018A
:101DA000FEF7B0FE002102460198FFF7BFFF09B021
:101DB00030BD00BF740F00202A7F0108586F010852
:101DC00000CA9A3B07B5009008440190694607484D
:101DD00000F050FBDDE9003293424FF0000234BFC7
:101DE0001A7003F8012C03B05DF804FB790C0108AC
:101DF0002DE9F04F8DB01F46169B0292009302F022
:101E00000403C2F3C2020193531C820705460E4627
:101E1000049340F01C82041D002840F01B8201F056
:101E20000706341DC6F108064FF0000A4FF00408FB
:101E30007B1ECDF80CA052465146C14605B1276025
:101E40000498002807DCC8488742C0F03981C74899
:101E5000874280F03581029810F0020E00F049812F
:101E60004FF0010C601BBEF1000F00F02F81B0F5A8
:101E7000007FC0F02B816FF01500F9E039B92528FB
:101E800040F03B8101214FF00408C14635E12B2889
:101E900024D81F2801D800212FE1A0F1200CBCF18B
:101EA0000B0FF8D80FF2040E5EF82CF0FB200008A0
:101EB000971E0008971E0008FB200008971E0008C8
:101EC000971E0008971E0008971E0008971E00081E
:101ED000971E00088B200008FB200008A0F12D0CA5
:101EE0005FFA8CFEBEF14D0FD5D8BCF14D0FD2D8A4
:101EF0000FF2040E5EF82CF0FB200008FB20000817
:101F0000971E0008FB200008FB200008FB200008AB
:101F1000FB200008FB200008FB200008FB20000835
:101F2000FB200008FB200008FB200008971E00088B
:101F3000971E0008971E0008971E0008971E0008AD
:101F4000971E0008971E00084D200008971E0008E5
:101F5000971E0008971E00084D2000084D2000081D
:101F60004D200008971E0008971E0008971E0008C5
:101F7000971E0008FB200008971E0008971E000807
:101F8000971E0008971E0008971E0008971E00085D
:101F9000971E0008971E0008971E0008971E00084D
:101FA000971E000831200008971E0008971E0008A1
:101FB000971E0008971E0008971E0008971E00082D
:101FC000971E0008971E00084D200008971E000865
:101FD00031200008312000084D2000084D20000865
:101FE0004D200008FB200008312000087F20000859
:101FF000971E0008FB200008971E00088520000897
:102000003120000885200008971E0008971E000850
:1020100085200008871E000831200008971E000850
:10202000971E000831200008971E0008871E000830
:1020300013F8011C6C2927D113F8021C6C294FF0EE
:1020400000013AD04FF00408C1461EE0009800F1AC
:10205000070B2BF00700F0E802890734009024F00A
:10206000070455B105982044B04204D96FF01B0015
:102070000DB0BDE8F08FC4E90089083400214FF0AD
:10208000080802E70021DDE70021013C4444C8F1D3
:10209000000C04EA0C0425B1A9EB050CA444664528
:1020A000E4D3732852D10498DDF800B001385BF80E
:1020B000047B0490CDF800B0C0E64FF00808C3E7F9
:1020C00002984FF0000C00F0020ECBE60F2A3FF60C
:1020D000D2AE45B30DF1300EC0F387009644BCF18B
:1020E000000F1AD060F07F000EF8100C0AF1010A00
:1020F0000132C5F108000434059013F8010F0028DF
:102100007FF4BCAE611BB1F5806FBFF4B4AE002D9F
:1021100041D1A6F108046018AAE70EF8100C039844
:1021200001300390E4E7BCF1000F01D1019808B140
:102130000136DDE73846CDE906210593FEF7F6FEC8
:102140000236DDE90621059B0644D1E7B9F1040F0B
:102150000ED1009800F1040C0DB100682060043429
:10216000CDF800C0C9E700BF086A010878980108E7
:10217000B9F1080F7FF47FAE0098073020F0070018
:1021800000F1080CCDF800C01DB1D0E900BCC4E9D5
:1021900000BC0834B1E7019B2860890829709DF8CC
:1021A0000C10A3B16870E97085F802A0BAF1000FB5
:1021B00006D008A84FF0000CC5F1010E62450AD107
:1021C0000DF1200808EB0209C5F1010B39E0019B74
:1021D0006970EB70E8E710F8011B0B0608D504EBFB
:1021E0000E08464501F07F01FFF440AF04F8011BE3
:1021F0000CF1010CE2E7BAF1000F03D098F90020CE
:10220000002A1CDB019B03BB98F8002055F82270C4
:1022100045F822303846FEF789FE421C04EB0B01DC
:1022200011448E42FFF422AF98F8001004F8011B0D
:1022300039462046009214F092F9009A144408F1AD
:102240000108C145D7D1601B12E70022E6E76FF015
:102250000D000DE707293FF6E7AD07E70B680133EF
:102260000B60014B1B6818477C000020014B186075
:10227000704700BF7C00002007B50B4600210246D6
:102280000191034801A900F0F5F803B05DF804FBE3
:102290005D22000830B585B0CDE901010446002576
:1022A00001A90548039500F0E5F8DDE90230984200
:1022B000B8BF255405B030BDBB0D01082DE9F8436A
:1022C000C368446905695F1E40F26C73E11701350C
:1022D000E41841F10001022D8CBF00230123E41A10
:1022E00061F100010029804656DA6FF4C7702018AA
:1022F0004FF4C8724FF0000361F10001FEF7B2FB2A
:10230000284B024603FB0044D8E90090D8F8088027
:102310003C23C617C8FB0306022DB446A0FB0306E8
:102320008CBF6FF0020E4FF0090E03FB0C6610EB32
:10233000090C4FEA940340F26D1000FB04333B4458
:102340004FF06400B4FBF0F405EB0E00A3EB0403C4
:102350004FF09905144C05FB00F000F102004FF01E
:102360000505B0FBF5F00344A2FB040246EBE97659
:102370001B180E4804FB01210D4A41F100011818F9
:10238000A0FB020361F1000102FB013110EB0C0024
:1023900041EB0601BDE8F8834FF4C87200232046E4
:1023A000ACE700BF70FEFFFFB13A02009405F5FFF5
:1023B00080510100F0B5084E026803460A2700204C
:1023C000114601320C78A55D6D0701D41960F0BD8E
:1023D00007FB00403038F3E7789501082DE9F84F06
:1023E00015469A46D378224A13F802B06F2B8046DE
:1023F0000F460BF0030B29D024D8582B14BF0A2604
:102400001026DDF828903246002340463946FEF774
:1024100079FB092AD4B21ED83034B045E4B277F142
:10242000000309F8014D01D3D14511D82B789B0643
:1024300005D5082E15D1AB7843F00803AB7048469C
:10244000BDE8F88F03F0F703702BD7E70826D8E72D
:1024500080460F46D7E7BBF1010F0CBF3734573426
:10246000DBE7102EEBD1AB7843F01003E6E700BFBB
:10247000789501082DE9F04F81469BB08A461546B4
:102480001C460026287810B9304600F0C5BD6B1CEC
:102490002528029306D05146C8470028C0F2BC85C3
:1024A000013626E2182200210CA814F080F86B787F
:1024B000252B59D06A1C174612F8013B2B2B00F034
:1024C0008B8079D8202B00F08C80232B00F08E801D
:1024D0009DF8383003F04402442A03D16FF3861389
:1024E0008DF838309DF838300A9743F080038DF826
:1024F00038303B782A2B7ED19DF8393043F00103E8
:102500008DF839307B1C0A931A782E2A9DF83920D1
:102510000CBF0121002161F341028DF839200BD15C
:102520005A1C0A925A782A2A7BD19DF8392042F007
:1025300004028DF8392002331A4612F8010B6C2878
:1025400000F0CF807DD8682800F084806A2800F0F1
:10255000D2804C2800F0D6809DF839206FF3C60257
:102560008DF839201A4680E0AA1C02928DF83B3083
:102570009DF83930DF0740F1708154F804BBBBF19E
:10258000000F07DA9DF8382042F004028DF8382059
:10259000CBF1000B580740F1698154F8048BB8F176
:1025A000000F80F268819DF839306FF341038DF898
:1025B00039304FF0FF385EE12D2B06D0302B87D11C
:1025C0009DF8383043F0400303E09DF8383043F085
:1025D00004038DF838306EE79DF8383043F0080377
:1025E000F7E79DF8383043F01003F2E79DF83830F4
:1025F00043F02003EDE70AA8FFF7DCFE0A9BBB428D
:1026000081D09DF838100F90C1F3400242EAD07299
:10261000520062F07F0201F07D010A438DF83820FC
:1026200071E70AA8FFF7C6FE9DF838301090C3F393
:10263000400242EAD07060F341038DF838300A9BC3
:102640007AE774289DF8391059D07A2884D10B463E
:10265000062141E0597868299DF839103AD10122C4
:1026600062F3C6018DF839109A1C134613F8012B3A
:102670000293782A8DF83B2000F2C580572A4ED865
:10268000412A04D0A2F14503022B00F2BC809DF840
:102690003A3002F0DF020421A2F1410861F30203A3
:1026A000D8F100029DF839108DF83A3042EB08025B
:1026B00062F3C7110A068DF83910CBB200F1CB8056
:1026C00003F07802182A40F09B806FF3C6038DF860
:1026D000393082E00B46022161F3C6038DF83930B0
:1026E000C3E759786C299DF8391001D10422B7E766
:1026F0000B460321F0E79DF839300521ECE70B4646
:102700000721E9E7BDF8383023F4F04323F0020352
:1027100043F4804343F00203ADF83830A5E7A2F15B
:102720005803202B6FD801A151F823F0DF270008B0
:1027300007280008072800080728000807280008BD
:1027400007280008072800080728000807280008AD
:102750008F26000807280008DF270008B127000897
:102760008F2600088F2600088F26000807280008FB
:10277000B1270008072800080728000807280008D4
:102780000728000815280008DF2700083928000856
:10279000072800080728000839280008072800082B
:1027A000DF2700080728000807280008DF2700089F
:1027B0009DF83A30012161F302038DF83A309DF81B
:1027C000393003F07803402B02BF9DF8381041F0F8
:1027D00001018DF83810632A05D0002306E09DF82A
:1027E0003A300221E7E7003B18BF01239DF838206B
:1027F000C2F340010B4363F341028DF83820B7E682
:1028000013F0380FE9D09DF8383043F001038DF80C
:102810003830E2E79DF83A30032262F302038DF884
:102820003A309DF8393003F07803A3F1400CDCF125
:10283000000343EB0C03D9E79DF83A30032262F31F
:1028400002038DF83A309DF8393013F0780F14BF39
:1028500001230023CAE70123C8E79DF93820002A95
:10286000B4BFDDF83CB04FF0FF3B93E699077FF52E
:10287000A0AEDDF840809DF839100023CDE90F337C
:102880009DF83A3003F00702042A09D18A0707D4D9
:102890009DF93920002AB4BF4FF00D084FF006080B
:1028A00003F00703012BC1F3C30137D1CB1E042B67
:1028B00021D8DFE803F003090920200054F8043B85
:1028C000DA17CDE90C3206E0073424F00704F4E807
:1028D0000223CDE90C239DF83870BB0756D0029B2C
:1028E0002A46514648460EF03FFB0028C0F294832A
:1028F0000644029DC6E554F8043B01294FEAE37201
:10290000CDE90C3205D19DF830300C9300230D93A6
:10291000E1E70229DFD1BDF93030D1E7022B23D125
:10292000CB1E042B13D8DFE803F0030A0A121200AF
:1029300022680C920023201D0D930446CBE7E01D76
:1029400020F00700F0E80223CDE90C23F5E754F866
:10295000043B0C9301294FF000030D93D3D00229BF
:10296000B9D1BDF83030D0E7042B09D1E31D23F0F5
:10297000070303F10804D3E90023CDE90C23AAE7F8
:10298000032B04BF54F8043B0C93A4E79DF83B20B1
:10299000782AAED8572A00F28C80252A00F0D480FD
:1029A000242AA6D9412A03D0A2F14503022BA0D89C
:1029B000DDE90C13002BC0F2B781380700F1B681B6
:1029C00017F0100718BF2027C3F30A55C3F31303EA
:1029D000CDE90813002D40F0AB8151EA030014BF8C
:1029E00001200020DB0243EA5153C902462A45EA8E
:1029F000010E43EAE57C08BF66225EEA0C0CCDE9D5
:102A0000081300F00382002840F0CB81DDE90801C3
:102A10004FF0000C41F00041A5F2FE3509916346EC
:102A20004FF0050E15F1020FC0F2C281BCF1000F8C
:102A300001D0CDE90801002DDDE9081000F3CD81BA
:102A400009980899C5F1040C1C3500FA05F5ACF19C
:102A5000200E21FA0CF120FA0EFE294341EA0E0164
:102A600020FA0CF0CDE9081002F0DF01472940F010
:102A7000D481DD1C02DB984580F2CB81023AB8F1AB
:102A8000000FD2B201DD08F1FF389DF8381088063A
:102A900000F1C381B8F1000FD4BF00210121662AE3
:102AA000039140F0BC8113EB080540F1BA81002589
:102AB000BAE1A2F15803202B3FF61BAF01A050F85A
:102AC00023F000BFCB2C0008F3280008F3280008EF
:102AD000F3280008F3280008F3280008F32800086A
:102AE000F3280008F3280008B1290008F32800089B
:102AF000752B00086B2C0008B1290008B1290008CB
:102B0000B1290008F32800086B2C0008F3280008FE
:102B1000F3280008F3280008F3280008012D000816
:102B2000CB2C0008CF2C0008F3280008F32800085D
:102B30004F2B0008F3280008CB2C0008F3280008CE
:102B4000F3280008CB2C000851461046A4E4B8F145
:102B5000000F0C9A09DB41461046039213F06DFDFD
:102B6000039A0027151862B9C3E610460392FEF7D0
:102B7000DDF9F5E70C9B8DF84C3000270DF14D0584
:102B800013AAAB1A07B101339DF83A00C10640F110
:102B9000378202330F9940060B4444BF10995B18EB
:102BA000BBF1000F23DDABEB030B9DF83830590769
:102BB000C3F380081BD4580640F13682002F00F082
:102BC0003682514638460392C8470028C0F2248214
:102BD000039A474601364FF030085E445B46002BAF
:102BE000A6EB0B000BF1FF3B00F30E82064647B14C
:102BF000514638460392C8470028C0F20D82039A16
:102C000001369DF83A30590640F165829DF9393018
:102C1000002BA6EB020680F219821746B846F3197C
:102C200017F8010B702840F00582109F1E461F44C4
:102C3000BB1B002B00F348822B46424651464846B8
:102C40000EF092F90028C0F2E78130440646834432
:102C5000ABEB0603002B7FF74CAE51462020C84754
:102C60000028C0F2D9810136F2E73D072BD417F0D6
:102C7000100718BF2027DDE90C23002B05DA52428C
:102C800063EB4303CDE90C232D270DF1650300937E
:102C90000EAADDE90C0113ABFFF7A0FB0246B8F169
:102CA000000F0DF16505FFF65EAF9DF83810AB1A09
:102CB0006FF3861198458DF838107FF654AFA8EB66
:102CC00003030F934FE72B27D5E70027DDE70C9889
:102CD000002800F091810DF1650300930EAA13AB5B
:102CE0000021FFF77BFBBDF83A3003F0EF0343F41C
:102CF000F04343F010030246ADF83A300027CEE728
:102D00000C9B07293FF6F5ADDFE801F00C04060C3B
:102D100008080C0C1E70ECE51E80EAE5F217C3E90A
:102D20000062E6E51E60E4E52D274DE62B274BE625
:102D300040F2FF70854231D10132B948D2B20B4323
:102D4000125C02F003021BD1012A11D149238DF834
:102D50004C304E238DF84D3046238DF84E309DF883
:102D600038306FF386138DF838300DF14F0507E7D3
:102D700069238DF84C306E238DF84D306623ECE7D7
:102D8000012A07BF4E2341226E2361220CBF8DF81A
:102D90004C308DF84C308DF84D20DEE7002021E6D8
:102DA000013D49185B41002BFADACDE908132DE605
:102DB000400840EAC1704908B1F1333FAC4605F123
:102DC0000105F5D20EFB01F5A0FB0E012944013BE4
:102DD0000CF102054FF0010C24E6023140F1000035
:102DE000CDE9081008A8CDE903230EF08EF8049B66
:102DF000039ADDE90810013D0133491840410028DC
:102E000005F1FF35F9DACDE9081014E600231D4677
:102E100016E6A8EB0308662237E600213FE608F134
:102E20000105102DA8BF10251021079100204FF09B
:102E30000061CDE90A01DDE90A10A5B9089D49192B
:102E4000099D40EB0505B5F1805F1BD2CDE9081562
:102E5000662A40F09980002B23DC30218DF84C103D
:102E60000DF14D052FE0490841EAC0714008CDE958
:102E70000A100AA8CDE90423013D0EF046F8DDE969
:102E80000423D8E7490841EAC57108A86D08CDE9CF
:102E90000423CDE908150EF038F8059B049A013398
:102EA000D6E713AD079900290BDD07A908A8CDE9DE
:102EB00004230EF042F8059B05F8010B013B049A30
:102EC000F0D10F9300239DF83810890602D4B8F191
:102ED000000F1DDD2E2105F8011B9BB1B8F1000F7D
:102EE00016DD59424145A8BF41469DF83A000F9171
:102EF0000029A8EB0108D4BF0021012161F345108E
:102F00008DF83A00B8F1000F02DD0799002956DC70
:102F10000399002963D1CDF8408002F0DF014529F3
:102F200021D1002B2946B8BF5B4201F8022BB4BF68
:102F30002D222B22632B6A7009DD6420B3FBF0F293
:102F400002F1300CE91C85F802C000FB12330A20A4
:102F50000D46B3FBF0F200FB123302F1300C3033BC
:102F600005F802CB4B700F9B002B43DC109B002B12
:102F7000D4BF002301239DF83A2063F38612002377
:102F80008DF83A202B70FBE507A908A8CDE90423AA
:102F90000DF0D3FFDDE904239DF838108DF84C00C7
:102FA000302818BF03F1FF33880602D4B8F1000FB0
:102FB00012DD2E218DF84D100DF14E05A2E707A967
:102FC00008A8CDE904230DF0B8FF08F1FF38DDE9CA
:102FD000042305F8010B95E70DF14D0598E7002155
:102FE0001091284615F8011D3029FAD02E2918BF56
:102FF000054692E70123BEE70A4D07466A1FC0E572
:10300000010748BF0133C5E5514640460392C84712
:103010000028039ABFF6E2AD1BB0BDE8F08F00BFF9
:1030200077950108577F01084FF02008D5E54FF04C
:103030003008D2E55146C8470028BFF6EFADEBE7B0
:1030400051460392C8470028039AE5DB1078374BB6
:10305000C35C5B07174606EB020802F10102EFD4DE
:103060009DF83A300F9E990607D4B044002EA8EB85
:10307000060206F1FF360FDC904638782E2808D17C
:103080005146C8470028C7DB002E08F1010809DCBB
:103090000137A8EB07060EE051463020C84700284C
:1030A000E4DAB9E751463020C847013EEAE7514625
:1030B000C8470028B0DB1D4AB846F31917F8010BC2
:1030C000125C5207F3D4B0E551463020C8470028BF
:1030D000A2DB0136ACE5D80601D4190707D5514665
:1030E00030200392C847002896DB039A01369DF8EA
:1030F0003A30DB0608D59DF83B0003925146C8479D
:10310000002889DB039A01360F9F3744BB1B002B35
:1031100001DC2B4692E5514630200392C847002837
:10312000FFF67AAF039A0136F0E700BF7895010801
:103130000C4B1A6842F400721A601A6842F48062FA
:103140001A604FF01002EFF3118382F31288BFF37D
:103150006F8F83F31188BFF36F8F034B034A1A609D
:1031600000207047004000582802002000093D0060
:1031700030B51049104889B0002213F072F80F4D95
:103180000F4900220023CDE9062300240E23CDE9B8
:103190000334CDE901440B4B00944FF440722846B0
:1031A0000AF096FC0849284612F0A9FE204609B00C
:1031B00030BD00BFCD310008A0090020D809002093
:1031C000E0840020F1330008587F010801480AF02C
:1031D000B1BD00BFD4030020014B53F8200070475D
:1031E000A870010870B5124BBFF35B8F53E8005F06
:1031F0006A1C43E800210029F8D1BFF35B8F2DB989
:103200000C4C0D4E361B3611B54200DB70BD237BD6
:1032100053B123689B690BB1204698476368042229
:103220001968204600F092F901351034ECE700BF30
:10323000800F0020686F0108786F010810B5044CFA
:10324000237813B903480AF075FD0123237010BDDC
:1032500042230020D40300200C4BBFF35B8F53E8C4
:10326000002F013243E800210029F8D1BFF35B8F22
:1032700058B1BFF35B8F064B53E8002F013A43E888
:1032800000210029F8D1BFF35B8F70477C0F00202D
:10329000780F00200020064BBFF35B8F024653E8F7
:1032A000000F43E800210029F9D1BFF35B8F70477D
:1032B0007C0F0020F8B5FFF7EDFF0A4C0A4D2D1BDF
:1032C00007462D110026AE4200DBF8BD63685B792E
:1032D0002BB123681B6913B1394620469847013644
:1032E0001034F0E7686F0108786F0108014902485F
:1032F0000DF005BFB4700108840F0020084A08B51E
:1033000000231370074A1360074B084A1A604FF4F2
:103310007A7000F0FFFABDE80840FFF7E7BF00BF92
:10332000432300207C0F002080000020AB13010805
:1033300001460022014800230DF002BF840F002047
:1033400001480DF093BF00BF840F002001460148E3
:103350000DF0D8BF840F002001480EF007B800BF61
:10336000840F00201D4B1B782DE9F041054603B961
:1033700088B30EF027F8064618B16DB13046FFF756
:10338000E5FF2DB9164B1B68002B01DDFFF792FFFF
:10339000BDE8F041FFF7E0BF124BBFF35B8F53E88E
:1033A000002F013A43E800210029F8D1BFF35B8FD9
:1033B0000D4C0E4F3F1B3F11A846B845DEDA63683F
:1033C0005B7923B1236831461B682046984708F192
:1033D00001081034F1E7BDE8F08100BF422300206E
:1033E0007C0F0020780F0020686F0108786F0108BB
:1033F00010B5FFF7F7FE0BF0F5F80C4B186030B185
:103400000B4B1B68092B02DD0A480AF093FC094CA0
:103410000020FFF7A7FF0028FAD14FF0FF324FF04E
:10342000FF3320460AF0ACFCF2E700BFC40F0020D7
:10343000780F0020D403002013B51D4BBFF35B8F22
:1034400053E8002F511C43E800100028F8D1BFF3C7
:103450005B8F184B1B7883B14FF01003EFF311848F
:1034600083F31288BFF36F8F0020FFF77BFF84F395
:103470001188BFF36F8F02B010BD0F4B1B68002B7C
:10348000F9D052B900220023CDE900230B4842F2C3
:10349000107200230BF0D0FAEDE70A2AEBD10748AF
:1034A00012F0EBFE064802B0BDE810400AF042BC44
:1034B000780F002043230020C40F0020A009002023
:1034C000D4030020064B10B51B68044698472146DC
:1034D000A06004480DF0AAFEBDE81040FFF7ACBFA5
:1034E00080000020840F0020F8B50E4F3D7875B99C
:1034F0000D4C0E4EFFF776FE361B3611B54207DB3C
:103500000020FFF72FFF0028FAD101233B70F8BD00
:1035100063685B791BB1236820465B699847013576
:103520001034EBE743230020686F0108786F01082F
:10353000044A054B9B1AB1EBD30F34BF52F831004C
:1035400000207047A06E0108686F0108054A4368B3
:10355000801A001101300122187119605A71FFF7A9
:103560006DBE00BF686F01080EB403B503AB014622
:1035700053F8042B04480193FEF77CFF02B05DF87A
:1035800004EB03B0704700BF051401082DE9F047B4
:103590001D46089B1746DA0604460E4605D49906D2
:1035A0004CBF2B492B49FFF7DFFFDFF8AC904FF002
:1035B0000008A8452DDBDFF8A480DFF8A490DFF831
:1035C00098A00025BD4232D2725D49462046FFF7E1
:1035D000CBFF0135102D23D12249DFF87C80DFF8A5
:1035E0008890DFF888A02046FFF7BEFF0025AF4295
:1035F00029D9725D12F8093013F0970F08BF2E22F7
:1036000051462046FFF7B0FF0135102D14D1BDE81B
:10361000F08749462046FFF7A7FF08F10108C8E7F1
:103620006A07CFD151462046FFF79EFFCAE74146C1
:103630002046FFF799FFCCE76B07D8D141462046DB
:10364000FFF792FFD3E741462046FFF78DFFDBE708
:10365000657F0108647F0108C9930108C7930108C9
:10366000677F01086D7F0108789501086F7F010869
:103670002DE9F04F87B01C4601F0010305929DF83B
:103680004090BDF948A004930746884601F0020B1C
:1036900001F008060DF09AFE0246002844D03A498F
:1036A0003846FFF761FF0546BBF1000F08D018F060
:1036B000440F3BD1354922463846FFF755FF0544B4
:1036C000049B53B1324B334953F82920324B3846CF
:1036D000002A08BF1A46FFF747FF3EB12F4B30497B
:1036E00053F829203846FFF73FFF0646BAF1000F8E
:1036F00016DB059B002B45D0012303FA09F9294B62
:10370000294C19F0100F18BF1C4651469DF8440073
:10371000FFF70EFF214602463846FFF725FF064415
:10372000701907B0BDE8F08F0546BDE71F4B18685C
:103730000028C4D01E4B4FF47A781B68B4FBF3F416
:103740004FF46161B4FBF0F300FB134408FB04F495
:103750004FF03C0CB3FBF1F201FB1231B4FBF0FE75
:10376000B1FBFCF300FB1E440CFB131108FB04F43B
:103770000091B4FBF0F00F49CDE901E03846FFF7C6
:10378000F3FE9CE7084CC0E7807F0108847F0108B6
:10379000C8700108DA840108727F0108DC70010832
:1037A000A97F01087C7F0108777F0108C80F0020EE
:1037B000CC0F00208D7F010838B50C46E107054687
:1037C00003D5084A0849FFF7CFFEE20608D4A3064E
:1037D00028464CBF05490649BDE83840FFF7C4BE3E
:1037E00038BD00BF727F0108DA840108657F0108D7
:1037F000647F01082DE9FF470B8813F4E07F06463C
:103800000C469046C3F382194DD00A784B68C2F338
:10381000C202002B44D025495B1A43F3CF03CDE904
:103820000123CDF80090A368002241463046FFF7FF
:103830001FFF8246254655F80C3BC3F3492353B17D
:103840001B4F1C481C492B463246B9F1000F08BFDC
:1038500038460DF026FA6788C7F3CB0797B123687F
:10386000C3F349231D44102F3C4628BF102429468A
:10387000CDF80080534622463046FFF787FE3F1BB7
:103880002544F0D1B9F1000F04D04A4641463046F4
:10389000FFF792FF304604B0BDE8F0470DF0A5BD3C
:1038A0004FF0FF33BBE7CA46C4E700BFA06E010874
:1038B0003B140108051401087524000873B542F291
:1038C0000F738B4228BF0B4605680F4A044605213B
:1038D00068460DF092FA63680C495B6806460B2255
:1038E00028460DF075FD63683246694628465B68D8
:1038F0000DF06EFD636806495B681B2228460DF0DB
:1039000067FD02B070BD00BFF1870108EB7F0108C1
:10391000CF7F0108084A10B50123084C136000212D
:10392000A04204D801B11360054B186010BD4008D7
:103930005B000121F4E700BFCC0F002040420F00E4
:10394000C80F00202DE9F04F87B0DDE911579A46E6
:10395000109BDDF84CB00393044689469046CFB3E4
:10396000CDF800B03B462A460C210020CDF814B01B
:10397000FEF73EFA0646039A08F0070304F007082C
:1039800002F11300144C4FEAC80848EA8318304487
:10399000124B04EA462420F0070048EA040803EA30
:1039A000C243800848EA0308FFF7C2FC044640B15E
:1039B0003FB1CDF800B03B462A4631460C30FEF709
:1039C00017FA534642464946204607B0BDE8F04F35
:1039D0000DF040BD3E46CEE700FE07000000F87F38
:1039E000F8B5074F0D4604464618B44201D12846A3
:1039F000F8BD386814F8011B83685B689847F4E7E2
:103A0000E80F0020014B002019607047D80F0020FC
:103A1000014B024A1A607047E80F0020906B0108C2
:103A2000024B034801221A700DF0DFBC4423002032
:103A3000107101080148FFF741BF00BF1071010874
:103A4000064B10B518680C46FFF7C6FB2146034627
:103A5000BDE8104002480F22184700BFD80F0020D1
:103A60001071010808B5044812F064FA034B0020F5
:103A7000C3E9003308BD00BFF40F0020EC0F0020A5
:103A8000F8B50646FDF752FA0546124F12484FF0B8
:103A9000FF324FF0FF330AF093F83C68BC420ED17E
:103AA00000240D480AF004F92046F8BDA068FDF78F
:103AB0003DFAA84206D07B689C42F1D02468002CD5
:103AC000F4D1EDE7A1682A46304612F08FFD0028B8
:103AD000F1D1E6E7EC0F0020F40F002030B50546E9
:103AE00087B015484FF0FF324FF0FF330AF068F807
:103AF0000DB1A86890B9114B0493022303931048A9
:103B0000002303AA4FF482516FF015040DF0BDFCA1
:103B100009480AF0CDF8204607B030BDFFF7B0FFE6
:103B2000044608B1074BE7E7074B5A68C5E900327E
:103B300015605D60ECE700BFF40F00201180010804
:103B4000C06E01082A800108EC0F002001491022F4
:103B50000A60704710ED00E072B6404080F31188B3
:103B6000BFF36F8FBFF34F8F30BF62B6BFF36F8F5E
:103B7000704700BF2DE9F04786B0804600AF0C4685
:103B8000002945D0E94688B06D46D1E90012A36806
:103B900023482E464FF0050AC5E90401C5E906236E
:103BA00046F80CAF1F48324600234FF421510DF068
:103BB0006CFCD4E9031263691B48C5F80CA0CD4620
:103BC000C5E90401C5E90623AD461648324600237F
:103BD0004FF421510DF059FC144AE3690325C7E95C
:103BE0000423CD46FD600F4807F10C0200234FF47B
:103BF000C2510DF04AFC0E4AA369FD60C7E90423D7
:103C00000848002307F10C024FF4C2510DF03DFCAF
:103C10002146404609F0ACFD1837BD46BDE8F087A7
:103C200053800108286F010882800108B1800108D3
:103C3000C080010843B2002B08DB012200F01F0006
:103C400002FA00F05B09024A42F82300704700BF05
:103C500000E100E043B2002B0DDB01225B0900F024
:103C60001F0002FA00F02033034A42F82300BFF39A
:103C70004F8FBFF36F8F704700E100E043B2002B1E
:103C8000A8BF03F1604301F10101B8BF064B4FEA41
:103C90000111ACBF03F5614300F00F00C9B2B4BF1E
:103CA000195483F80013704714ED00E030BFFFF79C
:103CB000FDBF00BF08B5084B084A23F07F0393609F
:103CC000BFF34F8FBFF36F8F09F0D0FD0AF004FDF3
:103CD00000F072FB09F00EFE0000000800ED00E0AD
:103CE000094A0A4993680968D967094998674B687E
:103CF00043F080534B60002383F31188BFF36F8F31
:103D00009368D86F704700BFA4220020AC770108E9
:103D100000ED00E012498A684FF030001044EFF3E4
:103D2000098C80E8F01F102080F31288BFF36F8F9A
:103D30000C4F4FF000668A698A603E60906F0023E6
:103D4000936780F3118804B5104600F075FBBDE859
:103D5000044002F1300090E8F01F8CF309887047AE
:103D6000A422002004ED00E01EF0040F0CBFEFF3CE
:103D70000880EFF30980816911F8021C0229FFD045
:103D800001B50DF0FEFB01BD42F8203C009B42F85E
:103D90001C3C0A49019B42F8183C029B42F8143C27
:103DA00021F001014FF0807342F8043C42F8081CF6
:103DB0000023203A02658367704700BF150E010893
:103DC000094A0346906870B113F1160F806E05D052
:103DD000A0F120029A4205D8834203D2814228BF33
:103DE0000020704700207047A422002008B5094B2E
:103DF00098600D46144600F01FFB204685F30988A5
:103E0000002163B681F31188BFF36F8F0022002376
:103E10000DF000F8A422002001B5EFF30580A0F119
:103E200010004FEAC0000449014409C99847BDE8A1
:103E30000140024908470000B06C0108413E0008FB
:103E4000044B99689869884203D003494FF0805227
:103E50000A607047A422002004ED00E070B586B02F
:103E6000364B049306460D463548022403AA4FF408
:103E7000825103940DF094FB324B9B6ADB0408D50E
:103E8000314B2F4803AA4FF48251CDE903430DF083
:103E900087FB2C4B9B6A1C0509D52C4B04932848A7
:103EA000022303AA4FF4825103930DF079FB254CB2
:103EB000A36A98051DD5264B049303AA02234FF449
:103EC00082511F4803930DF06BFBA36BA26A110490
:103ED0000FD5204A1A48CDE904234FF4C2510323D9
:103EE00003AA03930DF05CFB1EB1A36A23F4004305
:103EF000A362144B9B6A5A0509D5174B04931048CB
:103F0000022303AA4FF4825103930DF049FB0D4B9A
:103F10009B6ADB0509D5114B04930948022303AAC8
:103F20004FF4825103930DF03BFB064A936A002045
:103F300043F47F439362287006B070BDEE800108A1
:103F4000286F010800ED00E00481010815810108D7
:103F50002881010841810108568101087181010809
:103F600010B586B0334B34480493022403AA4FF4AF
:103F7000825103940DF014FB304B9B6A9B0108D5D2
:103F80002F4B2D4803AA4FF48251CDE903430DF086
:103F900007FB2A4B9B6ADC0109D52A4B0493264870
:103FA000022303AA4FF4825103930DF0F9FA234B35
:103FB0009B6A180309D5244B04931F48022303AAC4
:103FC0004FF4825103930DF0EBFA1C4B9B6A59039B
:103FD00009D51E4B04931848022303AA4FF48251BB
:103FE00003930DF0DDFA154B9B6A9A0309D5184B24
:103FF00004931148022303AA4FF4825103930DF056
:10400000CFFA0E4B9B6ADB0309D5124B04930A4887
:10401000022303AA4FF4825103930DF0C1FA074A19
:10402000936A6FEA03436FEA13430020936206B07A
:1040300010BD00BF89810108286F010800ED00E074
:10404000A1810108B4810108CE810108EC81010839
:10405000118201082B8201082DE9F04186B03E4B08
:104060000493074688463D481546022403AA4FF4A8
:10407000825103940DF094FA394B9B6AD80608D507
:10408000384B364803AA4FF48251CDE903430DF073
:1040900087FA334B9B6A190709D5334B04932F4892
:1040A000022303AA4FF4825103930DF079FA2C4CAA
:1040B000A36A9A0721D46FF01506294B9B6AD8078B
:1040C00009D52A4B04932548022303AA4FF48251B1
:1040D00003930DF065FA224B9A6AD1062ED49A6AA0
:1040E00092072BD400201E4A936A43F0FF03936289
:1040F00000232B7006B0BDE8F0811D4B04931748D8
:10410000022303AA4FF4825103930DF049FA666B20
:10411000A36A1B06CFD5174B1048CDE9043603AA76
:1041200003234FF4C25103930DF03AFAB8F1000F94
:10413000C3D0A36A23F08003A362BEE75B681B05BC
:10414000D0D539463046FFF73BFE0028CAD080F371
:1041500009880220C7E700BF56820108286F0108BE
:1041600000ED00E06C82010815810108CD82010894
:104170009F820108B78201087FB50BAB05930393BB
:10418000054B02930023CDE9003301221846FFF7C7
:10419000D9FB07B05DF804FBEC8201082DE9F04380
:1041A000704B5E6891B00D46C6F30804002787F394
:1041B0001188BFF36F8F02F07F43B3F17F4F0DD1B2
:1041C00002F00C03082B0BD1674B0C9367480223BA
:1041D0000BAA4FF482510B930DF0E2F93D4603E038
:1041E000120701D40546012700238DF81F30E31E76
:1041F000092B00F29C80DFE803F0058D918A9A9AE2
:104200009A9A9A95574E5A4B58480C934FF0020879
:104210000BAA4FF48251CDF82C800DF0C1F9F46A4D
:104220004FF0000914EA08048DF81F900AD0514B92
:10423000CDE90B834D480BAA4FF482510DF0B0F934
:1042400000240BE0F36A002B28DA4B4B47480BAAFB
:104250004FF48251CDE90B830DF0A2F99DF81F3088
:10426000CBB908AA05F1200628686968134603C37C
:104270000835B5421A46F7D10F9B002F6CD0C3F317
:10428000080222B96FEA53236FEA43230F9308A968
:104290002046FFF76FFC11B0BDE8F083F36A5B00C6
:1042A000DCD5364B31480BAA4FF48251CDE90B8354
:1042B0000DF076F9AB6933F8022C4DF602739A4291
:1042C0000AD096F82830ABB10DF11F020121284623
:1042D000FFF7C2FE0446C1E72B68294A2348CDE90F
:1042E0000C234FF4C25103230BAA0B930DF058F982
:1042F0002C68B3E796F829302BB10DF11F0101208E
:10430000FFF7ACFDE6E7738D9BB2002BA6D0FFF75D
:1043100027FEDFE70DF11F020021D8E70DF11F0195
:104320000020EDE7174B0C9302230B9382E7164A0C
:10433000164B0E4916F4F87F18BF1346103CCDE912
:1043400003340024124B0293CDE90044234601229A
:104350002046FFF711FF81E723F4FF7323F00103E9
:1043600094E700BF00ED00E02D830108286F0108ED
:10437000588301086F830108908301089E83010818
:10438000BD830108D983010814830108FF82010855
:10439000EC820108024A536943F0100353617047ED
:1043A00000ED00E0EFF30880EFF3098101B57246FC
:1043B000FFF7F4FE01BD00BF044800231021C2181E
:1043C00001333E2B82F80013F9D1704700E100E081
:1043D000102080F3118808484FF40261401880F3E0
:1043E0000988EFF314800221084380F31488BFF397
:1043F0006F8FFFF75FFC000040910020064B9B6829
:10440000834207D1EFF3058323B1044A536843F095
:10441000805353600AF0FCB8A422002000ED00E0B5
:10442000024B034A0348012100F086B80000012036
:104430000000002020710108826E054B203A1A60AE
:10444000044A2021C3E901121846012100F07EB878
:104450000810002000000B15F0B5284F87B000268B
:104460008E4216DA4468002C45D0DBB104F1FF3CE3
:1044700014EA0C0F10D0224BCDE90436032303932A
:10448000204803AA00234FF4C2510CF0FEFF6FF046
:104490001502104607B0F0BD1F2CECD905681CEAC8
:1044A000050FE8D1202C0568D0F808C0D2B210D989
:1044B000B4F1004F0FD8013CB4FA84F4C4F11F04E6
:1044C0006400072A4CEA040407D90F4BCDE90432F3
:1044D000D4E70824F5E73E24F3E725F01F0515434C
:1044E00045F0100544F00104C7F89820C7F89C5027
:1044F0000132C7F8A04001360C30B1E700ED00E012
:1045000001840108186F010824840108044B052266
:10451000C3F89420BFF34F8FBFF36F8F704700BF76
:1045200000ED00E0BFF35F8F024B0022C3F8942040
:10453000704700BF00ED00E010B5034C0123227866
:10454000FFF78AFF207010BD4623002008B5094AF6
:1045500000231278FFF780FF10F1160F03D0064BEF
:104560000022072800DD08BDC3F89800C3F8A0208A
:104570000130F6E74623002000ED00E0144908680A
:10458000082810B521D8FFF7CDFF124C496800224A
:10459000904201F10C0105D10F4B1870FFF7B6FFE7
:1045A000002010BDC4F8982051F80C3C23F01F03E4
:1045B000134343F01003C4F89C3051F8043C43F01B
:1045C0000103C4F8A0300132E2E74FF0FF30E8E722
:1045D0002C71010800ED00E046230020014B18601B
:1045E000704700BF8400002010B5074C2368C21834
:1045F0000648C0F1005101F580318A423ABFC01827
:1046000022604FF0FF3010BD14100020D0C20020F7
:10461000024B1B6803B11847FF207047241000208D
:104620001FB5144B144815490024C3E90044144B2A
:104630000360144B4360144B8360144BC360144BF2
:104640008C60C1E900340822124BCB6003F064FC9B
:1046500070B100F009F9104B0390CDE901432046F9
:104660000E490094234601220CF0B7FF6FF01500AD
:1046700004B010BD181000203810002028100020B1
:1046800081470008FD460008D5470008D5150108F8
:1046900011460008D715010859840108086F010860
:1046A00030B5124C91B02D23054607A88DF81C306B
:1046B00003F0DCFD9DF920302278934200D195B1C2
:1046C000D8B20B4B20701B6803B198472378094A76
:1046D000CDE90423032303930748002303AA4FF4DF
:1046E000C6510CF0D2FE11B030BD00BF47230020F0
:1046F000201000207A840108086F0108F0B50546F3
:10470000407885B070B100F0BBF8194B02930023DC
:104710000390CDE900331749012218460CF05DFFE4
:1047200005B0F0BD144B1B780BB1FFF7B9FF134B6D
:104730001C68002CF4D0083C4FF6FF772388E878FB
:10474000BB4201D083420DD1AB68697901932B7BC9
:1047500000930039666895F91030B5F90E2018BF3E
:104760000121B047A468002CDAD0083CE6E700BF7E
:1047700092840108086F01084A23002018100020C5
:104780001FB50446407860B100F07AF80C4B0293F4
:1047900000230390CDE900330A49012218460CF0AA
:1047A0001CFF094B1B7813B10020FFF779FF074B63
:1047B00062781A70064804B0BDE8104009F0BABA31
:1047C000AD840108086F01084A2300204823002017
:1047D000EC03002030B5457895B00446ADB12846CD
:1047E00000F04EF81A4B029300230390CDE90033FA
:1047F0001849012218460CF0F0FE174B62781A7027
:10480000164809F097FA15B030BD0378012B0AD08D
:10481000042BF2D1124B0E9302230D934FF48651C9
:104820002B460DAA0FE007230AA88DF8283003F0C5
:104830001DFD0C4B08930B9B0993032307934FF427
:10484000C6512B4607AA03480CF01FFED5E700BF50
:10485000C5840108086F01084923002004040020D2
:10486000FB840108DD84010817289ABF024B53F826
:1048700020000248704700BF8C71010823850108A1
:104880000F289ABF024B53F820000248704700BF20
:104890004C71010833850108014809F07FBB00BF56
:1048A00088000020014B18605960704748100020B4
:1048B000024B1A685B6802600B607047481000206A
:1048C00008B50CF09DFE024B1B68C01A08BD00BF66
:1048D00050100020014811F0D0BC00BF1003002090
:1048E00007B50A22A0FB022300210020CDE9000128
:1048F00002480AF0A1F803B05DF804FB10030020A1
:1049000008B50CF07DFE014B186008BD501000206A
:10491000014B1868704700BF501000202DE9F34785
:10492000284C9A46A36807460D4616467BB1264B8F
:1049300000205B6B9847D4F808802068CDF800A071
:1049400033462A463946C04702B0BDE8F08704F135
:104950003C020223D4F80490BFF35B8F52E8001F9F
:10496000012903D142E800300028F7D1BFF35B8F63
:104970009046E9D1636C1A78AA4288BF1D70636CB7
:10498000206C1A78394611F0EAFDA36C03B11E8041
:10499000E36C0BB183F800A00B4BDB6A9847002156
:1049A0006160BFF35B8F58E8003F48E80012002ABF
:1049B000F9D1BFF35B8F484602B0BDE8F0470AF07B
:1049C000E9B800BF541000200073010870B5134E01
:1049D000BFF35B8F06F13C04022354E8002F012A49
:1049E00003D144E800310029F7D1BFF35B8F0CBF3E
:1049F000012000204FF000050ED1094BDB6A9847DB
:104A00007560BFF35B8F54E8003F44E80052002A12
:104A1000F9D1BFF35B8F012070BD00BF541000209F
:104A200000730108064B10B55C68FFF7CFFF30B18B
:104A30002CB100212046BDE810400AF0ABB810BDF3
:104A400054100020F0B5044687B000680E4611F0FF
:104A500000FA2568034670B92A6803921E4A1F4966
:104A60000090CDE9010201220CF005FE6FF0120565
:104A7000284607B0F0BDE38821793343D802D5F842
:104A800008C02F6906D513F4402F03D0DA0748BFBA
:104A900083F440233868012623F480128E40DB071C
:104AA0004CBF3043B0433860DCF8003028469847AC
:104AB00005460028DCD023790493236805901B6801
:104AC0000393074B02930023CDE9003303490122EE
:104AD00018460CF0D0FDCBE7BB870108506F0108EA
:104AE000D487010870B50D461049BFF35B8F01F103
:104AF0003C04012054E8006F002E04D144E8000C6F
:104B0000BCF1000FF6D1BFF35B8F0BD1084E4B60A9
:104B1000D4B2736D214698472846B36A2146984718
:104B2000002070BD6FF00F00FBE700BF54100020A5
:104B3000007301082DE9F043002695B02A4F05AB1C
:104B40008046894614463146102209A8CDE905332E
:104B5000CDE9076611F02BFD3A6B012505AB8DF809
:104B600031500D93002A3CD0224649464046FFF77B
:104B7000B9FF00281ADBE4B2CDE901641B4C3B8F7E
:104B800097F83520009397F8341097F83630646A18
:104B900003952846A0470A22A840A0FB02232946E5
:104BA00009A809F09BFFB04203DB002015B0BDE867
:104BB000F0830F4B1293022311930E48334611AA30
:104BC0004FF482510CF061FCFFF700FF0028ECD19C
:104BD0004FF0FF324FF0FF33294609A809F07EFF5E
:104BE000E3E76FF01500E1E75410002000730108BF
:104BF000F4870108506F0108F0B593B000258DF8D7
:104C0000072003AC10220F4607A82946CDE903442C
:104C1000CDE9055511F0CBFC264B0B9401268DF800
:104C2000296003F13C02BFF35B8F52E8001FA942E9
:104C300003D142E800600028F7D1BFF35B8F35D184
:104C40000DF10702C3E901455A641B4C1A9A9A6494
:104C50001B9ADA641F64FF21636D30469847636BCB
:104C600028469847DDE91823314607A809F036FFA2
:104C7000041E0ADAFFF7AAFE50B94FF0FF324FF0D8
:104C8000FF33314607A809F029FF9DF807400AE0E5
:104C90000A4B109302230F9309482B460FAA4FF497
:104CA00086510CF0F2FB204613B0F0BD6FF00F04FC
:104CB000F9E700BF541000200073010810880108B4
:104CC000506F010810B539B9FFF780FE00280CBFFE
:104CD0006FF01500002010BD0F4BBFF35B8F03F189
:104CE0003C02012052E8004F002C04D142E8000CA5
:104CF000BCF1000FF6D1BFF35B8F09D1074C99606F
:104D0000636DFF2198470020636B98470020E2E71E
:104D10006FF00F00DFE700BF5410002000730108A0
:104D2000F0B5274DBFF35B8F8BB00C46012655E8DD
:104D3000003F002B03D145E80062002AF7D1BFF302
:104D40005B8F39D11F4F2068FB689847E37A03B324
:104D500020686168A5F10C0303C3A06818600022F5
:104D60004FF47A63CDE9072323890293A379019352
:104D700063790093CDE90522CDE90326FD69237906
:104D800094F90A103046A847FFF720FE00200BB028
:104D9000F0BD0A22029222890393CDE90032CDE9C7
:104DA0000836CDE90633CDE90433BD69A3796279CC
:104DB00021793046A847E7E76FF00F00E7E700BF2B
:104DC000901000200073010838B5084611461A46B5
:104DD0000B4BBFF35B8F012453E8005F002D04D120
:104DE00043E8004CBCF1000FF6D1BFF35B8F04D158
:104DF000044BDB6B9847002038BD6FF00F00FBE7DA
:104E0000901000200073010838B50E4BBFF35B8F84
:104E100003F13C02002452E8001F42E80045002D47
:104E2000F9D1BFF35B8F084D084ADA60084A186071
:104E30005A6103F10C002A689047EB6A98472046B4
:104E400038BD00BF5410002000730108254A000837
:104E50001D4900080246052101480CF01CBC00BF9A
:104E6000486B01080246042101480CF014BC00BF45
:104E7000486B01087FB5074B049302230393064850
:104E8000002303AA4FF484510CF0FFFA07B05DF839
:104E900004FB00BF2E880108486F010810B50B4CB9
:104EA000E3691BB9BDE81040FFF7E4BF0020984755
:104EB000074B1B6E03B1984794F8203023B1BDE82F
:104EC0001040024800F044B910BD00BFA4100020FB
:104ED00000730108F0B54FF4B011476887B005467C
:104EE0002848FFF7AFFD20B16FF00404204607B05B
:104EF000F0BD25484FF4B011FFF7A4FD0646002889
:104F0000F2D12249224811F03EF8284600F02AF951
:104F1000044658B11F4B0493022303931E483346A3
:104F200003AA4FF482510CF0B0FADFE7386810F0B2
:104F300090FF68B9194B049302230393164800238A
:104F400003AA4FF482510CF0A0FA6FF01204CDE7DF
:104F5000FB6823B1186810F07CFF0028EAD02846CF
:104F6000FFF752FF051EC1DA0D4B04930223039392
:104F70000948002303AA4FF482510CF086FA2C460C
:104F8000B4E700BF04720108FC7101089D4E0008DF
:104F9000B01000205D880108486F01087B88010877
:104FA00090880108014B93F820007047A41000205E
:104FB00008B503461048042B80F8203011D005D8DE
:104FC000BBB10020FFF746FF00200EE0053B022B9F
:104FD000F7D80020FFF746FFBDE808400120FFF7A3
:104FE00039BF0020FFF736FF0120BDE80840FFF77A
:104FF00039BF0CF022FCE4E7A4100020014BD8617B
:10500000704700BFA410002010B5044C20460CF0DF
:10501000F9FB012384F8203010BD00BFA41000204C
:1050200010B5054C204600F08BF800B910BD0021EA
:105030000A2009F0BFFAF5E7A410002070B592B07D
:105040000D46DDE91661CDE9063104ABCDE9040278
:10505000CDE90852009308AA02230446CDE90A616B
:10506000CDE9022301930CF025FD1248DDB9D6B934
:10507000836811491D686A463346A84700280BDA41
:105080000E4BCDE9103003230F930D4800230FAAD8
:105090004FF4C2510CF0F9F92378842B01D0FFF7BB
:1050A000BFFF12B070BD836803491D68014802ABA1
:1050B0006A46E2E7086C0108F0710108B38801084C
:1050C000486F010870B5164C8CB0204600F040F8CF
:1050D000C023ADF8043001AB0293022303930125F2
:1050E00002AB049305950F480F49836804AA1E6814
:1050F0000023B04700280DDA0C4BCDE90A3003231A
:1051000009930B48002309AA4FF4C2510CF0BDF9D2
:105110000CB070BDFFF784FF84F82050F8E700BFA3
:10512000A4100020086C0108F0710108B388010880
:10513000486F010801480CF07EBB00BFA41000209E
:10514000024B5869C0F34000704700BF000400588C
:10515000034B4FF48022C3F884213220FEF76ABD4E
:1051600000E100E0002208B511463220FEF786FD7E
:10517000054AD2F8903043F48053C2F89030322080
:10518000FEF758FD002008BD00080058074B0849ED
:105190001A6843F2390001FB020018606FF0004307
:1051A000B0FBF3F3C3EBC373C01A70479800002041
:1051B0006D4EC641014B1860704700BF980000203B
:1051C00030B530B10A4D01444FF0FF33814201D177
:1051D000D84330BD10F8012B5340082243F300049C
:1051E000013A2C4092B284EA5303002AF6D1EDE74B
:1051F0002083B8ED044A13680BB100215972436152
:1052000010600CF010BC00BFC810002037B5044679
:1052100001A80CF020FA6CB1174D2A68134673B937
:1052200063682360012323816AB9FFF769FB204685
:10523000FFF7E0FF01A80CF018FA03B030BD9C4264
:10524000F8D05B69EBE7FFF73BFB236818442B685A
:1052500020601A689042EAD35A69596911B95C61B1
:105260006161E7E71168884202D913465269F4E7A1
:105270005C616261DEE700BFC810002070B5FFF717
:1052800047FB1B4C0546FFF73BFB22689AB1461BC8
:105290001146496929B953692360D368117243B92A
:1052A000FEE70B68B34286BF5B191B1A00230B6035
:1052B000EFE710699847002623682BB9206880B96A
:1052C00070BD18699047F7E71D68FFF7F9FA854246
:1052D000F4D223685A692260DA681E72002AF0D17B
:1052E000FEE7437A002BEBD1BDE870400CF09BBB8E
:1052F000C810002037B5144D044601A80CF0ABF9D6
:105300002B6803B124B901A80CF0AFF903B030BD8C
:105310000022A34222720DD1597A5C6941B15A72BE
:1053200024B120462C600CF07EFBECE7FFF7D2FAAC
:105330002C60E8E71A465B69002BE4D09C42F9D167
:1053400063695361DFE700BFC810002007B5030A97
:105350008DF80430064B8DF805001B782BB902221E
:1053600001A940F2BC600CF002FA03B05DF804FB46
:105370004D23002007B5030A8DF80430064B8DF845
:1053800005001B782BB9022201A940F2BE600CF087
:10539000EEF903B05DF804FB4D23002010B50C4B73
:1053A0001B7804469BB94FF4D7600CF015FAC4F390
:1053B000002100F0FE0001434FF4D7600CF0EBF940
:1053C000E1B240F2B960BDE810400CF0E4B910BDA4
:1053D0004D23002013B504460CF06EF904F00703CA
:1053E00014F004048DF8073008BF084B4FF0010299
:1053F0000DF107014FF0840008BF1C700CF097F905
:105400000020FFF7D5FD02B010BD00BF4B230020E8
:1054100010B50446FFF7F8FD2046FFF7EFFDFFF754
:1054200051FE00200CF065FB0CF04BF90CF055F927
:10543000034B0022BDE8104001201A70FFF7B8BDF1
:105440004B230020184B984207B50DD9E1238DF866
:105450000430E9238DF80530022201A998200CF0D0
:1054600066F903B05DF804FB104B984204D9D723CA
:105470008DF80430DB23EDE70D4B984204D9C123AE
:105480008DF80430C523E5E70A4B984204D975230B
:105490008DF804308123DDE7074B9842DCD96B237C
:1054A0008DF804306F23D5E700E9A43580F8A932E0
:1054B0008044E52D000B6B1B40FC541937B5144D8F
:1054C0002B7804461BB9FFF7BDFF01232B7043F671
:1054D000095241F68463B4FBF2F102FB114403EB81
:1054E0008433B3FBF2F303EB81331A0E8DF80420FF
:1054F0001A0C8DF805201A0A8DF8062004220DEBEF
:10550000020186208DF807300CF011F903B030BD90
:105510004B23002007B5064B8DF8070018700122B9
:105520000DF107018A200CF002F903B05DF804FBCD
:105530004D230020014B1878704700BF4D230020F9
:1055400013B5284A0446516810686B4603C3264BBE
:1055500020781B78834201D0FFF7DCFF23781BB152
:10556000012B30D002B010BD6268204BB3FBF2F3C8
:105570001A0C8DF800201A0A8DF801208DF80230DF
:10558000A268237B8DF8033043F60951637BB2FB9D
:10559000F1F08DF8043001FB102241F6846303EB37
:1055A0008233B3FBF1F303EB80331A0C8DF8052043
:1055B0001A0A8DF806208DF80730082269468B20DC
:1055C0000CF0B5F8CEE7237C8DF80030637C8DF8C5
:1055D0000130A37C8DF80230E37C8DF80330042287
:1055E000ECE700BF7C7001084D2300200000093D5E
:1055F0001FB5314A0446D1689068127C01AB03C3E1
:105600001A702E4B20781B78834201D0FFF782FF5F
:1056100023781BB1012B39D004B010BD637AF12B74
:1056200028D14FF6FF70FFF791FE48F20500FFF713
:10563000A1FE022362888DF80520110A22798DF8D7
:10564000062062798DF80720A2798DF80820E2798A
:105650008DF809208DF80B30227AA37A8DF80A2074
:105660008DF804108DF80C30092201A98C200CF063
:105670005EF8D1E7F22BDDD141F60F50FFF766FE61
:1056800041F22100FFF776FE0623D3E7A3898DF8C8
:1056900005301A0A8DF80420094AA37B13708DF88F
:1056A0000630E37B8DF80730237C8DF80830637C6F
:1056B0008DF809300622D8E77C7001084D230020C0
:1056C0004C23002037B504460D46022201A91320C1
:1056D0000CF03BF80A4B1B78012B0DD1094B1B78C2
:1056E000012B09D140F202700CF076F820709DF881
:1056F00005302B7003B030BD9DF804302370F6E701
:105700004D2300204C23002013B50322044601A999
:1057100014200CF01AF8184B1A7822704AB1012A9A
:1057200017D014220021204610F041FF0F232370D0
:105730000DE09DF8043023719DF80530A2605B42B6
:105740005B10A3719DF806305B425B10637102B081
:1057500010BD9DF804305B425B1023739DF905304A
:1057600002339B1063739DF806305B425B10A3739A
:10577000024B1B682361EAE74D230020CC10002078
:10578000034B1B6813B15B6803B11847704700BF38
:10579000D0100020034B1B6813B1DB6803B118471E
:1057A000704700BFD0100020014B01221A707047D3
:1057B0004E23002008B5FFF7F5FB0438C0B20328DC
:1057C00096BF024B0020185C08BD00BFE5880108A9
:1057D00038B50C46002340F201211A46054608461A
:1057E0000CF0B3FAFFF7A6FE0C4B01280C480CBFD7
:1057F00083F8C74083F8C040FFF7FAFE21462846E9
:1058000000220CF09EF9074B074819680CF029F9A3
:10581000BDE838400448FFF7F9BC00BF0411002080
:10582000BC110020F8110020FC11002038B50D46F5
:105830001446FFF743FE2846074D0BF051FF0CF0CE
:1058400016FA4FF47A71284661430CF00AF928469B
:10585000BDE83840FFF7DABCFC11002010B590B16C
:105860000A4B012219461C68A04206D39C68A0423C
:1058700003D201EBC202107910BD0132162A03F1E6
:105880000803F0D1FEE71F20F6E700BF50720108C1
:105890000128094806D1094B80F8C7101970B830A3
:1058A000FFF7A6BE90F8BF30012B04D1034B80F860
:1058B000C0101970F3E7704704110020AC020020FB
:1058C00000234FF6FF7110B51A46044608460CF047
:1058D0003CFA34B1094821460CF0C3F80748FFF7F9
:1058E00095FC074B1B782BB16FF07F40BDE8104053
:1058F0000CF030B9034B18688001F7E7EC1000207A
:1059000050240020E810002000234FF6FF7110B54E
:105910001A46044608460CF018FA34B109482146E4
:105920000CF09FF80748FFF771FC074B1B782BB171
:105930006FF07F40BDE810400CF059B9034B186878
:105940008001F7E7EC10002050240020E810002030
:105950007FB5574D02A80BF07EFE2C78002302A8DD
:105960002B700BF082FE002C61D00CF00AFA04467A
:105970000CF0A7FA03A80BF06EFEFFF7DBFB012883
:1059800008BF287003A80BF070FEE5070BD5494847
:10599000FFF7B0FC0120FFF70BFB474B1B6813B16F
:1059A0001B6803B19847A00711D54448424EFFF742
:1059B000A1FC14F0400F424B3BD01B7813B90120DF
:1059C000FFF7F6FA336813B11B6903B19847210654
:1059D0000AD50120FFF7ECFA374B1B6823B19B690E
:1059E00013B1C4F300209847A2050FD5FFF7DAFAE8
:1059F00004284CD12F48FFF77DFC0120FFF7D8FA8F
:105A00002D4B1B6813B15B6803B19847A3060ED5F5
:105A10002A48FFF76FFC2A4B1B7813B90120FFF7C8
:105A2000C7FA254B1B6813B1DB6803B1984704B074
:105A300070BD1D7895B90120FFF7BAFA294640F6E6
:105A400002100BF0A8FE40F644100BF0C5FE40F02B
:105A50000201C9B240F644100BF09DFE194D1A48E0
:105A6000FF220DF107010CF013FA2846FFF74CFE58
:105A70003368002BABD09E68002EA8D095F90D306E
:105A800095F90C209DF807100F48B0479FE7FFF7E6
:105A900089FA0528BAD10948FFF72CFC0120FFF745
:105AA00087FA054B1B68002BB0D0DB68ACE700BF62
:105AB0004E230020FC110020D0100020EC1000200C
:105AC00050240020D410002051230020F0B5BDF850
