:020000040800F2
:1000000020920020E9530008DB420108BD5300089C
:10001000BD530008BD530008BD5300080000000098
:10002000000000000000000000000000814D0008FA
:10003000BD530008000000002D4D0008A9E900088C
:10004000314E0008314E0008314E0008314E000894
:10005000314E0008314E0008314E0008314E000884
:10006000314E0008314E0008314E0008314E000874
:10007000314E0008314E0008314E0008314E000864
:10008000314E0008314E0008314E0008314E000854
:10009000314E0008314E0008314E0008314E000844
:1000A000314E0008314E0008314E0008314E000834
:1000B000314E0008314E0008314E0008314E000824
:1000C000314E0008314E0008314E0008314E000814
:1000D000314E0008314E0008314E0008314E000804
:1000E000314E0008314E0008314E0008314E0008F4
:1000F000314E0008314E0008314E0008314E0008E4
:10010000314E0008314E0008314E0008314E0008D3
:10011000314E0008314E0008314E0008314E0008C3
:10012000314E0008314E0008314E0008314E0008B3
:08013000314E0008314E0008B9
:08013800FFFFFFFFFFFFFFFFC7
:1001400001F0FF01102A2BDB10F0070F08D010F888
:10015000013B013A8B422DD010F0070F42B3F6D18C
:10016000F0B441EA012141EA014122F007047FF0A5
:1001700000070023F0E80256083C85EA010586EAFC
:10018000010685FA47F5A3FA87F586FA47F6A5FA38
:1001900087F68EB9EED1F0BC01F0FF0102F0070244
:1001A00032B110F8013B013A83EA010313B1F8D1EF
:1001B0000020704701387047002D06BF35460338D0
:1001C000073815F0010F07D1013015F4807F02BF09
:1001D000013015F4C03F0130F0BC0138704700BF5A
:1001E00081F0004102E000BF83F0004330B54FEAE8
:1001F00041044FEA430594EA050F08BF90EA020F55
:100200001FBF54EA000C55EA020C7FEA645C7FEAE7
:10021000655C00F0E2804FEA5454D4EB5555B8BF0A
:100220006D420CDD2C4480EA020281EA030382EA7B
:10023000000083EA010180EA020281EA0303362D0D
:1002400088BF30BD11F0004F4FEA01314FF4801CE0
:100250004CEA113102D0404261EB410113F0004FF2
:100260004FEA03334CEA133302D0524263EB4303A9
:1002700094EA050F00F0A780A4F10104D5F1200E47
:100280000DDB02FA0EFC22FA05F2801841F10001A2
:1002900003FA0EF2801843FA05F359410EE0A5F176
:1002A00020050EF1200E012A03FA0EFC28BF4CF0A7
:1002B000020C43FA05F3C01851EBE37101F000455D
:1002C00007D54FF0000EDCF1000C7EEB00006EEB6A
:1002D0000101B1F5801F1BD3B1F5001F0CD34908F4
:1002E0005FEA30004FEA3C0C04F101044FEA44524B
:1002F00012F5800F80F09A80BCF1004F08BF5FEAD2
:10030000500C50F1000041EB045141EA050130BDB1
:100310005FEA4C0C404141EB0101013C28BFB1F5C3
:10032000801FE9D291F0000F04BF01460020B1FA0E
:1003300081F308BF2033A3F10B03B3F120020CDAE1
:100340000C3208DD02F1140CC2F10C0201FA0CF0BF
:1003500021FA02F10CE002F11402D8BFC2F1200C24
:1003600001FA02F120FA0CFCDCBF41EA0C019040DA
:10037000E41AA2BF01EB0451294330BD6FEA040423
:100380001F3C1CDA0C340EDC04F11404C4F120020E
:1003900020FA04F001FA02F340EA030021FA04F320
:1003A00045EA030130BDC4F10C04C4F1200220FA77
:1003B00002F001FA04F340EA0300294630BD21FAB5
:1003C00004F0294630BD94F0000F83F4801306BF7B
:1003D00081F480110134013D4EE77FEA645C18BF6F
:1003E0007FEA655C29D094EA050F08BF90EA020F06
:1003F00005D054EA000C04BF1946104630BD91EAFE
:10040000030F1EBF0021002030BD5FEA545C05D100
:100410004000494128BF41F0004130BD14F580043F
:100420003CBF01F5801130BD01F0004545F0FE41B3
:1004300041F470014FF0000030BD7FEA645C1ABFE8
:10044000194610467FEA655C1CBF0B46024650EA1F
:10045000013406BF52EA033591EA030F41F400214B
:1004600030BD00BF90F0000F04BF0021704730B5D1
:100470004FF4806404F132044FF000054FF00001A6
:1004800050E700BF90F0000F04BF0021704730B567
:100490004FF4806404F1320410F0004548BF40423C
:1004A0004FF000013EE700BF42004FEAE2014FEA91
:1004B00031014FEA02701FBF12F07F4393F07F4F6C
:1004C00081F06051704732F07F4208BF704793F06F
:1004D0007F4F04BF41F40021704730B54FF4607482
:1004E00001F0004521F000411CE700BF50EA010285
:1004F00008BF704730B54FF000050AE050EA01022E
:1005000008BF704730B511F0004502D5404261EB9D
:1005100041014FF4806404F132045FEA915C3FF4DE
:10052000D8AE4FF003025FEADC0C18BF03325FEA7B
:10053000DC0C18BF033202EBDC02C2F1200300FA2C
:1005400003FC20FA02F001FA03FE40EA0E0021FA51
:1005500002F11444BDE600BF70B54FF0FF0C4CF43F
:10056000E06C1CEA11541DBF1CEA135594EA0C0FF1
:1005700095EA0C0F00F0DEF82C4481EA030621EA2C
:100580004C5123EA4C5350EA013518BF52EA033567
:1005900041F4801143F4801338D0A0FB02CE4FF019
:1005A0000005E1FB02E506F00042E0FB03E54FF049
:1005B0000006E1FB03569CF0000F18BF4EF0010E41
:1005C000A4F1FF04B6F5007F64F5407404D25FEA3D
:1005D0004E0E6D4146EB060642EAC62141EA5551F0
:1005E0004FEAC52040EA5E504FEACE2EB4F1FD0C32
:1005F00088BFBCF5E06F1ED8BEF1004F08BF5FEAB0
:10060000500E50F1000041EB045170BD06F0004661
:1006100046EA010140EA020081EA0301B4EB5C040E
:10062000C2BFD4EB0C0541EA045170BD41F4801106
:100630004FF0000E013C00F3AB8014F1360FDEBF2B
:10064000002001F0004170BDC4F10004203C35DA07
:100650000C341BDC04F11404C4F1200500FA05F38A
:1006600020FA04F001FA05F240EA020001F000422B
:1006700021F0004110EBD37021FA04F642EB0601A1
:100680005EEA430E08BF20EAD37070BDC4F10C04CB
:10069000C4F1200500FA04F320FA05F001FA04F28F
:1006A00040EA020001F0004110EBD37041F100017B
:1006B0005EEA430E08BF20EAD37070BDC4F1200586
:1006C00000FA05F24EEA020E20FA04F301FA05F2EE
:1006D00043EA020321FA04F001F0004121FA04F296
:1006E00020EA020000EBD3705EEA430E08BF20EA66
:1006F000D37070BD94F0000F0FD101F000464000A0
:1007000041EB010111F4801F08BF013CF7D041EA21
:10071000060195F0000F18BF704703F00046520025
:1007200043EB030313F4801F08BF013DF7D043EAF6
:100730000603704794EA0C0F0CEA135518BF95EAAC
:100740000C0F0CD050EA410618BF52EA4306D1D133
:1007500081EA030101F000414FF0000070BD50EA52
:10076000410606BF1046194652EA430619D094EADC
:100770000C0F02D150EA013613D195EA0C0F05D1C6
:1007800052EA03361CBF104619460AD181EA03011A
:1007900001F0004141F0FE4141F470014FF00000D2
:1007A00070BD41F0FE4141F4780170BD70B54FF06D
:1007B000FF0C4CF4E06C1CEA11541DBF1CEA1355ED
:1007C00094EA0C0F95EA0C0F00F0A7F8A4EB0504CF
:1007D00081EA030E52EA03354FEA013100F08880C6
:1007E0004FEA03334FF0805545EA131343EA12638F
:1007F0004FEA022245EA111545EA10654FEA002644
:100800000EF000419D4208BF964244F1FD0404F5FC
:10081000407402D25B084FEA3202B61A65EB030558
:100820005B084FEA32024FF480104FF4002CB6EB15
:10083000020E75EB030E22BFB61A754640EA0C0095
:100840005B084FEA3202B6EB020E75EB030E22BFD5
:10085000B61A754640EA5C005B084FEA3202B6EB16
:10086000020E75EB030E22BFB61A754640EA9C00D5
:100870005B084FEA3202B6EB020E75EB030E22BFA5
:10088000B61A754640EADC0055EA060E18D04FEA63
:10089000051545EA16754FEA06164FEAC30343EA03
:1008A00052734FEAC2025FEA1C1CC0D111F4801FD0
:1008B0000BD141EA00014FF000004FF0004CB6E7C9
:1008C00011F4801F04BF01430020B4F1FD0C88BF68
:1008D000BCF5E06F3FF6AFAEB5EB030C04BFB6EB73
:1008E000020C5FEA500C50F1000041EB045170BD66
:1008F0000EF0004E4EEA113114EB5C04C2BFD4EB93
:100900000C0541EA045170BD41F480114FF0000E16
:10091000013C90E645EA060E8DE60CEA135594EA92
:100920000C0F08BF95EA0C0F3FF43BAF94EA0C0F95
:100930000AD150EA01347FF434AF95EA0C0F7FF40A
:1009400025AF104619462CE795EA0C0F06D152EA5E
:1009500003353FF4FDAE1046194622E750EA410642
:1009600018BF52EA43067FF4C5AE50EA41047FF453
:100970000DAF52EA43057FF4EBAE12E74FEA4102B6
:1009800012F5001215D211D56FF47873B3EB6252E1
:1009900012D94FEAC12343F0004343EA505311F008
:1009A000004F23FA02F018BF404270474FF000009A
:1009B000704750EA013005D111F0004008BF6FF0D8
:1009C000004070474FF00000704700BF4FEA4102FF
:1009D000B2F1E04324BFB3F5001CDCF1FE5C0DD99D
:1009E00001F0004C4FEAC0024CEA5070B2F1004FE7
:1009F00040EB830008BF20F00100704711F0804FEA
:100A000021D113F13872BCBF01F00040704741F4AE
:100A100080114FEA5252C2F11802C2F1200C10FAB2
:100A20000CF320FA02F018BF40F001004FEAC12396
:100A30004FEAD32303FA0CFC40EA0C0023FA02F33A
:100A40004FEA4303CCE77FEA625307D150EA013310
:100A50001EBF4FF0FE4040F44000704701F00040E0
:100A600040F0FE4040F40000704700BF80F00040BE
:100A700002E000BF81F0004142001FBF5FEA410376
:100A800092EA030F7FEA226C7FEA236C6AD04FEA76
:100A90001262D2EB1363C1BFD218414048404140BB
:100AA000B8BF5B42192B88BF704710F0004F40F46D
:100AB000000020F07F4018BF404211F0004F41F489
:100AC000000121F07F4118BF494292EA030F3FD055
:100AD000A2F1010241FA03FC10EB0C00C3F1200368
:100AE00001FA03F100F0004302D5494260EB4000F7
:100AF000B0F5000F13D3B0F1807F06D340084FEA62
:100B0000310102F10102FE2A51D2B1F1004F40EB56
:100B1000C25008BF20F0010040EA030070474900BE
:100B200040EB0000013A28BFB0F5000FEDD2B0FA5B
:100B300080FCACF1080CB2EB0C0200FA0CF0AABF7E
:100B400000EBC25052421843BCBFD040184370471C
:100B500092F0000F81F4000106BF80F40000013222
:100B6000013BB5E74FEA41037FEA226C18BF7FEAF9
:100B7000236C21D092EA030F04D092F0000F08BF3B
:100B80000846704790EA010F1CBF0020704712F022
:100B90007F4F04D1400028BF40F00040704712F161
:100BA00000723CBF00F50000704700F0004343F0C6
:100BB000FE4040F4000070477FEA226216BF0846FC
:100BC0007FEA23630146420206BF5FEA412390EABF
:100BD000010F40F4800070474FF0000304E000BFB5
:100BE00010F0004348BF40425FEA000C08BF704766
:100BF00043F0964301464FF000001CE050EA01022A
:100C000008BF70474FF000030AE000BF50EA01023E
:100C100008BF704711F0004302D5404261EB41012B
:100C20005FEA010C02BF84460146002043F0B64350
:100C300008BFA3F18053A3F50003BCFA8CF2083A75
:100C4000A3EBC25310DB01FA02FC634400FA02FC7E
:100C5000C2F12002BCF1004F20FA02F243EB020085
:100C600008BF20F00100704702F1200201FA02FCE7
:100C7000C2F1200250EA4C0021FA02F243EB0200DA
:100C800008BF20EADC7070474FF0FF0C1CEAD0521E
:100C90001EBF1CEAD15392EA0C0F93EA0C0F6FD0DF
:100CA0001A4480EA010C400218BF5FEA41211ED0BD
:100CB0004FF0006343EA501043EA5111A0FB0131A9
:100CC0000CF00040B1F5000F3EBF490041EAD3717E
:100CD0005B0040EA010062F17F02FD2A1DD8B3F1FA
:100CE000004F40EBC25008BF20F00100704790F069
:100CF000000F0CF0004C08BF49024CEA502040EABB
:100D000051207F3AC2BFD2F1FF0340EAC250704780
:100D100040F400004FF00003013A5DDC12F1190FBE
:100D2000DCBF00F000407047C2F10002410021FA30
:100D300002F1C2F1200200FA02FC5FEA310040F148
:100D4000000053EA4C0308BF20EADC70704792F0C1
:100D5000000F00F0004C02BF400010F4000F013AF9
:100D6000F9D040EA0C0093F0000F01F0004C02BFF4
:100D7000490011F4000F013BF9D041EA0C018FE763
:100D80000CEAD15392EA0C0F18BF93EA0C0F0AD069
:100D900030F0004C18BF31F0004CD8D180EA01008F
:100DA00000F00040704790F0000F17BF90F0004F28
:100DB000084691F0000F91F0004F14D092EA0C0F0A
:100DC00001D142020FD193EA0C0F03D14B0218BF9D
:100DD000084608D180EA010000F0004040F0FE40E3
:100DE00040F40000704740F0FE4040F4400070477F
:100DF0004FF0FF0C1CEAD0521EBF1CEAD15392EAFE
:100E00000C0F93EA0C0F69D0A2EB030280EA010CED
:100E100049024FEA402037D04FF0805343EA111186
:100E200043EA10130CF000408B4238BF5B0042F1E4
:100E30007D024FF4000C8B4224BF5B1A40EA0C0089
:100E4000B3EB510F24BFA3EB510340EA5C00B3EBBB
:100E5000910F24BFA3EB910340EA9C00B3EBD10FA9
:100E600024BFA3EBD10340EADC001B0118BF5FEAFB
:100E70001C1CE0D1FD2A3FF650AF8B4240EBC25024
:100E800008BF20F0010070470CF0004C4CEA5020E5
:100E90007F32C2BFD2F1FF0340EAC250704740F434
:100EA00000004FF00003013A37E792F0000F00F026
:100EB000004C02BF400010F4000F013AF9D040EAA4
:100EC0000C0093F0000F01F0004C02BF490011F438
:100ED000000F013BF9D041EA0C0195E70CEAD15330
:100EE00092EA0C0F08D142027FF47DAF93EA0C0F17
:100EF0007FF470AF084676E793EA0C0F04D14B02FB
:100F00003FF44CAF08466EE730F0004C18BF31F0AC
:100F1000004CCAD130F000427FF45CAF31F00043A6
:100F20007FF43CAF5FE700BF7BB972B90029BEBF59
:100F300000204FF0004106E008BF00281CBF6FF002
:100F400000414FF0FF3000F057B8ADF1080C6DE9EB
:100F500004CE002909DB002B1ADB00F0D7F8DDF8FE
:100F600004E0DDE9022304B07047404261EB410137
:100F7000002B1BDB00F0CAF8DDF804E0DDE90223FA
:100F800004B0404261EB4101524263EB43037047BE
:100F9000524263EB430300F0B9F8DDF804E0DDE909
:100FA000022304B0404261EB41017047524263EBBF
:100FB000430300F0ABF8DDF804E0DDE9022304B000
:100FC000524263EB4303704753B94AB9002908BF43
:100FD00000281CBF4FF0FF314FF0FF3000F00CB87D
:100FE000ADF1080C6DE904CE00F090F8DDF804E0F6
:100FF000DDE9022304B07047704700BF4FF0FF3CAB
:1010000006E000BF4FF0010C02E000BF4FF0010C02
:101010004DF804CD4FEA410C7FEA6C5C4FEA430C7B
:1010200018BF7FEA6C5C1BD001B050EA410C0CBFCA
:1010300052EA430C91EA030F02BF90EA020F00202C
:10104000704710F1000F91EA030F58BF994208BF93
:1010500090422CBFD8176FEAE37040F00100704750
:101060004FEA410C7FEA6C5C02D150EA013C07D1A7
:101070004FEA430C7FEA6C5CD6D152EA033CD3D0F2
:101080005DF8040B704700BF8446104662468C46EC
:101090001946634600E000BF01B5FFF7B7FF00281F
:1010A00048BF10F1000F01BD4DF808EDFFF7F4FF48
:1010B0000CBF012000205DF808FB00BF4DF808EDD3
:1010C000FFF7EAFF34BF012000205DF808FB00BFF6
:1010D0004DF808EDFFF7E0FF94BF012000205DF818
:1010E00008FB00BF4DF808EDFFF7CEFF94BF0120CD
:1010F00000205DF808FB00BF4DF808EDFFF7C4FFC6
:1011000034BF012000205DF808FB00BF2DE9F04F3F
:1011100007468C460846099E15463C461946002B54
:1011200040F0C6808242B2FA82F746D94FB1C7F189
:10113000200E24FA0EFE00FA07F3BD404EEA030C1F
:10114000BC404FEA15481FFA85FEBCFBF8F9220C9B
:1011500008FB19C309FB0EFA42EA03439A4528D952
:10116000EB1809F1FF3004D29A4502D9A9F1020027
:101170002B44A3EB0A03A4B2B3FBF8F208FB12332F
:1011800002FB0EFE44EA0344A64514D92C1902F1D1
:10119000FF3303D2A64501D9931E2C44A4EB0E04C1
:1011A00043EA00401EB1FC40002334607360BDE898
:1011B000F08F4846DDE71346F0E702B9FFDE87BB54
:1011C000831A01214FEA154EAAB2B3FBFEFC200C94
:1011D0000EFB1C330CFB02F840EA0343984563D92D
:1011E000EB180CF1FF3004D2984502D9ACF10200A3
:1011F0002B44A3EB0803A4B2B3FBFEFC0EFB1C3391
:101200000CFB02F244EA0344A2424FD92C190CF120
:10121000FF3304D2A24202D9ACF102032C44A41A37
:10122000BEE7C7F1200C20FA0CF800FA07F324FA05
:101230000CFCBD404CEA03024FEA154EABB2B8FBC2
:10124000FEFC110C0EFB1C800CFB03F941EA004074
:10125000814504FA07F423D928180CF1FF3104D290
:10126000814502D9ACF102012844A0EB090092B2F9
:10127000B0FBFEFC0EFB1C000CFB03F842EA004333
:1012800098450FD9EB180CF1FF3204D2984502D9DA
:10129000ACF102022B44A3EB080342EA014191E7BF
:1012A0006146E2E76246F6E76046A2E76346B6E7D4
:1012B000834205D90EB1C6E900700021084676E7E1
:1012C000B3FA83F181B9834201D3BA420AD8BC1A76
:1012D00060EB030301209C46002E68D0C6E9004C59
:1012E000002164E70846F7E7C1F1200C8B4022FAA1
:1012F0000CF41C4302FA01F500FA01F327FA0CF290
:1013000020FA0CFB4FEA14491343BBFBF9F81FFA10
:1013100084FE09FB18BB1A0C08FB0EFA42EA0B42CA
:10132000924507FA01F73ED9A21808F1FF3004D21E
:10133000924502D9A8F102002244A2EB0A029BB214
:10134000B2FBF9F809FB182208FB0EFE43EA024241
:1013500096452AD9A21808F1FF3304D2964502D93E
:10136000A8F10203224443EA0040A0FB0593A2EB4C
:101370000E029A42CE46984602D306D14F4504D279
:10138000B9EB050E63EB0408013886B1B7EB0E0329
:1013900062EB080707FA0CFCCB404CEA0303CF4092
:1013A000C6E900379CE74046C7E74346DBE73146DE
:1013B000FDE610F8012B11F8013B012A28BF9A42E3
:1013C000F7D0D01A7047034613F8012B002AFBD13F
:1013D000181A0138704700002DE9F04F89B000AFAE
:1013E0000023DFF824B238600C467B60D7E9003276
:1013F000934268DC1846FFF735F880468946284650
:10140000FFF752F842464B46FFF7D0F9FFF7DEFAF6
:10141000834620603046FFF747F842464B46FFF7C9
:10142000C5F9FFF7D3FA60605046FFF73DF8424632
:101430004B46FFF7BBF9FFF7C9FAE84688B06D469F
:10144000724BA0602B6100215846FFF715FBFFF798
:101450002BF82E464FF00509C5E9060146F80C9F0A
:101460006B48324600234FF4235112F0B2FE694B11
:101470002B61C5466068AD460021FFF7FDFAFFF716
:1014800013F8C5F80C90C5E90601614832460023FF
:101490004FF4235112F09DFE5F4B2B61C546A068AF
:1014A000AD460021FFF7E8FAFEF7FEFFC5F80C9005
:1014B000C5E906015648002332464FF4235112F085
:1014C00088FEC54630E00021C8200FF0B5FADBF8F1
:1014D000000083683921DB6898478046C8200021D6
:1014E0000FF0AAFAB8F1000F1AD1DBF8000007F1EB
:1014F00018020E2112F0A3F9804688B9DBF800002B
:1015000007F108020D2112F09AF9804640B9DBF884
:10151000000007F11002102112F091F9804638B155
:101520003E4841460FF040FF2437BD46BDE8F08FEE
:101530007869FEF7A7FF32A3D3E90023FFF736F956
:10154000804638698946FEF79DFF02460B464046B5
:101550004946FEF74BFE804628468946FEF7A4FF23
:1015600002460B4640464946FEF740FEFFF72EFA7C
:101570000546F868FEF786FF21A3D3E90023FFF7AD
:1015800015F98046B8688946FEF77CFF02460B468F
:1015900040464946FEF72AFE804630468946FEF719
:1015A00083FF02460B4640464946FEF71FFEFFF703
:1015B0000DFA0646F869FEF765FF11A3D3E900238B
:1015C000FFF7F4F88046B8698946FEF75BFF0246EC
:1015D0000B4640464946FEF709FE8046504689467E
:1015E000FEF762FF0B46024649464046FEF7FEFD07
:1015F000FFF7ECF97B68013382467B60F6E600BFBB
:101600000000000080842E41680D0020F9AB010825
:10161000909F01080AAC01081EAC0108E5AB010867
:101620002DE9F843C1F30A58A8F2FF36132E0246FB
:101630000B4607460C46054633DC002E14DA34A36D
:10164000D3E90023FEF7D2FD00220023FFF754FD6B
:1016500038B1002C58DA24F000431D4301D02E4C41
:10166000002523462F4625E02C4A42FA06F801EAD7
:10167000080202431ED026A3D3E90023FEF7B6FDDD
:1016800000220023FFF738FD0028EAD0002CBEBF5F
:101690004FF4801343FA06F6A41924EA080400253F
:1016A000DFE7332E0ADDB6F5806F03D1FEF79EFD2E
:1016B00007460B4638461946BDE8F883A8F213489A
:1016C0004FF0FF3222FA08F818EA000FF2D010A308
:1016D000D3E90023FEF78AFD00220023FFF70CFD6B
:1016E0000028BED0002C02DA142E03D1013425EAE2
:1016F0000805B6E70123C6F1340603FA06F63544B9
:10170000BD4238BFE418F2E700252C46A9E700BF28
:101710009C7500883CE4377E0000F0BFFFFF0F009F
:1017200030B58BB017480EF01DFA044668B9164B59
:101730000893022307934FF48251034607AA1348E4
:1017400012F047FD20460BB030BD17F00DFB2368AB
:101750000393054650B90E4B0C490090CDE90103A7
:101760000122034612F06EF82C46EBE7094B029378
:101770000023CDE9003305490322184612F062F830
:10178000E0E700BF42AB010849AB0108909F0108A8
:101790006AAB0108BEAB010870B598B0304B12932C
:1017A00011AA02230E4604464FF486512D48119388
:1017B00012F057F801F0DCFA0EAD03462A4A009603
:1017C0002821284612F004F9284A264903950023C7
:1017D000CDE90132184600930322CDE90533079382
:1017E00012F042F83322294605A80AF0C3F900286E
:1017F0000ADA1F4B0BAACDE90C304FF4C251032378
:1018000018480B9312F02DF82046FFF7DCFD214617
:10181000024605A80AF036FA00284FF0030313DA4F
:10182000144A0B93CDE90C204FF4C2510D480BAA7A
:1018300012F017F841F2883000210FF0FDF805A8EA
:101840000AF0FCF918B070BD0B4A0B93CDE90C20DF
:101850004FF4C65103480BAA12F003F8EFE700BF9C
:101860003FAC0108A89F01084EAC010859AC010823
:1018700078AC010895AC0108ADAC0108F0B589B0B1
:1018800001460546002606A8CDE906660AF01CFAC0
:10189000044670B1204B21490096CDE90350CDE9B3
:1018A000016301223346304611F0DEFF204609B0C5
:1018B000F0BD1B4B0395CDE9010318490090034689
:1018C0000322184D184F11F0CFFF6E1C154906A8C2
:1018D0000AF06CFA0446D8B96B78CBB12B78012B9F
:1018E0000AD1124B0D490396CDE90103009003463E
:1018F000032211F0B9FFE9E72B6908490090CDE90F
:101900000363CDE901070346032211F0ADFFDDE7D4
:1019100006A80AF0CDFAC9E7D0AC0108A89F0108D3
:10192000EAAC01086C0D002008AD0108FEAC01080E
:1019300030B5364C3648002389B0A360354B23615F
:1019400012F067FC00B3344B06930223059305AAFB
:101950004FF482513148324D11F083FF2B48E5603E
:101960000AF0CCFA0223002844D12E4A2B48CDE9B4
:1019700005324FF4865105AA11F073FF284609B0CD
:10198000BDE83040FFF77ABF21486A46012112F0D6
:101990008AFC08B1244BD7E7244B2048069305AABC
:1019A000009B07934FF4C6510325059511F059FF8D
:1019B000174801AA022112F076FC08B11C4BC3E7BC
:1019C0001C4B069305AA019B144807934FF4C6517C
:1019D000059511F046FFDDE90032A3FB02321B0D35
:1019E00043EA0233144A0595CDE906234FF4C65164
:1019F00005AAAFE7114A0948CDE905324FF48251F3
:101A000005AA11F02EFF09B030BD00BF580000201C
:101A10001FAD0108800D002022AD0108A89F01081C
:101A20009CAD0108A1AD010836AD010851AD01081A
:101A300060AD01087AAD010889AD0108AFAD0108BC
:101A400010B586B0164B0493022403941548002366
:101A500003AA4FF4865112F0BCFB13480EF082F833
:101A6000124A0346106030B9114ACDE903424FF4DF
:101A7000865103AA0CE0836814211B68984703462B
:101A800058B10C4BCDE90343002303AA4FF4825114
:101A9000044812F09EFB06B010BD074AE5E700BF00
:101AA000D0AD0108B89F0108E6AD0108B00F0020D5
:101AB000ECAD01080BAE01081EAE01082DE9F04F98
:101AC0008BB000AFDFF82082796004464FF0000948
:101AD0007B684B4562DCA31E04F10E0133F8022F34
:101AE000786892FBF0F299421A80F7D17F4B3B6203
:101AF0000223E946FB617E4807F11C0200234FF4F4
:101B0000865112F066FB88B06D4622887949638859
:101B1000AB612E464FF00408C5E9041246F80C8F5D
:101B20007348324600234FF4035112F052FB7249BE
:101B3000A288E388AB61CD46C5E90412AD46C5F87D
:101B40000C806B48324600234FF4035112F041FBE6
:101B50006A4922896389AB61CD46C5E90412AD4665
:101B6000C5F80C806248324600234FF4035112F04E
:101B700030FB6349A289E389AB61CD46C5E9041214
:101B8000AD46C5F80C805A48002332464FF4035145
:101B900012F01FFB2C37BD46BDE8F08F00264FF03A
:101BA0000103022E3B7300F09780032E00F0968015
:101BB000012E14BFC123D1237B73832307F10C01B2
:101BC000D8F80000BB730322482311F061FE0A20FD
:101BD00011F059FE0025D8F800003D73482301227A
:101BE00007F10C0111F054FE0A2011F04CFE07F130
:101BF00008033B614FF0030A0223D8F800007B6121
:101C000087F818A083680122D3F808B007F1100103
:101C10004823D847142011F036FE3B895BBA9BB2AB
:101C200042F21072934288BF2B4624F816300136D8
:101C3000042EB4D10A2011F026FEA61D4FF0010398
:101C4000022D3B734CD0032D4CD0012D14BFC1236A
:101C5000D1237B73832307F10C01D8F80000BB73F9
:101C60000322492311F014FE0A2011F00CFE002378
:101C7000D8F800003B730122492307F10C0111F051
:101C800007FE0A2011F0FFFD07F108033B61022364
:101C9000D8F800007B6187F818A083680122D3F888
:101CA00008B007F110014923D847142011F0EBFDCB
:101CB0003B895BBA9BB242F210720135934288BFF6
:101CC0000023042D26F8023FB8D14FF47A7011F0AA
:101CD000DAFD09F10109FBE6E1236DE7F1236BE78A
:101CE000E123B6E7F123B4E7B00F002031AE0108DD
:101CF000B89F01083EAE010854AE01086AAE010863
:101D000080AE010890B583B000AF0446F91DB81D40
:101D100012F03BFB88B06A46FB79074993610423C4
:101D2000C2E90414054842F80C3F4FF4035111F086
:101D3000BCFD0C37BD4690BDA2AE0108F09F010866
:101D4000F0B58BB06E4604AF8AB004ACCDE90A1290
:101D5000DFF858C00C93224606237D6BCDE908C0FE
:101D60004FF4435142F80C3F114811F09EFDB54627
:101D7000C5B1104B0E483B6107F10C0202234FF432
:101D80008651FB6011F091FD0B4B039300200B4B30
:101D90000293019097F83030009305492B460322B7
:101DA00011F086FD1C37BD46F0BD00BFC6AE010870
:101DB000F09F010803AF010824AF010880BA0108B1
:101DC00070B5C8B0314B32481A93022419AA4FF4A7
:101DD0008651199411F069FD2E4B2D482E4E2F4D32
:101DE00019AA4FF48651CDE9194311F05EFD42F274
:101DF000107011F09AFD00230F931093119312A805
:101E00000521FFF75BFE0FA90120FFF7E5FA00F0BF
:101E100063FF04461198FEF747FBCDE90C011098CB
:101E2000FEF742FBCDE90A010F98FEF73DFBBDF836
:101E300056300793BDF854300693BDF852300593E1
:101E4000BDF850300493BDF84E300393BDF84C30CC
:101E50000293BDF84A300193BDF848300093CDE9B4
:101E6000080123463246C82116A811F0B1FD2946C3
:101E700016A8FFF791FCC82216A9094817F03FFBE6
:101E800047F2305011F051FDB9E700BF2EAF010805
:101E9000F09F01084DAF010859AF010887AF010855
:101EA0005E23002070B5F8B0374B4A933748384E60
:101EB000384D022349AA4FF48651499311F0F5FC9D
:101EC0000023119312931393022317AA2F481793F9
:101ED0004FF48651189611F0E8FC2846012111F0C4
:101EE000F6FC00F0DBFA00F047FB1AA8072100F02F
:101EF000B1FC00F0FFFB00F087FA2846002111F04A
:101F0000E6FC11A90120FFF767FA00F0E5FE0446A0
:101F10001398FEF7C9FACDE90E011298FEF7C4FA3C
:101F2000CDE90C011198FEF7BFFACDE90A014498FA
:101F3000FEF7BAFACDE908014398FEF7B5FACDE904
:101F400006014298FEF7B0FACDE904013E98FEF78B
:101F5000ABFACDE902014098FEF7A6FA2346CDE997
:101F600000010D4AC82146A811F032FDC82246A939
:101F70000A4817F0C4FA46A80949FFF70DFC0948BA
:101F800011F0D3FCA0E700BF8BAF0108F09F010860
:101F9000A9AF010888A10108BFAF010826240020CD
:101FA000F3AF0108C0D401002DE9F0419CB09B4B78
:101FB0009B481A9319AA02234FF48651199311F0E2
:101FC00074FC984A10685168974A05AB03C31068BF
:101FD000516803C3954B0CAA03F110061546186807
:101FE0005968144603C40833B3422246F7D1002689
:101FF0004FF6FF730996ADF824308D4B0B960A937C
:102000008C4C20460DF0AEFD034658B98A4A8449EF
:102010000394CDE901020090012211F049FC1CB0AB
:10202000BDE8F081854B7E481A9319AA4FF486517A
:102030000224199411F039FC03F0DCFD00280BDABE
:102040007F4B19AACDE91A304FF4C25103237448CB
:10205000199311F02AFCE2E77A4B7148DFF8E88126
:102060007A4F19AA4FF48651CDE9194311F01DFC9E
:1020700009A803F0A9FD764803F0B6FD05AB1A9355
:1020800007ABCDE917551693654D724B64488DF833
:102090006C6013AA4FF48651CDE9134311F005FC8F
:1020A00016A803F027FC041E1DDA6B48012111F06D
:1020B0000EFC6A4B13AACDE914344FF4C25103232A
:1020C0002846139311F0F1FB002142F210700EF03C
:1020D000B3FC6148002111F0FAFB002142F21070BC
:1020E0000EF0AAFCDCE7022003F0D4FC041E09DA9F
:1020F0005B4B149313AA02234FF482512846139387
:1021000011F0D3FB13AA4FF4865128460226CDF8CE
:102110005080139611F0C9FB0121384611F0D7FB0E
:10212000002CBDDB4F4B504D3D48CDE913634F4E66
:1021300013AA4FF4865111F0B8FB2846FFF743F974
:102140000123C2B22946184603F0C4FC10F10B0F5C
:1021500024D14FF4FA6011F0E8FB4FF4FA6011F06B
:10216000E4FB42F2107011F0E0FB3046FFF72BF970
:102170000123C2B23146022003F0ACFC10F10B0F78
:102180002CD14FF4FA6011F0D0FB4FF4FA6011F04B
:10219000CCFB42F2107011F0C8FBCEE70028DCDB6C
:1021A000DFD1334B294F14931D48022313AA4FF458
:1021B00086511424139311F078FB0121384611F055
:1021C00086FB322011F0B1FB0021384611F07FFB75
:1021D000322011F0AAFB013CEFD1C2E70028D4DB8A
:1021E000234B1A4F14930E48022313AA4FF486511F
:1021F0001424139311F059FB0121384611F067FBA9
:10220000322011F092FB0021384611F060FB3220A1
:1022100011F08BFB013CEFD1BBE700BFF7AF01082A
:10222000F09F01085CA101083BB1010844B101081D
:10223000411D00081CB0010829B001083DB001088B
:1022400055B001086EB00108D3B0010880A10108A3
:10225000051D000881B0010888A101089BB0010894
:10226000BBB00108F3B001085E2300202624002043
:1022700004B10108F0B58FB0494B4A480C930BAA42
:1022800002234FF486510B9311F00FFB00F096FCE4
:10229000FFF74EFBFFF744FA434B186000287CD051
:1022A000FFF7CEFB00F018FD0024404B0390029393
:1022B000CDE900443B4923460322204611F0F8FAB9
:1022C0003B483C4D0DF04EFC28603B483B4E0DF02A
:1022D00049FC4FF4B01230600921394811F00BFB72
:1022E00037484FF4B0120B2111F005FB30684FF462
:1022F000B012032111F0FFFA28684FF4B012042144
:1023000011F0F9FA28684FF4C022052111F0F3FA10
:1023100028684FF4C022072111F0EDFA4FF4803203
:102320002868062111F0E7FA2146264811F0CFFA75
:102330002548214611F0CBFA002600270525CDE9D6
:102340000667CDE90245CDE90044204B20490494BD
:102350004FF480521F480DF0FDFD1F4B1F490094A4
:10236000CDE90667CDE90354CDE901444FF480522D
:102370001B480DF0EFFD1B4B1B491C480094CDE999
:102380000667CDE90354CDE901444FF480420DF0D6
:10239000E1FD052011F0C9FAFBE70FB0F0BD00BF69
:1023A00055B10108F09F0108680D00207EB10108B9
:1023B00087B10108B40F00208DB10108B80F0020CB
:1023C000389C010880A1010888A10108A91F000804
:1023D000E076002070050020C11D0008C0660020C6
:1023E000F0040020A51E0008A02600207004002094
:1023F00010B41346826814680A46A446014910BC0A
:10240000604700BFC00F002010B51F4B86B0186892
:10241000836800215B689847C0B248B91B4B04939E
:102420001B48022303AA4FF48651039311F082FA4A
:10243000184C4FF4C0222068072111F09EFA206842
:102440004FF4C022052111F098FA20684FF4803231
:10245000062111F092FA20680F4C4FF4C02204219B
:1024600011F08BFA20680022042111F076FA20681E
:102470000022072111F071FA20680022052106B020
:10248000BDE8104011F069BABC0F002098B10108F6
:1024900000A00108B40F0020B80F00207FB50C4B3E
:1024A0000C4A1A604FF482729A800B480DF05AFB66
:1024B0000A4B186048B90A4B04930A48022303AA3E
:1024C0004FF48251039311F035FA07B05DF804FB25
:1024D000C00F002020A10700A6B10108BC0F0020FA
:1024E000AAB1010800A00108F0B58BB000AF01242B
:1024F0001D4E38703B1DC7E9043407F10803C7E9D6
:102500000634054607F110033068FC600022042100
:10251000C7E90834BF6011F020FA042011F03AFA3C
:10252000124B07F12002186807F11801FFF760FF4E
:10253000042011F02FFA30682246042111F00DFA20
:1025400088B06A463B790A4993610423C2E90415BD
:10255000084842F80C3F4FF4035111F0EBF9387979
:102560002C37BD46F0BD00BFB40F0020BC0F0020CB
:10257000C6B1010800A001082DE9F04387B0544B13
:10258000544F554D0493032402235348039303AA45
:102590004FF48651264611F0CDF903AA4FF4C651E7
:1025A0002846CDE90474039611F0C4F94FF47A700B
:1025B00011F0F2F9013CF0D1484DDFF82481286890
:1025C000454E0122032111F0C8F90324274603AA2E
:1025D0004FF4C6513046CDE90484039711F0AAF9AF
:1025E0004FF47A7011F0D8F9013CF0D1DFF8F480A3
:1025F000394FDFF8F4900320FFF776FF06460A20F4
:1026000011F0CAF90020FFF76FFFF32E12D1032853
:102610001CD1364B04933048022303AA4FF4865151
:10262000039311F087F941F2883007B0BDE8F04319
:1026300011F0B2B9312E09D1022303AA4FF4865109
:102640003846CDF81080039311F074F94FF47A7086
:1026500011F0A2F90A2C10D1254B0493384602231D
:1026600003AA4FF48651039311F064F941F28830C4
:1026700011F092F90134E4B2BDE7142CFAD9022327
:1026800003AA4FF4865138460393CDF8109011F009
:1026900051F900222868032111F05FF9286800220F
:1026A000042111F05AF928680022072111F055F988
:1026B00000220521286811F050F94FF4FA5011F06A
:1026C0006BF928680122032111F047F90024D1E7B2
:1026D000DCB10108F1B1010800A00108B80F002029
:1026E0000EB2010870B20108B2B2010829B20108A5
:1026F0008DB201082DE9F04387B04D4B4D4F4E4D43
:102700000493032402234C48039303AA4FF48651F5
:10271000264611F00FF903AA4FF4C6512846CDE919
:102720000474039611F006F94FF47A7011F034F93D
:10273000013CF0D1414DDFF8088128683E4E01226E
:10274000032111F00AF90324274603AA4FF4C651C6
:102750003046CDE90484039711F0ECF84FF47A7019
:1027600011F01AF9013CF0D1DFF8D880324FDFF8D0
:10277000D8900320FFF7B8FE06460A2011F00CF9A6
:102780000120FFF7B1FEF32E2BD1032835D12F4BBB
:10279000049303AA02234FF486512748039311F0B0
:1027A000C9F84FF4FA6011F0F7F828680022032105
:1027B00011F0D3F828680022042111F0CEF828681F
:1027C0000022072111F0C9F828680022062111F023
:1027D000C4F828680022052107B0BDE8F04311F0D5
:1027E000BCB8312E09D1022303AA4FF486513846D2
:1027F000CDF81080039311F09DF84FF4167011F08E
:10280000CBF80A2CE3B20FD10223384603AA4FF4C7
:102810008651CDF81090039311F08CF841F2883076
:1028200011F0BAF80134A4E7152BFBD1084BAFE740
:10283000C1B20108DBB2010800A00108B80F0020F6
:10284000F9B2010870B201088DB2010815B3010890
:102850005FB301082DE9F04FDBB04FF00009002312
:10286000244C05900B910693CDF82490CDF81C9044
:10287000CDF82090CDF828900B9B069A93423DD13D
:10288000981EFEF7ADF9044601460798FEF7B0FA28
:10289000214607460998FEF7ABFA21460646484608
:1028A000FEF7A6FA214605460898FEF7A1FA21464A
:1028B00080460A98FEF79CFA0F4B4E93044602237B
:1028C0004DAA0C484D934FF4865111F033F8059AF8
:1028D000059BC2F89880C3F8904010460023C2F8C8
:1028E0009430C2F8A070C2F8A460C2F8A8505BB0DF
:1028F000BDE8F08F00A00108F3B30108A44BA54880
:102900004E934DAA069B4F934FF4C6514FF0030AC6
:10291000CDF834A111F00EF83020FFF7E5FD0C9052
:102920000C2011F039F80EAB10A9109312AA012354
:102930000FA8CDE91203CDE91413CDE916231193A5
:102940000C9BF32B38D1944B4E934DAA069B4F937F
:102950004FF4C6512046CDF834A110F0EBFF8F4B59
:1029600000221868042110F0F8FF062011F012F878
:102970000EAA0C924AAB4FF0000A16AA0D930C9BBC
:102980006FF03F011970864B14A91868FFF730FDEE
:102990000AF1010A0D9B9DF83C1003F8011BBAF1E6
:1029A0003E0F16AAEAD1062010F0F4FF7B4B01225D
:1029B0001868042110F0D1FF9DF854019DF85511BD
:1029C0009DF856219DF8573160F307079DF84C019B
:1029D00061F30F279DF84D1162F3174760F3070865
:1029E0009DF84E219DF85A0163F31F6761F30F288C
:1029F0009DF84F319DF85B1162F3174860F3070BA8
:102A00009DF85C219DF85E0163F31F6861F30F2B55
:102A10009DF85D319DF85F1162F3174B60F3070578
:102A20009DF860219DF8620163F31F6B61F30F2530
:102A30009DF861319DF8631162F3174560F3070655
:102A40009DF8642163F31F6561F30F269DF86531DE
:102A500062F3174663F31F6638460C96FDF724FDB4
:102A60000DF1600ACDE900014E4A2821504610F0D0
:102A7000AFFF5846FDF718FD4A4ACDE9000128216D
:102A800022A810F0A5FF2846FDF70EFD454ACDE926
:102A9000000128212CA810F09BFF3046FDF704FD13
:102AA000404ACDE90001282136A810F091FF4046A8
:102AB000FDF7FAFC3B4ACDE90001282140A810F0BF
:102AC00087FF394BCDF80CA04FF0000A0293032288
:102AD000534621465046CDE900AA10F02EFF40ABE8
:102AE0000393324BCDF800A0CDE901A30322534656
:102AF0002146504610F021FF22AB03932C4BCDF81A
:102B000000A0CDE901A3032253462146504610F010
:102B100014FF2CAB0393274BCDF800A0CDE901A304
:102B2000032253462146504610F007FF36AB03936D
:102B3000214BCDF800A0CDE901A303225346214645
:102B4000504610F0FAFE9DF81830012B18D907985E
:102B50005946FDF791FF314607904846FDF78CFF37
:102B6000294681460998FDF787FF3946099008985C
:102B7000FDF782FF414608900A98FDF77DFF0A9015
:102B800041F2883010F008FF069B0133069373E68C
:102B900083B3010800A0010895B30108B40F002019
:102BA000BC0F002029AC0108AFB30108C3B3010872
:102BB000D8B30108E0B30108EAB3010870B58AB0E0
:102BC0002E482F4E0CF0CEFF044668B92D4B0893CB
:102BD000022307934FF48251034607AA2A4811F0B3
:102BE000F8FA34600AB070BD16F0BEF8236803939B
:102BF000054650B9254B24490090CDE90103012237
:102C0000034610F0CEFE3560ECE70025204B029322
:102C1000CDE900552B461C490322284610F0C1FE81
:102C20001C4B346002240893079417482B4607AACC
:102C30004FF4865111F0CDFA17480CF093FF174A64
:102C40000346106030B9164ACDE907424FF4865169
:102C500007AA0CE0836814211B689847034650B10B
:102C6000104BCDE907434FF482512B4607AA064883
:102C700011F0AFFAB6E70C4AE6E700BF10B401085E
:102C8000CC0F002017B4010838A001086AAB010876
:102C9000BEAB010838B401084EB40108D00F0020C3
:102CA00054B4010873B4010886B4010810B58CB09F
:102CB000CDE9000103A968460EF014FA044C054A58
:102CC00003464021204616F036FC20460CB010BDCD
:102CD0002E25002099B4010830B589B016F04AFAC3
:102CE0000A220023FEF770F9124B002504460195D5
:102CF0001868836801A99B689847A8420ADA0E4BB6
:102D00000693022305930D482B4605AA4FF48251E2
:102D100011F05FFA0A4800234FF47A72A4FB000115
:102D2000FEF752F9002102460198FFF7BFFF09B0F4
:102D300030BD00BFCC0F0020ABB4010838A00108A3
:102D400000CA9A3B10B58CB0CDE9000103A96846D2
:102D50000EF0C8F9044C054A03464021204616F0FF
:102D6000EAFB20460CB010BDEE240020C7B40108D9
:102D700030B589B016F0FEF90A220023FEF724F9D7
:102D8000124B0025044601951868836801A99B68C9
:102D90009847A8420ADA0E4B0693022305930D4882
:102DA0002B4605AA4FF4825111F013FA0A4800236A
:102DB0004FF47A72A4FB0001FEF706F900210246E7
:102DC0000198FFF7BFFF09B030BD00BFCC0F002056
:102DD000ABB4010838A0010800CA9A3B07B50090BF
:102DE000084401906946074800F050FBDDE90032D5
:102DF00093424FF0000234BF1A7003F8012C03B065
:102E00005DF804FBC13901082DE9F04F8DB01F4674
:102E1000169B0292009302F00403C2F3C2020193D4
:102E2000531C820705460E46049340F01C82041D85
:102E3000002840F01B8201F00706341DC6F1080689
:102E40004FF0000A4FF004087B1ECDF80CA052464C
:102E50005146C14605B127600498002807DCC848E0
:102E60008742C0F03981C748874280F03581029897
:102E700010F0020E00F049814FF0010C601BBEF112
:102E8000000F00F02F81B0F5007FC0F02B816FF0B4
:102E90001500F9E039B9252840F03B8101214FF0B8
:102EA0000408C14635E12B2824D81F2801D8002169
:102EB0002FE1A0F1200CBCF10B0FF8D80FF2040E9B
:102EC0005EF82CF013310008AF2E0008AF2E00087A
:102ED00013310008AF2E0008AF2E0008AF2E0008F7
:102EE000AF2E0008AF2E0008AF2E0008A330000858
:102EF00013310008A0F12D0C5FFA8CFEBEF14D0FCE
:102F0000D5D8BCF14D0FD2D80FF2040E5EF82CF0DC
:102F10001331000813310008AF2E000813310008E8
:102F20001331000813310008133100081331000871
:102F30001331000813310008133100081331000861
:102F400013310008AF2E0008AF2E0008AF2E000886
:102F5000AF2E0008AF2E0008AF2E0008AF2E0008DD
:102F600065300008AF2E0008AF2E0008AF2E000815
:102F7000653000086530000865300008AF2E000895
:102F8000AF2E0008AF2E0008AF2E00081331000846
:102F9000AF2E0008AF2E0008AF2E0008AF2E00089D
:102FA000AF2E0008AF2E0008AF2E0008AF2E00088D
:102FB000AF2E0008AF2E0008AF2E000849300008E1
:102FC000AF2E0008AF2E0008AF2E0008AF2E00086D
:102FD000AF2E0008AF2E0008AF2E0008AF2E00085D
:102FE00065300008AF2E000849300008493000085D
:102FF00065300008653000086530000813310008AE
:103000004930000897300008AF2E0008133100083F
:10301000AF2E00089D300008493000089D300008A0
:10302000AF2E0008AF2E00089D3000089F2E00082C
:1030300049300008AF2E0008AF2E000849300008C4
:10304000AF2E00089F2E000813F8011C6C2927D111
:1030500013F8021C6C294FF000013AD04FF004081D
:10306000C1461EE0009800F1070B2BF00700F0E8C6
:1030700002890734009024F0070455B105982044D4
:10308000B04204D96FF01B000DB0BDE8F08FC4E969
:103090000089083400214FF0080802E70021DDE72D
:1030A0000021013C4444C8F1000C04EA0C0425B1A1
:1030B000A9EB050CA4446645E4D3732852D10498C7
:1030C000DDF800B001385BF8047B0490CDF800B067
:1030D000C0E64FF00808C3E702984FF0000C00F07C
:1030E000020ECBE60F2A3FF6D2AE45B30DF1300EFD
:1030F000C0F387009644BCF1000F1AD060F07F0047
:103100000EF8100C0AF1010A0132C5F1080004346E
:10311000059013F8010F00287FF4BCAE611BB1F5D8
:10312000806FBFF4B4AE002D41D1A6F10804601841
:10313000AAE70EF8100C039801300390E4E7BCF105
:10314000000F01D1019808B10136DDE73846CDE91D
:1031500006210593FEF737F90236DDE90621059BC6
:103160000644D1E7B9F1040F0ED1009800F1040C28
:103170000DB1006820600434CDF800C0C9E700BF7D
:10318000E09A010890CE0108B9F1080F7FF47FAEF4
:103190000098073020F0070000F1080CCDF800C0BF
:1031A0001DB1D0E900BCC4E900BC0834B1E7019B03
:1031B0002860890829709DF80C10A3B16870E97027
:1031C00085F802A0BAF1000F06D008A84FF0000C55
:1031D000C5F1010E62450AD10DF1200808EB020984
:1031E000C5F1010B39E0019B6970EB70E8E710F85D
:1031F000011B0B0608D504EB0E08464501F07F01C4
:10320000FFF440AF04F8011B0CF1010CE2E7BAF146
:10321000000F03D098F90020002A1CDB019B03BBA0
:1032200098F8002055F8227045F822303846FEF70D
:10323000CAF8421C04EB0B0111448E42FFF422AF8A
:1032400098F8001004F8011B39462046009216F049
:1032500011F9009A144408F10108C145D7D1601B47
:1032600012E70022E6E76FF00D000DE707293FF6B1
:10327000E7AD07E70B6801330B60014B1B6818478C
:103280007C000020014B1860704700BF7C000020CC
:1032900007B50B46002102460191034801A900F041
:1032A000F5F803B05DF804FB7532000830B585B061
:1032B000CDE901010446002501A90548039500F068
:1032C000E5F8DDE902309842B8BF255405B030BDBD
:1032D000033B01082DE9F843C368446905695F1E93
:1032E00040F26C73E1170135E41841F10001022D41
:1032F0008CBF00230123E41A61F1000100298046FC
:1033000056DA6FF4C77020184FF4C8724FF00003FC
:1033100061F10001FDF708FE284B024603FB004463
:10332000D8E90090D8F808803C23C617C8FB0306EC
:10333000022DB446A0FB03068CBF6FF0020E4FF0C7
:10334000090E03FB0C6610EB090C4FEA940340F2E4
:103350006D1000FB04333B444FF06400B4FBF0F409
:1033600005EB0E00A3EB04034FF09905144C05FB8D
:1033700000F000F102004FF00505B0FBF5F003444A
:10338000A2FB040246EBE9761B180E4804FB012160
:103390000D4A41F100011818A0FB020361F1000180
:1033A00002FB013110EB0C0041EB0601BDE8F88394
:1033B0004FF4C87200232046ACE700BF70FEFFFF49
:1033C000B13A02009405F5FF80510100F0B5084EB6
:1033D000026803460A270020114601320C78A55DD9
:1033E0006D0701D41960F0BD07FB00403038F3E7EA
:1033F00091CB01082DE9F84F15469A46D378224A19
:1034000013F802B06F2B80460F460BF0030B29D048
:1034100024D8582B14BF0A261026DDF828903246EF
:10342000002340463946FDF7CFFD092AD4B21ED805
:103430003034B045E4B277F1000309F8014D01D30F
:10344000D14511D82B789B0605D5082E15D1AB7820
:1034500043F00803AB704846BDE8F88F03F0F7036C
:10346000702BD7E70826D8E780460F46D7E7BBF191
:10347000010F0CBF37345734DBE7102EEBD1AB789C
:1034800043F01003E6E700BF91CB01082DE9F04FB0
:1034900081469BB08A4615461C460026287810B9FE
:1034A000304600F0C5BD6B1C2528029306D051465E
:1034B000C8470028C0F2BC85013626E21822002148
:1034C0000CA815F0FFFF6B78252B59D06A1C174606
:1034D00012F8013B2B2B00F08B8079D8202B00F0C9
:1034E0008C80232B00F08E809DF8383003F044024E
:1034F000442A03D16FF386138DF838309DF83830A5
:103500000A9743F080038DF838303B782A2B7ED120
:103510009DF8393043F001038DF839307B1C0A9354
:103520001A782E2A9DF839200CBF0121002161F361
:1035300041028DF839200BD15A1C0A925A782A2A56
:103540007BD19DF8392042F004028DF839200233F6
:103550001A4612F8010B6C2800F0CF807DD868283D
:1035600000F084806A2800F0D2804C2800F0D680D9
:103570009DF839206FF3C6028DF839201A4680E095
:10358000AA1C02928DF83B309DF83930DF0740F1DC
:10359000708154F804BBBBF1000F07DA9DF83820A6
:1035A00042F004028DF83820CBF1000B580740F1AF
:1035B000698154F8048BB8F1000F80F268819DF89E
:1035C00039306FF341038DF839304FF0FF385EE149
:1035D0002D2B06D0302B87D19DF8383043F0400397
:1035E00003E09DF8383043F004038DF838306EE77F
:1035F0009DF8383043F00803F7E79DF8383043F082
:103600001003F2E79DF8383043F02003EDE70AA8F5
:10361000FFF7DCFE0A9BBB4281D09DF838100F906B
:10362000C1F3400242EAD072520062F07F0201F020
:103630007D010A438DF8382071E70AA8FFF7C6FE1E
:103640009DF838301090C3F3400242EAD07060F326
:1036500041038DF838300A9B7AE774289DF83910B9
:1036600059D07A2884D10B46062141E0597868293F
:103670009DF839103AD1012262F3C6018DF8391054
:103680009A1C134613F8012B0293782A8DF83B20DD
:1036900000F2C580572A4ED8412A04D0A2F1450332
:1036A000022B00F2BC809DF83A3002F0DF020421C8
:1036B000A2F1410861F30203D8F100029DF839102C
:1036C0008DF83A3042EB080262F3C7110A068DF812
:1036D0003910CBB200F1CB8003F07802182A40F009
:1036E0009B806FF3C6038DF8393082E00B460221D0
:1036F00061F3C6038DF83930C3E759786C299DF81A
:10370000391001D10422B7E70B460321F0E79DF8F9
:1037100039300521ECE70B460721E9E7BDF83830E1
:1037200023F4F04323F0020343F4804343F0020305
:10373000ADF83830A5E7A2F15803202B6FD801A1CE
:1037400051F823F0F73700081F3800081F38000829
:103750001F3800081F3800081F3800081F380008ED
:103760001F3800081F380008A73600081F38000857
:10377000F7370008C9370008A7360008A736000841
:10378000A73600081F380008C93700081F3800088E
:103790001F3800081F3800081F3800082D3800089F
:1037A000F7370008513800081F3800081F38000894
:1037B000513800081F380008F73700081F38000884
:1037C0001F380008F73700089DF83A30012161F3EF
:1037D00002038DF83A309DF8393003F07803402B1E
:1037E00002BF9DF8381041F001018DF83810632AAE
:1037F00005D0002306E09DF83A300221E7E7003BC0
:1038000018BF01239DF83820C2F340010B4363F336
:1038100041028DF83820B7E613F0380FE9D09DF853
:10382000383043F001038DF83830E2E79DF83A3044
:10383000032262F302038DF83A309DF8393003F029
:103840007803A3F1400CDCF1000343EB0C03D9E750
:103850009DF83A30032262F302038DF83A309DF866
:10386000393013F0780F14BF01230023CAE7012376
:10387000C8E79DF93820002AB4BFDDF83CB04FF00E
:10388000FF3B93E699077FF5A0AEDDF840809DF8F9
:1038900039100023CDE90F339DF83A3003F00702C9
:1038A000042A09D18A0707D49DF93920002AB4BF18
:1038B0004FF00D084FF0060803F00703012BC1F38A
:1038C000C30137D1CB1E042B21D8DFE803F0030955
:1038D0000920200054F8043BDA17CDE90C3206E049
:1038E000073424F00704F4E80223CDE90C239DF803
:1038F0003870BB0756D0029B2A465146484610F006
:10390000D7F90028C0F294830644029DC6E554F816
:10391000043B01294FEAE372CDE90C3205D19DF851
:1039200030300C9300230D93E1E70229DFD1BDF97C
:103930003030D1E7022B23D1CB1E042B13D8DFE884
:1039400003F0030A0A12120022680C920023201DC1
:103950000D930446CBE7E01D20F00700F0E80223BA
:10396000CDE90C23F5E754F8043B0C9301294FF003
:1039700000030D93D3D00229B9D1BDF83030D0E780
:10398000042B09D1E31D23F0070303F10804D3E955
:103990000023CDE90C23AAE7032B04BF54F8043B12
:1039A0000C93A4E79DF83B20782AAED8572A00F262
:1039B0008C80252A00F0D480242AA6D9412A03D05D
:1039C000A2F14503022BA0D8DDE90C13002BC0F2B5
:1039D000B781380700F1B68117F0100718BF20270C
:1039E000C3F30A55C3F31303CDE90813002D40F0C8
:1039F000AB8151EA030014BF01200020DB0243EA3F
:103A00005153C902462A45EA010E43EAE57C08BF44
:103A100066225EEA0C0CCDE9081300F00382002850
:103A200040F0CB81DDE908014FF0000C41F000418E
:103A3000A5F2FE35099163464FF0050E15F1020F10
:103A4000C0F2C281BCF1000F01D0CDE90801002D08
:103A5000DDE9081000F3CD8109980899C5F1040C3F
:103A60001C3500FA05F5ACF1200E21FA0CF120FA14
:103A70000EFE294341EA0E0120FA0CF0CDE90810B0
:103A800002F0DF01472940F0D481DD1C02DB9845BC
:103A900080F2CB81023AB8F1000FD2B201DD08F119
:103AA000FF389DF83810880600F1C381B8F1000F87
:103AB000D4BF00210121662A039140F0BC8113EBA1
:103AC000080540F1BA810025BAE1A2F15803202B84
:103AD0003FF61BAF01A050F823F000BFE33C000805
:103AE0000B3900080B3900080B3900080B390008A6
:103AF0000B3900080B3900080B3900080B39000896
:103B0000C93900080B3900088D3B0008833C0008C8
:103B1000C9390008C9390008C93900080B3900083B
:103B2000833C00080B3900080B3900080B390008EA
:103B30000B390008193D0008E33C0008E73C000889
:103B40000B3900080B390008673B00080B390008E7
:103B5000E33C00080B3900080B390008E33C00087F
:103B600051461046A4E4B8F1000F0C9A09DB414617
:103B70001046039215F008FD039A0027151862B944
:103B8000C3E610460392FDF71EFCF5E70C9B8DF88B
:103B90004C3000270DF14D0513AAAB1A07B10133C4
:103BA0009DF83A00C10640F1378202330F99400672
:103BB0000B4444BF10995B18BBF1000F23DDABEB46
:103BC000030B9DF838305907C3F380081BD45806FF
:103BD00040F13682002F00F036825146384603927B
:103BE000C8470028C0F22482039A474601364FF0A6
:103BF00030085E445B46002BA6EB0B000BF1FF3B4D
:103C000000F30E82064647B1514638460392C84734
:103C10000028C0F20D82039A01369DF83A30590609
:103C200040F165829DF93930002BA6EB020680F247
:103C300019821746B846F31917F8010B702840F09F
:103C40000582109F1E461F44BB1B002B00F34882B9
:103C50002B4642465146484610F02AF80028C0F24A
:103C6000E781304406468344ABEB0603002B7FF725
:103C70004CAE51462020C8470028C0F2D9810136F9
:103C8000F2E73D072BD417F0100718BF2027DDE916
:103C90000C23002B05DA524263EB4303CDE90C23DE
:103CA0002D270DF1650300930EAADDE90C0113AB7E
:103CB000FFF7A0FB0246B8F1000F0DF16505FFF616
:103CC0005EAF9DF83810AB1A6FF3861198458DF8EA
:103CD00038107FF654AFA8EB03030F934FE72B2761
:103CE000D5E70027DDE70C98002800F091810DF161
:103CF000650300930EAA13AB0021FFF77BFBBDF811
:103D00003A3003F0EF0343F4F04343F0100302466C
:103D1000ADF83A300027CEE70C9B07293FF6F5AD0A
:103D2000DFE801F00C04060C08080C0C1E70ECE532
:103D30001E80EAE5F217C3E90062E6E51E60E4E5ED
:103D40002D274DE62B274BE640F2FF70854231D1FF
:103D50000132B948D2B20B43125C02F003021BD10C
:103D6000012A11D149238DF84C304E238DF84D3066
:103D700046238DF84E309DF838306FF386138DF85A
:103D800038300DF14F0507E769238DF84C306E236D
:103D90008DF84D306623ECE7012A07BF4E23412200
:103DA0006E2361220CBF8DF84C308DF84C308DF8AD
:103DB0004D20DEE7002021E6013D49185B41002B44
:103DC000FADACDE908132DE6400840EAC170490847
:103DD000B1F1333FAC4605F10105F5D20EFB01F51B
:103DE000A0FB0E012944013B0CF102054FF0010C30
:103DF00024E6023140F10000CDE9081008A8CDE921
:103E000003230FF026FF049B039ADDE90810013D10
:103E1000013349184041002805F1FF35F9DACDE9B1
:103E2000081014E600231D4616E6A8EB03086622D8
:103E300037E600213FE608F10105102DA8BF102547
:103E40001021079100204FF00061CDE90A01DDE962
:103E50000A10A5B9089D4919099D40EB0505B5F162
:103E6000805F1BD2CDE90815662A40F09980002BAF
:103E700023DC30218DF84C100DF14D052FE0490861
:103E800041EAC0714008CDE90A100AA8CDE904232F
:103E9000013D0FF0DEFEDDE90423D8E7490841EAE1
:103EA000C57108A86D08CDE90423CDE908150FF008
:103EB000D0FE059B049A0133D6E713AD079900297C
:103EC0000BDD07A908A8CDE904230FF0DAFE059B56
:103ED00005F8010B013B049AF0D10F9300239DF8E4
:103EE0003810890602D4B8F1000F1DDD2E2105F827
:103EF000011B9BB1B8F1000F16DD59424145A8BF27
:103F000041469DF83A000F910029A8EB0108D4BF63
:103F10000021012161F345108DF83A00B8F1000F3E
:103F200002DD0799002956DC0399002963D1CDF8F9
:103F3000408002F0DF01452921D1002B2946B8BF7E
:103F40005B4201F8022BB4BF2D222B22632B6A7037
:103F500009DD6420B3FBF0F202F1300CE91C85F8B6
:103F600002C000FB12330A200D46B3FBF0F200FB47
:103F7000123302F1300C303305F802CB4B700F9B3B
:103F8000002B43DC109B002BD4BF002301239DF8A2
:103F90003A2063F3861200238DF83A202B70FBE55C
:103FA00007A908A8CDE904230FF06BFEDDE904237F
:103FB0009DF838108DF84C00302818BF03F1FF33FE
:103FC000880602D4B8F1000F12DD2E218DF84D10B5
:103FD0000DF14E05A2E707A908A8CDE904230FF0CB
:103FE00050FE08F1FF38DDE9042305F8010B95E7E1
:103FF0000DF14D0598E700211091284615F8011D97
:104000003029FAD02E2918BF054692E70123BEE7D2
:104010000A4D07466A1FC0E5010748BF0133C5E5E1
:10402000514640460392C8470028039ABFF6E2ADC6
:104030001BB0BDE8F08F00BF90CB0108DFB40108D2
:104040004FF02008D5E54FF03008D2E55146C8477B
:104050000028BFF6EFADEBE751460392C8470028B2
:10406000039AE5DB1078374BC35C5B07174606EB1A
:10407000020802F10102EFD49DF83A300F9E990632
:1040800007D4B044002EA8EB060206F1FF360FDC81
:10409000904638782E2808D15146C8470028C7DBFB
:1040A000002E08F1010809DC0137A8EB07060EE035
:1040B00051463020C8470028E4DAB9E7514630209D
:1040C000C847013EEAE75146C8470028B0DB1D4A11
:1040D000B846F31917F8010B125C5207F3D4B0E598
:1040E00051463020C8470028A2DB0136ACE5D8068F
:1040F00001D4190707D5514630200392C84700283C
:1041000096DB039A01369DF83A30DB0608D59DF818
:104110003B0003925146C847002889DB039A0136C9
:104120000F9F3744BB1B002B01DC2B4692E5514609
:1041300030200392C8470028FFF67AAF039A013671
:10414000F0E700BF91CB01080C4B1A6842F40072F3
:104150001A601A6842F480621A604FF01002EFF39E
:10416000118382F31288BFF36F8F83F31188BFF33B
:104170006F8F034B034A1A600020704700400058BD
:104180002C02002000093D0030B51049104889B0CC
:10419000002214F0F1FF0F4D0F4900220023CDE95A
:1041A000062300240E23CDE90334CDE901440B4B53
:1041B00000944FF4407228460BF0CCFE0849284684
:1041C00014F028FE204609B030BD00BFE5410008CC
:1041D000F0090020280A0020008700200944000878
:1041E000E0B4010801480BF0E7BF00BF2404002041
:1041F000014B53F82000704790A1010870B5124B95
:10420000BFF35B8F53E8005F6A1C43E8002100297D
:10421000F8D1BFF35B8F2DB90C4C0D4E361B361108
:10422000B54200DB70BD237B53B123689B690BB1A2
:1042300020469847636804221968204600F092F9E6
:1042400001351034ECE700BFDC0F002048A0010866
:1042500058A0010810B5044C237813B903480BF09B
:10426000ABFF0123237010BD6E2500202404002025
:104270000C4BBFF35B8F53E8002F013243E8002162
:104280000029F8D1BFF35B8F58B1BFF35B8F064BAA
:1042900053E8002F013A43E800210029F8D1BFF389
:1042A0005B8F7047D80F0020D40F00200020064BF2
:1042B000BFF35B8F024653E8000F43E8002100295B
:1042C000F9D1BFF35B8F7047D80F0020F8B5FFF727
:1042D000EDFF0A4C0A4D2D1B07462D110026AE425C
:1042E00000DBF8BD63685B792BB123681B6913B1F0
:1042F00039462046984701361034F0E748A00108B7
:1043000058A00108014902480FF09DBD9CA1010879
:10431000E00F0020084A08B500231370074A136015
:10432000074B084A1A604FF47A7000F0FFFABDE8B4
:104330000840FFF7E7BF00BF6F250020D80F00201F
:1043400080000020F34001080146002201480023BC
:104350000FF09ABDE00F002001480FF02BBE00BF08
:10436000E00F0020014601480FF070BEE00F002072
:1043700001480FF09FBE00BFE00F00201D4B1B78CF
:104380002DE9F041054603B988B30FF0BFFE06469C
:1043900018B16DB13046FFF7E5FF2DB9164B1B681C
:1043A000002B01DDFFF792FFBDE8F041FFF7E0BF12
:1043B000124BBFF35B8F53E8002F013A43E8002113
:1043C0000029F8D1BFF35B8F0D4C0E4F3F1B3F11FF
:1043D000A846B845DEDA63685B7923B123683146C5
:1043E0001B682046984708F101081034F1E7BDE842
:1043F000F08100BF6E250020D80F0020D40F0020D0
:1044000048A0010858A0010810B5FFF7F7FE0CF00E
:104410002BFB0C4B186030B10B4B1B68092B02DDDA
:104420000A480BF0C9FE094C0020FFF7A7FF00283F
:10443000FAD14FF0FF324FF0FF3320460BF0E2FE8F
:10444000F2E700BF20100020D40F00202404002039
:1044500013B51D4BBFF35B8F53E8002F511C43E88E
:1044600000100028F8D1BFF35B8F184B1B7883B185
:104470004FF01003EFF3118483F31288BFF36F8FB3
:104480000020FFF77BFF84F31188BFF36F8F02B02A
:1044900010BD0F4B1B68002BF9D052B9002200232E
:1044A000CDE900230B4842F2107200230CF006FD08
:1044B000EDE70A2AEBD1074814F06AFE064802B07D
:1044C000BDE810400BF078BED40F00206F2500200F
:1044D00020100020F009002024040020064B10B515
:1044E0001B68044698472146A06004480FF042FD2F
:1044F000BDE81040FFF7ACBF80000020E00F0020B7
:10450000F8B50E4F3D7875B90D4C0E4EFFF776FE9F
:10451000361B3611B54207DB0020FFF72FFF0028BE
:10452000FAD101233B70F8BD63685B791BB1236846
:1045300020465B69984701351034EBE76F25002072
:1045400048A0010858A00108044A054B9B1AB1EB8A
:10455000D30F34BF52F8310000207047789F010814
:1045600048A00108054A4368801A00110130012261
:10457000187119605A71FFF76DBE00BF48A001089D
:104580000EB403B503AB014653F8042B0448019362
:10459000FEF77CFF02B05DF804EB03B0704700BF8C
:1045A0004D4101082DE9F0471D46089B1746DA06E4
:1045B00004460E4605D499064CBF2B492B49FFF7FC
:1045C000DFFFDFF8AC904FF00008A8452DDBDFF8E7
:1045D000A480DFF8A490DFF898A00025BD4232D275
:1045E000725D49462046FFF7CBFF0135102D23D1E0
:1045F0002249DFF87C80DFF88890DFF888A0204629
:10460000FFF7BEFF0025AF4229D9725D12F80930CD
:1046100013F0970F08BF2E2251462046FFF7B0FF38
:104620000135102D14D1BDE8F08749462046FFF72B
:10463000A7FF08F10108C8E76A07CFD15146204615
:10464000FFF79EFFCAE741462046FFF799FFCCE7F8
:104650006B07D8D141462046FFF792FFD3E741468A
:104660002046FFF78DFFDBE7EDB40108ECB401084D
:10467000E2C90108E0C90108EFB40108F5B4010876
:1046800091CB0108F7B401082DE9F04F87B01C4623
:1046900001F0010305929DF84090BDF948A00493F4
:1046A0000746884601F0020B01F008060FF032FDC4
:1046B0000246002844D03A493846FFF761FF0546D4
:1046C000BBF1000F08D018F0440F3BD1354922460A
:1046D0003846FFF755FF0544049B53B1324B33492D
:1046E00053F82920324B3846002A08BF1A46FFF7F4
:1046F00047FF3EB12F4B304953F829203846FFF78A
:104700003FFF0646BAF1000F16DB059B002B45D094
:10471000012303FA09F9294B294C19F0100F18BF8E
:104720001C4651469DF84400FFF70EFF2146024605
:104730003846FFF725FF0644701907B0BDE8F08F33
:104740000546BDE71F4B18680028C4D01E4B4FF428
:104750007A781B68B4FBF3F44FF46161B4FBF0F3B7
:1047600000FB134408FB04F44FF03C0CB3FBF1F2E4
:1047700001FB1231B4FBF0FEB1FBFCF300FB1E4465
:104780000CFB131108FB04F40091B4FBF0F00F498B
:10479000CDE901E03846FFF7F3FE9CE7084CC0E79F
:1047A00008B501080CB50108B0A1010880BA0108DC
:1047B000FAB40108C4A1010831B5010804B5010823
:1047C000FFB40108241000202810002015B50108AE
:1047D00038B50C46E107054603D5084A0849FFF7F6
:1047E000CFFEE20608D4A30628464CBF0549064979
:1047F000BDE83840FFF7C4BE38BD00BFFAB40108B9
:1048000080BA0108EDB40108ECB401082DE9FF47B6
:104810000B8813F4E07F06460C469046C3F38219DA
:104820004DD00A784B68C2F3C202002B44D0254910
:104830005B1A43F3CF03CDE90123CDF80090A368C1
:10484000002241463046FFF71FFF8246254655F8B5
:104850000C3BC3F3492353B11B4F1C481C492B4647
:104860003246B9F1000F08BF38460FF0BEF867882E
:10487000C7F3CB0797B12368C3F349231D44102F17
:104880003C4628BF10242946CDF8008053462246D6
:104890003046FFF787FE3F1B2544F0D1B9F1000FEA
:1048A00004D04A4641463046FFF792FF304604B0F6
:1048B000BDE8F0470FF03DBC4FF0FF33BBE7CA4601
:1048C000C4E700BF789F0108834101084D410108FA
:1048D0008D34000873B542F20F738B4228BF0B462C
:1048E00005680F4A0446052168460FF02AF96368F7
:1048F0000C495B6806460B2228460FF00DFC6368E6
:104900003246694628465B680FF006FC6368064934
:104910005B681B2228460FF0FFFB02B070BD00BF92
:104920000FBE010873B5010857B50108084A10B554
:104930000123084C13600021A04204D801B1136088
:10494000054B186010BD40085B000121F4E700BF73
:104950002810002040420F00241000202DE9F04FC5
:1049600087B0DDE911579A46109BDDF84CB00393F0
:10497000044689469046CFB3CDF800B03B462A4660
:104980000C210020CDF814B0FEF73EFA0646039A3B
:1049900008F0070304F0070802F11300144C4FEA73
:1049A000C80848EA83183044124B04EA462420F031
:1049B000070048EA040803EAC243800848EA0308FB
:1049C000FFF7C2FC044640B13FB1CDF800B03B4612
:1049D0002A4631460C30FEF717FA534642464946FE
:1049E000204607B0BDE8F04F0FF0D8BB3E46CEE7FB
:1049F00000FE07000000F87FF8B5074F0D4604469B
:104A00004618B44201D12846F8BD386814F8011B95
:104A100083685B689847F4E744100020014B00204E
:104A20001960704734100020014B024A1A60704729
:104A300044100020689C0108024B034801221A70B0
:104A40000FF077BB70250020F8A101080148FFF79F
:104A500041BF00BFF8A10108064B10B518680C460D
:104A6000FFF7C6FB21460346BDE8104002480F226F
:104A7000184700BF34100020F8A1010808B5044809
:104A800014F0E3F9034B0020C3E9003308BD00BF75
:104A90005010002048100020F8B50646FCF793FCA3
:104AA0000546124F12484FF0FF324FF0FF330BF024
:104AB000C9FA3C68BC420ED100240D480BF03AFB09
:104AC0002046F8BDA068FCF77EFCA84206D07B68B3
:104AD0009C42F1D02468002CF4D1EDE7A1682A466D
:104AE000304614F02AFD0028F1D1E6E748100020F6
:104AF0005010002030B5054687B015484FF0FF3202
:104B00004FF0FF330BF09EFA0DB1A86890B9114B2E
:104B10000493022303931048002303AA4FF4825105
:104B20006FF015040FF055FB09480BF003FB20460E
:104B300007B030BDFFF7B0FF044608B1074BE7E709
:104B4000074B5A68C5E9003215605D60ECE700BFAD
:104B50005010002099B50108A09F0108B2B50108C6
:104B600048100020014910220A60704710ED00E053
:104B700072B6404080F31188BFF36F8FBFF34F8F41
:104B800030BF62B6BFF36F8F704700BF2DE9F047AB
:104B900086B0804600AF0C46002945D0E94688B073
:104BA0006D46D1E90012A36823482E464FF0050A4E
:104BB000C5E90401C5E9062346F80CAF1F48324693
:104BC00000234FF421510FF004FBD4E90312636971
:104BD0001B48C5F80CA0CD46C5E90401C5E906236C
:104BE000AD461648324600234FF421510FF0F1FA3A
:104BF000144AE3690325C7E90423CD46FD600F4845
:104C000007F10C0200234FF4C2510FF0E2FA0E4AF2
:104C1000A369FD60C7E904230848002307F10C02DB
:104C20004FF4C2510FF0D5FA214640460AF0E2FF98
:104C30001837BD46BDE8F087DBB5010808A00108BC
:104C40000AB6010839B6010848B6010843B2002B7C
:104C500008DB012200F01F0002FA00F05B09024AA3
:104C600042F82300704700BF00E100E043B2002B90
:104C70000DDB01225B0900F01F0002FA00F0203377
:104C8000034A42F82300BFF34F8FBFF36F8F704783
:104C900000E100E043B2002BA8BF03F1604301F143
:104CA0000101B8BF064B4FEA0111ACBF03F56143E8
:104CB00000F00F00C9B2B4BF195483F80013704755
:104CC00014ED00E030BFFFF7FDBF00BF08B5084B93
:104CD000084A23F07F039360BFF34F8FBFF36F8FBA
:104CE0000BF006F80BF03AFF00F072FB0BF044F803
:104CF0000000000800ED00E0094A0A4993680968CD
:104D0000D967094998674B6843F080534B6000238B
:104D100083F31188BFF36F8F9368D86F704700BF1C
:104D20000023002030A9010800ED00E012498A6844
:104D30004FF030001044EFF3098C80E8F01F102092
:104D400080F31288BFF36F8F0C4F4FF000668A69B3
:104D50008A603E60906F0023936780F3118804B5EA
:104D6000104600F075FBBDE8044002F1300090E809
:104D7000F01F8CF3098870470023002004ED00E049
:104D80001EF0040F0CBFEFF30880EFF30980816978
:104D900011F8021C0229FFD001B50FF096FA01BDEF
:104DA00042F8203C009B42F81C3C0A49019B42F817
:104DB000183C029B42F8143C21F001014FF0807333
:104DC00042F8043C42F8081C0023203A026583673D
:104DD000704700BF5D3B0108094A0346906870B107
:104DE00013F1160F806E05D0A0F120029A4205D86B
:104DF000834203D2814228BF0020704700207047C1
:104E00000023002008B5094B98600D46144600F0B9
:104E10001FFB204685F30988002163B681F31188C2
:104E2000BFF36F8F002200230EF098FE00230020B6
:104E300001B5EFF30580A0F110004FEAC00004496E
:104E4000014409C99847BDE80140024908470000EC
:104E5000889D0108594E0008044B9968986988425A
:104E600003D003494FF080520A60704700230020AE
:104E700004ED00E070B586B0364B049306460D464F
:104E80003548022403AA4FF4825103940FF02CFA00
:104E9000324B9B6ADB0408D5314B2F4803AA4FF4F1
:104EA0008251CDE903430FF01FFA2C4B9B6A1C057E
:104EB00009D52C4B04932848022303AA4FF48251AE
:104EC00003930FF011FA254CA36A98051DD5264BC4
:104ED000049303AA02234FF482511F4803930FF057
:104EE00003FAA36BA26A11040FD5204A1A48CDE930
:104EF00004234FF4C251032303AA03930FF0F4F9E0
:104F00001EB1A36A23F40043A362144B9B6A5A05A3
:104F100009D5174B04931048022303AA4FF482517A
:104F200003930FF0E1F90D4B9B6ADB0509D5114B9B
:104F300004930948022303AA4FF4825103930FF00C
:104F4000D3F9064A936A002043F47F4393622870A2
:104F500006B070BD76B6010808A0010800ED00E0BB
:104F60008CB601089DB60108B0B60108C9B60108A3
:104F7000DEB60108F9B6010810B586B0334B3448E7
:104F80000493022403AA4FF4825103940FF0ACF966
:104F9000304B9B6A9B0108D52F4B2D4803AA4FF439
:104FA0008251CDE903430FF09FF92A4B9B6ADC0144
:104FB00009D52A4B04932648022303AA4FF48251B1
:104FC00003930FF091F9234B9B6A180309D5244BE7
:104FD00004931F48022303AA4FF4825103930FF056
:104FE00083F91C4B9B6A590309D51E4B049318483F
:104FF000022303AA4FF4825103930FF075F9154B66
:105000009B6A9A0309D5184B04931148022303AAFB
:105010004FF4825103930FF067F90E4B9B6ADB0349
:1050200009D5124B04930A48022303AA4FF4825174
:1050300003930FF059F9074A936A6FEA03436FEA43
:1050400013430020936206B010BD00BF11B70108E2
:1050500008A0010800ED00E029B701083CB70108ED
:1050600056B7010874B7010899B70108B3B701082A
:105070002DE9F04186B03E4B0493074688463D48F3
:105080001546022403AA4FF4825103940FF02CF921
:10509000394B9B6AD80608D5384B364803AA4FF4DB
:1050A0008251CDE903430FF01FF9334B9B6A190777
:1050B00009D5334B04932F48022303AA4FF482519E
:1050C00003930FF011F92C4CA36A9A0721D46FF0C7
:1050D0001506294B9B6AD80709D52A4B0493254806
:1050E000022303AA4FF4825103930FF0FDF8224BE1
:1050F0009A6AD1062ED49A6A92072BD400201E4AAF
:10510000936A43F0FF03936200232B7006B0BDE85F
:10511000F0811D4B04931748022303AA4FF48251D8
:1051200003930FF0E1F8666BA36A1B06CFD5174B0C
:105130001048CDE9043603AA03234FF4C251039368
:105140000FF0D2F8B8F1000FC3D0A36A23F08003A8
:10515000A362BEE75B681B05D0D539463046FFF732
:105160003BFE0028CAD080F309880220C7E700BFB1
:10517000DEB7010808A0010800ED00E0F4B701085F
:105180009DB6010855B8010827B801083FB80108C5
:105190007FB50BAB05930393054B02930023CDE939
:1051A000003301221846FFF7D9FB07B05DF804FB76
:1051B00074B801082DE9F043704B5E6891B00D465C
:1051C000C6F30804002787F31188BFF36F8F02F03E
:1051D0007F43B3F17F4F0DD102F00C03082B0BD1AD
:1051E000674B0C93674802230BAA4FF482510B9331
:1051F0000FF07AF83D4603E0120701D40546012777
:1052000000238DF81F30E31E092B00F29C80DFE89D
:1052100003F0058D918A9A9A9A9A9A95574E5A4B0D
:1052200058480C934FF002080BAA4FF48251CDF866
:105230002C800FF059F8F46A4FF0000914EA0804C2
:105240008DF81F900AD0514BCDE90B834D480BAA26
:105250004FF482510FF048F800240BE0F36A002B62
:1052600028DA4B4B47480BAA4FF48251CDE90B8308
:105270000FF03AF89DF81F30CBB908AA05F12006C7
:1052800028686968134603C30835B5421A46F7D142
:105290000F9B002F6CD0C3F3080222B96FEA53238F
:1052A0006FEA43230F9308A92046FFF76FFC11B064
:1052B000BDE8F083F36A5B00DCD5364B31480BAABE
:1052C0004FF48251CDE90B830FF00EF8AB6933F840
:1052D000022C4DF602739A420AD096F82830ABB1F0
:1052E0000DF11F0201212846FFF7C2FE0446C1E767
:1052F0002B68294A2348CDE90C234FF4C2510323DC
:105300000BAA0B930EF0F0FF2C68B3E796F8293048
:105310002BB10DF11F010120FFF7ACFDE6E7738D06
:105320009BB2002BA6D0FFF727FEDFE70DF11F028F
:105330000021D8E70DF11F010020EDE7174B0C937A
:1053400002230B9382E7164A164B0E4916F4F87F98
:1053500018BF1346103CCDE903340024124B0293CE
:10536000CDE90044234601222046FFF711FF81E7E3
:1053700023F4FF7323F0010394E700BF00ED00E086
:10538000B5B8010808A00108E0B80108F7B801089D
:1053900018B9010826B9010845B9010861B9010821
:1053A0009CB8010887B8010874B80108024A53691B
:1053B00043F010035361704700ED00E0EFF3088005
:1053C000EFF3098101B57246FFF7F4FE01BD00BF9E
:1053D000044800231021C21801333E2B82F8001329
:1053E000F9D1704700E100E0102080F311880848EF
:1053F0004FF40261401880F30988EFF31480022112
:10540000084380F31488BFF36F8FFFF75FFC000041
:1054100060930020064B9B68834207D1EFF305831E
:1054200023B1044A536843F0805353600BF032BBFE
:105430000023002000ED00E0024B034A0348012155
:1054400000F086B8000001200000002008A201083A
:10545000826E054B203A1A60044A2021C3E90112EA
:105460001846012100F07EB86410002000000B15E2
:10547000F0B5284F87B000268E4216DA4468002C1B
:1054800045D0DBB104F1FF3C14EA0C0F10D0224BE5
:10549000CDE9043603230393204803AA00234FF4E5
:1054A000C2510EF096FE6FF01502104607B0F0BD27
:1054B0001F2CECD905681CEA050FE8D1202C0568E3
:1054C000D0F808C0D2B210D9B4F1004F0FD8013CC7
:1054D000B4FA84F4C4F11F046400072A4CEA0404FB
:1054E00007D90F4BCDE90432D4E70824F5E73E2471
:1054F000F3E725F01F05154345F0100544F00104BE
:10550000C7F89820C7F89C500132C7F8A040013670
:105510000C30B1E700ED00E089B90108F89F0108FF
:10552000ACB90108044B0522C3F89420BFF34F8F98
:10553000BFF36F8F704700BF00ED00E0BFF35F8FD8
:10554000024B0022C3F89420704700BF00ED00E03A
:1055500010B5034C01232278FFF78AFF207010BD9D
:105560007225002008B5094A00231278FFF780FF52
:1055700010F1160F03D0064B0022072800DD08BDEE
:10558000C3F89800C3F8A0200130F6E77225002088
:1055900000ED00E014490868082810B521D8FFF78D
:1055A000CDFF124C49680022904201F10C0105D157
:1055B0000F4B1870FFF7B6FF002010BDC4F89820FD
:1055C00051F80C3C23F01F03134343F01003C4F8BD
:1055D0009C3051F8043C43F00103C4F8A030013280
:1055E000E2E74FF0FF30E8E714A2010800ED00E029
:1055F00072250020014B1860704700BF8800002012
:10560000F8B5084F06460D460024AC4208DA3B6860
:1056100098470A28305504F1010401D00D28F4D12F
:105620002046F8BD84000020F8B50A4F0D46461EFE
:10563000C0F10104A3199D4201DC2846F8BD73782E
:105640000A2B02D13B680D2098473B6816F8010FE2
:105650009847EFE78800002010B5074C2368C21870
:105660000648C0F1005101F580318A423ABFC018A6
:1056700022604FF0FF3010BD70100020F0C40020F9
:1056800008B51D210448FFF7CFFF404080F3118883
:105690004FF0030002DF00BFD2B90108024B1B68C4
:1056A00003B11847FF207047801000201FB5144B2E
:1056B000144815490024C3E90044144B0360144BFB
:1056C0004360144B8360144BC360144B8C60C1E97E
:1056D00000340822124BCB6004F048F870B100F09F
:1056E000BFFA104B0390CDE9014320460E490094C8
:1056F000234601220EF038FE6FF0150004B010BDF5
:105700007410002094100020841000200D58000810
:105710008957000861580008634301089D56000836
:1057200065430108FFB90108E89F010830B5124C34
:1057300091B02D23054607A88DF81C3004F028FAF7
:105740009DF920302278934200D195B1D8B20B4B0D
:1057500020701B6803B198472378094ACDE90423D8
:10576000032303930748002303AA4FF4C6510EF006
:1057700030FD11B030BD00BF732500207C1000202B
:1057800020BA0108E89F0108F0B50546407885B0C9
:1057900070B100F071FA194B029300230390CDE928
:1057A00000331749012218460EF0DEFD05B0F0BDAA
:1057B000144B1B780BB1FFF7B9FF134B1C68002C7F
:1057C000F4D0083C4FF6FF772388E878BB4201D03D
:1057D00083420DD1AB68697901932B7B009300392B
:1057E000666895F91030B5F90E2018BF0121B04751
:1057F000A468002CDAD0083CE6E700BF38BA0108FC
:10580000E89F010877250020741000201FB504468A
:10581000407860B100F030FA0C4B02930023039003
:10582000CDE900330A49012218460EF09DFD094BCF
:105830001B7813B10020FFF779FF074B62781A70CD
:10584000064804B0BDE810400AF0B6BC53BA0108DF
:10585000E89F010877250020752500203C040020E2
:1058600030B5457895B00446ADB1284600F004FA4D
:105870001A4B029300230390CDE90033184901220B
:1058800018460EF071FD174B62781A7016480AF030
:1058900093FC15B030BD0378012B0AD0042BF2D154
:1058A000124B0E9302230D934FF486512B460DAAF3
:1058B0000FE007230AA88DF8283004F069F90C4B93
:1058C00008930B9B0993032307934FF4C6512B4670
:1058D00007AA03480EF07DFCD5E700BF6BBA0108AC
:1058E000E89F01087625002054040020A1BA010891
:1058F00083BA010870B504469CB04FF0FF324FF0F8
:10590000FF335C480AF09EFB01261D230AA88DF890
:1059100028308DF82C6004F011FA257D002D53D12C
:10592000554B8DF814601B788DF8193002238DF8D3
:1059300018308DF84C3013A82369149304F0FEF945
:1059400003238DF84C3013A82368149304F0F6F960
:1059500009238DF84C3013A86368149304F0EEF912
:1059600008238DF84C3013A8A368149304F0E6F9CB
:1059700005A804F08DFC0446C0B100F071F93F4B5E
:105980000390CDE9015328463D4900952B46324608
:105990000EF0EAFC204600F07BF90446002854D0C3
:1059A00034480AF0C7FB20461CB070BD4FF0FF33EF
:1059B00034484FF0FF320AF025FC334B18780028AA
:1059C00043D000F077F9E8E7012D50D135238DF869
:1059D0004C3013A82D4B149304F0B0F906238DF826
:1059E0004C3013A80023149304F0A8F907238DF872
:1059F0004C3013A82368149304F0A0F90C238DF8FD
:105A00004C3013A8A368149304F098F90D238DF873
:105A10004C3013A8A368149304F090F90E238DF86A
:105A20004C3013A8A368149304F088F90F238DF861
:105A30004C3013A86368149304F080F913A88DF810
:105A40004C508DF8505004F079F9114B1B784BB93C
:105A50002D238DF84C30084B13A81B788DF850304F
:105A600004F06CF90120FFF761FE002498E76FF065
:105A7000150495E7E403002074250020C1BA01084D
:105A8000E89F01085404002076250020000300014F
:105A90007725002010B50C4B1B788AB004461BB14B
:105AA0006FF015000AB010BD2D238DF8080001A875
:105AB0008DF8043004F042F90028F1D1034B1C703A
:105AC000034B1C70EEE700BF7725002074250020F3
