:020000040800F2
:1000000000920020854C0008BF320108594C0008BE
:10001000594C0008594C0008594C000800000000D9
:100020000000000000000000000000001D46000865
:10003000594C000800000000C94500081DE20008F6
:10004000CD460008CD460008CD460008CD46000844
:10005000CD460008CD460008CD460008CD46000834
:10006000CD460008CD460008CD460008CD46000824
:10007000CD460008CD460008CD460008CD46000814
:10008000CD460008CD460008CD460008CD46000804
:10009000CD460008CD460008CD460008CD460008F4
:1000A000CD460008CD460008CD460008CD460008E4
:1000B000CD460008CD460008CD460008CD460008D4
:1000C000CD460008CD460008CD460008CD460008C4
:1000D000CD460008CD460008CD460008CD460008B4
:1000E000CD460008CD460008CD460008CD460008A4
:1000F000CD460008CD460008CD460008CD46000894
:10010000CD460008CD460008CD460008CD46000883
:10011000CD460008CD460008CD460008CD46000873
:10012000CD460008CD460008CD460008CD46000863
:08013000CD460008CD46000891
:08013800FFFFFFFFFFFFFFFFC7
:1001400001F0FF01102A2BDB10F0070F08D010F888
:10015000013B013A8B422DD010F0070F42B3F6D18C
:10016000F0B441EA012141EA014122F007047FF0A5
:1001700000070023F0E80256083C85EA010586EAFC
:10018000010685FA47F5A3FA87F586FA47F6A5FA38
:1001900087F68EB9EED1F0BC01F0FF0102F0070244
:1001A00032B110F8013B013A83EA010313B1F8D1EF
:1001B0000020704701387047002D06BF35460338D0
:1001C000073815F0010F07D1013015F4807F02BF09
:1001D000013015F4C03F0130F0BC0138704700BF5A
:1001E00081F0004102E000BF83F0004330B54FEAE8
:1001F00041044FEA430594EA050F08BF90EA020F55
:100200001FBF54EA000C55EA020C7FEA645C7FEAE7
:10021000655C00F0E2804FEA5454D4EB5555B8BF0A
:100220006D420CDD2C4480EA020281EA030382EA7B
:10023000000083EA010180EA020281EA0303362D0D
:1002400088BF30BD11F0004F4FEA01314FF4801CE0
:100250004CEA113102D0404261EB410113F0004FF2
:100260004FEA03334CEA133302D0524263EB4303A9
:1002700094EA050F00F0A780A4F10104D5F1200E47
:100280000DDB02FA0EFC22FA05F2801841F10001A2
:1002900003FA0EF2801843FA05F359410EE0A5F176
:1002A00020050EF1200E012A03FA0EFC28BF4CF0A7
:1002B000020C43FA05F3C01851EBE37101F000455D
:1002C00007D54FF0000EDCF1000C7EEB00006EEB6A
:1002D0000101B1F5801F1BD3B1F5001F0CD34908F4
:1002E0005FEA30004FEA3C0C04F101044FEA44524B
:1002F00012F5800F80F09A80BCF1004F08BF5FEAD2
:10030000500C50F1000041EB045141EA050130BDB1
:100310005FEA4C0C404141EB0101013C28BFB1F5C3
:10032000801FE9D291F0000F04BF01460020B1FA0E
:1003300081F308BF2033A3F10B03B3F120020CDAE1
:100340000C3208DD02F1140CC2F10C0201FA0CF0BF
:1003500021FA02F10CE002F11402D8BFC2F1200C24
:1003600001FA02F120FA0CFCDCBF41EA0C019040DA
:10037000E41AA2BF01EB0451294330BD6FEA040423
:100380001F3C1CDA0C340EDC04F11404C4F120020E
:1003900020FA04F001FA02F340EA030021FA04F320
:1003A00045EA030130BDC4F10C04C4F1200220FA77
:1003B00002F001FA04F340EA0300294630BD21FAB5
:1003C00004F0294630BD94F0000F83F4801306BF7B
:1003D00081F480110134013D4EE77FEA645C18BF6F
:1003E0007FEA655C29D094EA050F08BF90EA020F06
:1003F00005D054EA000C04BF1946104630BD91EAFE
:10040000030F1EBF0021002030BD5FEA545C05D100
:100410004000494128BF41F0004130BD14F580043F
:100420003CBF01F5801130BD01F0004545F0FE41B3
:1004300041F470014FF0000030BD7FEA645C1ABFE8
:10044000194610467FEA655C1CBF0B46024650EA1F
:10045000013406BF52EA033591EA030F41F400214B
:1004600030BD00BF90F0000F04BF0021704730B5D1
:100470004FF4806404F132044FF000054FF00001A6
:1004800050E700BF90F0000F04BF0021704730B567
:100490004FF4806404F1320410F0004548BF40423C
:1004A0004FF000013EE700BF42004FEAE2014FEA91
:1004B00031014FEA02701FBF12F07F4393F07F4F6C
:1004C00081F06051704732F07F4208BF704793F06F
:1004D0007F4F04BF41F40021704730B54FF4607482
:1004E00001F0004521F000411CE700BF50EA010285
:1004F00008BF704730B54FF000050AE050EA01022E
:1005000008BF704730B511F0004502D5404261EB9D
:1005100041014FF4806404F132045FEA915C3FF4DE
:10052000D8AE4FF003025FEADC0C18BF03325FEA7B
:10053000DC0C18BF033202EBDC02C2F1200300FA2C
:1005400003FC20FA02F001FA03FE40EA0E0021FA51
:1005500002F11444BDE600BF4FEA410212F5001259
:1005600015D211D56FF47873B3EB625212D94FEAFA
:10057000C12343F0004343EA505311F0004F23FAE4
:1005800002F018BF404270474FF00000704750EA39
:10059000013005D111F0004008BF6FF000407047F6
:1005A0004FF00000704700BF80F0004002E000BF45
:1005B00081F0004142001FBF5FEA410392EA030F4E
:1005C0007FEA226C7FEA236C6AD04FEA1262D2EB98
:1005D0001363C1BFD218414048404140B8BF5B429D
:1005E000192B88BF704710F0004F40F4000020F036
:1005F0007F4018BF404211F0004F41F4000121F04C
:100600007F4118BF494292EA030F3FD0A2F1010295
:1006100041FA03FC10EB0C00C3F1200301FA03F1D3
:1006200000F0004302D5494260EB4000B0F5000FF6
:1006300013D3B0F1807F06D340084FEA310102F1B5
:100640000102FE2A51D2B1F1004F40EBC25008BF67
:1006500020F0010040EA03007047490040EB000031
:10066000013A28BFB0F5000FEDD2B0FA80FCACF132
:10067000080CB2EB0C0200FA0CF0AABF00EBC2505F
:1006800052421843BCBFD0401843704792F0000F4D
:1006900081F4000106BF80F400000132013BB5E7A0
:1006A0004FEA41037FEA226C18BF7FEA236C21D016
:1006B00092EA030F04D092F0000F08BF084670477B
:1006C00090EA010F1CBF0020704712F07F4F04D149
:1006D000400028BF40F00040704712F100723CBF5C
:1006E00000F50000704700F0004343F0FE4040F486
:1006F000000070477FEA226216BF08467FEA236344
:100700000146420206BF5FEA412390EA010F40F42E
:10071000800070474FF0000304E000BF10F000437A
:1007200048BF40425FEA000C08BF704743F0964361
:1007300001464FF000001CE050EA010208BF70477C
:100740004FF000030AE000BF50EA010208BF704703
:1007500011F0004302D5404261EB41015FEA010C18
:1007600002BF84460146002043F0B64308BFA3F110
:100770008053A3F50003BCFA8CF2083AA3EBC253F2
:1007800010DB01FA02FC634400FA02FCC2F1200211
:10079000BCF1004F20FA02F243EB020008BF20F048
:1007A0000100704702F1200201FA02FCC2F12002AE
:1007B00050EA4C0021FA02F243EB020008BF20EAA3
:1007C000DC7070474FF0FF0C1CEAD0521EBF1CEAD1
:1007D000D15392EA0C0F93EA0C0F6FD01A4480EABF
:1007E000010C400218BF5FEA41211ED04FF00063A8
:1007F00043EA501043EA5111A0FB01310CF00040D4
:10080000B1F5000F3EBF490041EAD3715B0040EAF9
:10081000010062F17F02FD2A1DD8B3F1004F40EBC9
:10082000C25008BF20F00100704790F0000F0CF09C
:10083000004C08BF49024CEA502040EA51207F3A60
:10084000C2BFD2F1FF0340EAC250704740F400003B
:100850004FF00003013A5DDC12F1190FDCBF00F02C
:1008600000407047C2F10002410021FA02F1C2F1DA
:10087000200200FA02FC5FEA310040F1000053EA76
:100880004C0308BF20EADC70704792F0000F00F0C4
:10089000004C02BF400010F4000F013AF9D040EACA
:1008A0000C0093F0000F01F0004C02BF490011F45E
:1008B000000F013BF9D041EA0C018FE70CEAD1535C
:1008C00092EA0C0F18BF93EA0C0F0AD030F0004CDC
:1008D00018BF31F0004CD8D180EA010000F0004090
:1008E000704790F0000F17BF90F0004F084691F04E
:1008F000000F91F0004F14D092EA0C0F01D1420288
:100900000FD193EA0C0F03D14B0218BF084608D150
:1009100080EA010000F0004040F0FE4040F400009A
:10092000704740F0FE4040F4400070474FF0FF0C2D
:100930001CEAD0521EBF1CEAD15392EA0C0F93EA74
:100940000C0F69D0A2EB030280EA010C49024FEAC6
:10095000402037D04FF0805343EA111143EA10137F
:100960000CF000408B4238BF5B0042F17D024FF437
:10097000000C8B4224BF5B1A40EA0C00B3EB510F12
:1009800024BFA3EB510340EA5C00B3EB910F24BFFB
:10099000A3EB910340EA9C00B3EBD10F24BFA3EB80
:1009A000D10340EADC001B0118BF5FEA1C1CE0D148
:1009B000FD2A3FF650AF8B4240EBC25008BF20F0FB
:1009C000010070470CF0004C4CEA50207F32C2BF4F
:1009D000D2F1FF0340EAC250704740F400004FF0EC
:1009E0000003013A37E792F0000F00F0004C02BF1D
:1009F000400010F4000F013AF9D040EA0C0093F0E7
:100A0000000F01F0004C02BF490011F4000F013B40
:100A1000F9D041EA0C0195E70CEAD15392EA0C0FA8
:100A200008D142027FF47DAF93EA0C0F7FF470AFE0
:100A3000084676E793EA0C0F04D14B023FF44CAF23
:100A400008466EE730F0004C18BF31F0004CCAD1B8
:100A500030F000427FF45CAF31F000437FF43CAFF4
:100A60005FE700BF7BB972B90029BEBF00204FF01D
:100A7000004106E008BF00281CBF6FF000414FF0A6
:100A8000FF3000F057B8ADF1080C6DE904CE002935
:100A900009DB002B1ADB00F0D7F8DDF804E0DDE914
:100AA000022304B07047404261EB4101002B1BDB85
:100AB00000F0CAF8DDF804E0DDE9022304B04042AA
:100AC00061EB4101524263EB43037047524263EBD7
:100AD000430300F0B9F8DDF804E0DDE9022304B0D7
:100AE000404261EB41017047524263EB430300F027
:100AF000ABF8DDF804E0DDE9022304B0524263EB19
:100B00004303704753B94AB9002908BF00281CBFE6
:100B10004FF0FF314FF0FF3000F00CB8ADF1080C92
:100B20006DE904CE00F090F8DDF804E0DDE9022381
:100B300004B07047704700BF4FF0FF3C06E000BFB5
:100B40004FF0010C02E000BF4FF0010C4DF804CD56
:100B50004FEA410C7FEA6C5C4FEA430C18BF7FEA16
:100B60006C5C1BD001B050EA410C0CBF52EA430C44
:100B700091EA030F02BF90EA020F0020704710F1C4
:100B8000000F91EA030F58BF994208BF90422CBF53
:100B9000D8176FEAE37040F0010070474FEA410C4C
:100BA0007FEA6C5C02D150EA013C07D14FEA430C6A
:100BB0007FEA6C5CD6D152EA033CD3D05DF8040BDB
:100BC000704700BF8446104662468C46194663460D
:100BD00000E000BF01B5FFF7B7FF002848BF10F1E4
:100BE000000F01BD4DF808EDFFF7F4FF0CBF012029
:100BF00000205DF808FB00BF4DF808EDFFF7EAFFA5
:100C000034BF012000205DF808FB00BF4DF808ED5F
:100C1000FFF7E0FF94BF012000205DF808FB00BF54
:100C20004DF808EDFFF7CEFF94BF012000205DF8DE
:100C300008FB00BF4DF808EDFFF7C4FF34BF0120EB
:100C400000205DF808FB00BF2DE9F04F07468C46F9
:100C50000846099E15463C461946002B40F0C680C2
:100C60008242B2FA82F746D94FB1C7F1200E24FA78
:100C70000EFE00FA07F3BD404EEA030CBC404FEAFB
:100C800015481FFA85FEBCFBF8F9220C08FB19C3B6
:100C900009FB0EFA42EA03439A4528D9EB1809F1F9
:100CA000FF3004D29A4502D9A9F102002B44A3EBEC
:100CB0000A03A4B2B3FBF8F208FB123302FB0EFEE8
:100CC00044EA0344A64514D92C1902F1FF3303D298
:100CD000A64501D9931E2C44A4EB0E0443EA004020
:100CE0001EB1FC40002334607360BDE8F08F4846BD
:100CF000DDE71346F0E702B9FFDE87BB831A012167
:100D00004FEA154EAAB2B3FBFEFC200C0EFB1C33BF
:100D10000CFB02F840EA0343984563D9EB180CF149
:100D2000FF3004D2984502D9ACF102002B44A3EB6A
:100D30000803A4B2B3FBFEFC0EFB1C330CFB02F257
:100D400044EA0344A2424FD92C190CF1FF3304D2D8
:100D5000A24202D9ACF102032C44A41ABEE7C7F1A7
:100D6000200C20FA0CF800FA07F324FA0CFCBD4022
:100D70004CEA03024FEA154EABB2B8FBFEFC110C75
:100D80000EFB1C800CFB03F941EA0040814504FA8C
:100D900007F423D928180CF1FF3104D2814502D978
:100DA000ACF102012844A0EB090092B2B0FBFEFCBA
:100DB0000EFB1C000CFB03F842EA004398450FD9D8
:100DC000EB180CF1FF3204D2984502D9ACF10202C3
:100DD0002B44A3EB080342EA014191E76146E2E7B5
:100DE0006246F6E76046A2E76346B6E7834205D966
:100DF0000EB1C6E900700021084676E7B3FA83F128
:100E000081B9834201D3BA420AD8BC1A60EB03030A
:100E100001209C46002E68D0C6E9004C002164E702
:100E20000846F7E7C1F1200C8B4022FA0CF41C4372
:100E300002FA01F500FA01F327FA0CF220FA0CFB92
:100E40004FEA14491343BBFBF9F81FFA84FE09FB70
:100E500018BB1A0C08FB0EFA42EA0B42924507FA3D
:100E600001F73ED9A21808F1FF3004D2924502D909
:100E7000A8F102002244A2EB0A029BB2B2FBF9F8ED
:100E800009FB182208FB0EFE43EA024296452AD9C6
:100E9000A21808F1FF3304D2964502D9A8F1020343
:100EA000224443EA0040A0FB0593A2EB0E029A42C3
:100EB000CE46984602D306D14F4504D2B9EB050E73
:100EC00063EB0408013886B1B7EB0E0362EB080749
:100ED00007FA0CFCCB404CEA0303CF40C6E90037CD
:100EE0009CE74046C7E74346DBE73146FDE610F89E
:100EF000012B11F8013B012A28BF9A42F7D0D01AE2
:100F00007047034613F8012B002AFBD1181A013849
:100F100070470000000000002DE9F843C1F30A58B3
:100F2000A8F2FF36132E02460B4607460C4605462E
:100F300033DC002E14DA34A3D3E90023FFF756F98B
:100F400000220023FFF776FE38B1002C58DA24F097
:100F500000431D4301D02E4C002523462F4625E09B
:100F60002C4A42FA06F801EA080202431ED026A3E0
:100F7000D3E90023FFF73AF900220023FFF75AFED6
:100F80000028EAD0002CBEBF4FF4801343FA06F6C7
:100F9000A41924EA08040025DFE7332E0ADDB6F59C
:100FA000806F03D1FFF722F907460B4638461946F2
:100FB000BDE8F883A8F213484FF0FF3222FA08F890
:100FC00018EA000FF2D010A3D3E90023FFF70EF9BF
:100FD00000220023FFF72EFE0028BED0002C02DAEC
:100FE000142E03D1013425EA0805B6E70123C6F122
:100FF000340603FA06F63544BD4238BFE418F2E77A
:1010000000252C46A9E700BF9C7500883CE4377E8C
:101010000000F0BFFFFF0F0070B598B0304B129387
:1010200011AA02230E4604464FF486512D4811930F
:1010300011F009FC01F0EAFA0EAD03462A4A0096C7
:101040002821284611F0B6FC284A2649039500239A
:10105000CDE90132184600930322CDE90533079309
:1010600011F0F4FB3322294605A80AF0BDF9002847
:101070000ADA1F4B0BAACDE90C304FF4C2510323FF
:1010800018480B9311F0DFFB2046FFF73AFF21468B
:10109000024605A80AF030FA00284FF0030313DADD
:1010A000144A0B93CDE90C204FF4C2510D480BAA02
:1010B00011F0C9FB41F2883000210FF0F7F805A8C4
:1010C0000AF0F6F918B070BD0B4A0B93CDE90C206D
:1010D0004FF4C65103480BAA11F0B5FBEFE700BF70
:1010E00062990108BC8D0108719901087C99010879
:1010F0009B990108B8990108D0990108F0B589B009
:1011000001460546002606A8CDE906660AF016FA4D
:10111000044670B1204B21490096CDE90350CDE93A
:10112000016301223346304611F090FB204609B09E
:10113000F0BD1B4B0395CDE9010318490090034610
:101140000322184D184F11F081FB6E1C154906A89B
:101150000AF066FA0446D8B96B78CBB12B78012B2C
:101160000AD1124B0D490396CDE9010300900346C5
:10117000032211F06BFBE9E72B6908490090CDE9E8
:101180000363CDE901070346032211F05FFBDDE7AE
:1011900006A80AF0C7FAC9E7F3990108BC8D01084F
:1011A0000D9A0108400D00202B9A0108219A010890
:1011B00030B5364C3648002389B0A360354B2361E7
:1011C00012F019F800B3344B06930223059305AAD5
:1011D0004FF482513148324D11F035FB2B48E56018
:1011E0000AF0C6FA0223002844D12E4A2B48CDE942
:1011F00005324FF4865105AA11F025FB284609B0A7
:10120000BDE83040FFF77ABF21486A46012112F05D
:101210003CF808B1244BD7E7244B2048069305AA95
:10122000009B07934FF4C6510325059511F00BFB66
:10123000174801AA022112F028F808B11C4BC3E795
:101240001C4B069305AA019B144807934FF4C65103
:10125000059511F0F8FADDE90032A3FB02321B0D0F
:1012600043EA0233144A0595CDE906234FF4C651EB
:1012700005AAAFE7114A0948CDE905324FF482517A
:1012800005AA11F0E0FA09B030BD00BF58000020F7
:10129000429A0108540D0020459A0108BC8D0108AE
:1012A000BF9A0108C49A0108599A0108749A010862
:1012B000839A01089D9A0108AC9A0108D29A010804
:1012C00010B586B0164B04930224039415480023EE
:1012D00003AA4FF4865111F06EFF13480EF07CF80C
:1012E000124A0346106030B9114ACDE903424FF467
:1012F000865103AA0CE0836814211B6898470346B3
:1013000058B10C4BCDE90343002303AA4FF482519B
:10131000044811F050FF06B010BD074AE5E700BFD2
:10132000F39A0108CC8D0108099B0108840F002065
:101330000F9B01082E9B0108419B01082DE9F04FEE
:101340008BB000AFDFF82082796004464FF00009CF
:101350007B684B4562DCA31E04F10E0133F8022FBB
:10136000786892FBF0F299421A80F7D17F4B3B628A
:101370000223E946FB617E4807F11C0200234FF47B
:10138000865111F018FF88B06D462288794963882C
:10139000AB612E464FF00408C5E9041246F80C8FE5
:1013A0007348324600234FF4035111F004FF724991
:1013B000A288E388AB61CD46C5E90412AD46C5F805
:1013C0000C806B48324600234FF4035111F0F3FEBA
:1013D0006A4922896389AB61CD46C5E90412AD46ED
:1013E000C5F80C806248324600234FF4035111F0D7
:1013F000E2FE6349A289E389AB61CD46C5E90412E7
:10140000AD46C5F80C805A48002332464FF40351CC
:1014100011F0D1FE2C37BD46BDE8F08F00264FF00D
:101420000103022E3B7300F09780032E00F096809C
:10143000012E14BFC123D1237B73832307F10C0139
:10144000D8F80000BB730322482311F013FA0A20D6
:1014500011F00BFA0025D8F800003D734823012253
:1014600007F10C0111F006FA0A2011F0FEF907F15C
:1014700008033B614FF0030A0223D8F800007B61A8
:1014800087F818A083680122D3F808B007F110018B
:101490004823D847142011F0E8F93B895BBA9BB286
:1014A00042F21072934288BF2B4624F81630013660
:1014B000042EB4D10A2011F0D8F9A61D4FF0010373
:1014C000022D3B734CD0032D4CD0012D14BFC123F2
:1014D000D1237B73832307F10C01D8F80000BB7381
:1014E0000322492311F0C6F90A2011F0BEF90023A6
:1014F000D8F800003B730122492307F10C0111F0D9
:10150000B9F90A2011F0B1F907F108033B61022390
:10151000D8F800007B6187F818A083680122D3F80F
:1015200008B007F110014923D847142011F09DF9A4
:101530003B895BBA9BB242F210720135934288BF7D
:101540000023042D26F8023FB8D14FF47A7011F031
:101550008CF909F10109FBE6E1236DE7F1236BE763
:10156000E123B6E7F123B4E7840F0020549B010880
:10157000CC8D0108619B0108779B01088D9B0108B8
:10158000A39B010890B583B000AF0446F91DB81DB8
:1015900011F0CAFE88B06A46FB79074993610423BB
:1015A000C2E90414054842F80C3F4FF4035111F00E
:1015B0006EF90C37BD4690BDC59B0108048E01082D
:1015C000F0B58BB06E4604AF8AB004ACCDE90A1218
:1015D000DFF858C00C93224606237D6BCDE908C086
:1015E0004FF4435142F80C3F114811F050F9B54601
:1015F000C5B1104B0E483B6107F10C0202234FF4BA
:101600008651FB6011F043F90B4B039300200B4B09
:101610000293019097F83030009305492B4603223E
:1016200011F038F91C37BD46F0BD00BFE99B010839
:10163000048E0108269C0108479C01087FA8010828
:1016400070B5C4B0284B29481693022415AA4FF44C
:101650008651159411F01BF9254B2448254E15AAE7
:101660004FF48651CDE9154311F011F942F2107093
:1016700011F04DF90024002505210EA8FFF75EFEAC
:1016800000F078FFBDF846200792BDF8442006928E
:10169000BDF842200592BDF840200492BDF83E20DE
:1016A0000392BDF83C200292BDF83A200192BDF8A9
:1016B0003820009203463246CDE90C45CDE90A4573
:1016C000CDE90845C82112A811F074F912A80A49F9
:1016D000FFF7A2FCC82212A9084816F0DFFE47F265
:1016E000305011F014F9C7E7519C0108048E01082D
:1016F000709C01087C9C0108AA9C010832230020F0
:101700002DE9F041F4B0314BDFF8C480314D469300
:101710003148022345AA4FF48651002600274593FD
:1017200011F0B5F8022313AA2B4813934FF48651F6
:10173000CDF8508011F0ABF82846012111F0B9F82E
:1017400000F0C4FA00F030FB16A8072100F09AFC64
:1017500000F0E8FB00F070FA0021284611F0A9F82B
:1017600000F008FF04464098CDE90E67CDE90C670C
:10177000CDE90A67FEF798FECDE908013F98FEF72C
:1017800093FECDE906013E98FEF78EFECDE90401F9
:101790003A98FEF789FECDE902013C98FEF784FEF7
:1017A0002346CDE900010D4AC82142A811F002F9F3
:1017B000C82242A90A4816F071FE42A80949FFF75B
:1017C0002BFC094811F0A3F8ACE700BFAE9C010860
:1017D000CC9C01089C8F0108048E0108E29C010842
:1017E000FA230020169D0108C0D401002DE9F04124
:1017F0009CB09B4B9B481A9319AA02234FF4865125
:10180000199311F044F8984A10685168974A05AB4B
:1018100003C31068516803C3954B0CAA03F110066B
:10182000154618685968144603C40833B342224663
:10183000F7D100264FF6FF730996ADF824308D4B93
:101840000B960A938C4C20460DF0C6FD034658B902
:101850008A4A84490394CDE901020090012211F0E3
:1018600019F81CB0BDE8F081854B7E481A9319AA7F
:101870004FF486510224199411F009F803F0F4FD95
:1018800000280BDA7F4B19AACDE91A304FF4C25168
:1018900003237448199310F0FAFFE2E77A4B71487A
:1018A000DFF8E8817A4F19AA4FF48651CDE9194340
:1018B00010F0EDFF09A803F0C1FD764803F0CEFD5E
:1018C00005AB1A9307ABCDE917551693654D724BCF
:1018D00064488DF86C6013AA4FF48651CDE9134328
:1018E00010F0D5FF16A803F03FFC041E1DDA6B486C
:1018F000012110F0DEFF6A4B13AACDE914344FF436
:10190000C25103232846139310F0C1FF002142F275
:1019100010700EF0CBFC6148002110F0CAFF0021CE
:1019200042F210700EF0C2FCDCE7022003F0ECFC87
:10193000041E09DA5B4B149313AA02234FF482515D
:101940002846139310F0A3FF13AA4FF4865128469C
:101950000226CDF85080139610F099FF01213846E9
:1019600010F0A7FF002CBDDB4F4B504D3D48CDE99B
:1019700013634F4E13AA4FF4865110F088FF284688
:10198000FFF7BFFA0123C2B22946184603F0DCFC78
:1019900010F10B0F24D14FF4FA6010F0B8FF4FF4A0
:1019A000FA6010F0B4FF42F2107010F0B0FF304651
:1019B000FFF7A7FA0123C2B23146022003F0C4FCAC
:1019C00010F10B0F2CD14FF4FA6010F0A0FF4FF480
:1019D000FA6010F09CFF42F2107010F098FFCEE712
:1019E0000028DCDBDFD1334B294F14931D48022341
:1019F00013AA4FF486511424139310F048FF0121C9
:101A0000384610F056FF322010F081FF0021384692
:101A100010F04FFF322010F07AFF013CEFD1C2E707
:101A20000028D4DB234B1A4F14930E48022313AA29
:101A30004FF486511424139310F029FF01213846E6
:101A400010F037FF322010F062FF0021384610F00E
:101A500030FF322010F05BFF013CEFD1BBE700BF4D
:101A60001A9D0108048E0108708F01085E9E01080E
:101A7000679E0108C11500083F9D01084C9D0108A3
:101A8000609D0108789D0108919D0108F69D01085F
:101A9000948F010885150008A49D01089C8F0108FA
:101AA000BE9D0108DE9D0108169E0108322300201C
:101AB000FA230020279E0108F0B58FB0454B464819
:101AC0000C930BAA02234FF486510B9310F0DFFE08
:101AD00000F0C2FCFFF76CFBFFF7F2FB00F04AFDE1
:101AE00000243E4B03900293CDE900443A4923463B
:101AF0000322204610F0CEFE39483A4D0DF06CFC22
:101B000028603948394E0DF067FC4FF4B012306050
:101B10000921374810F0E1FE35484FF4B0120B218F
:101B200010F0DBFE30684FF4B012032110F0D5FE48
:101B300028684FF4B012042110F0CFFE28684FF44B
:101B4000C022052110F0C9FE28684FF4C0220721E9
:101B500010F0C3FE4FF480322868062110F0BDFE5D
:101B60002146244810F0A5FE2348214610F0A1FE8E
:101B7000002600270525CDE90667CDE90245CDE918
:101B800000441E4B1E4904944FF480521D480DF032
:101B90001BFE1D4B1D490094CDE90667CDE903549A
:101BA000CDE901444FF4805219480DF00DFE194B58
:101BB00019491A480094CDE90667CDE90354CDE9E7
:101BC00001444FF480420DF0FFFD052010F09FFE10
:101BD000FBE700BF789E0108048E0108A19E010862
:101BE000AA9E0108880F0020B09E01088C0F0020DB
:101BF0004C8A0108948F01089C8F0108ED1700089A
:101C0000C07600204805002041160008A06600208C
:101C1000C804002001170008802600204804002086
:101C200010B41346826814680A46A446014910BCE1
:101C3000604700BF940F002010B51F4B86B0186896
:101C4000836800215B689847C0B248B91B4B049376
:101C50001B48022303AA4FF48651039310F05CFE45
:101C6000184C4FF4C0222068072110F078FE20683D
:101C70004FF4C022052110F072FE20684FF480322C
:101C8000062110F06CFE20680F4C4FF4C022042196
:101C900010F065FE20680022042110F050FE20683C
:101CA0000022072110F04BFE20680022052106B01B
:101CB000BDE8104010F043BE900F0020BB9E01080D
:101CC000148E0108880F00208C0F00207FB50C4B6C
:101CD0000C4A1A604FF482729A800B480DF07CFB1C
:101CE0000A4B186048B90A4B04930A48022303AA16
:101CF0004FF48251039310F00FFE07B05DF804FB20
:101D0000940F002020A10700C99E0108900F002019
:101D1000CD9E0108148E0108F0B58BB000AF0124F0
:101D20001D4E38703B1DC7E9043407F10803C7E9AD
:101D30000634054607F110033068FC6000220421D8
:101D4000C7E90834BF6010F0FAFD042010F014FE5B
:101D5000124B07F12002186807F11801FFF760FF26
:101D6000042010F009FE30682246042110F0E7FD3F
:101D700088B06A463B790A4993610423C2E9041595
:101D8000084842F80C3F4FF4035110F0C5FD387974
:101D90002C37BD46F0BD00BF880F0020900F0020FB
:101DA000E99E0108148E01082DE9F04387B0544BD9
:101DB000544F554D0493032402235348039303AA1D
:101DC0004FF48651264610F0A7FD03AA4FF4C651E2
:101DD0002846CDE90474039610F09EFD4FF47A7006
:101DE00010F0CCFD013CF0D1484DDFF8248128688B
:101DF000454E0122032110F0A2FD0324274603AA29
:101E00004FF4C6513046CDE90484039710F084FDA9
:101E10004FF47A7010F0B2FD013CF0D1DFF8F4809D
:101E2000394FDFF8F4900320FFF776FF06460A20CB
:101E300010F0A4FD0020FFF76FFFF32E12D103284E
:101E40001CD1364B04933048022303AA4FF4865129
:101E5000039310F061FD41F2883007B0BDE8F04314
:101E600010F08CBD312E09D1022303AA4FF4865104
:101E70003846CDF81080039310F04EFD4FF47A7081
:101E800010F07CFD0A2C10D1254B04933846022318
:101E900003AA4FF48651039310F03EFD41F28830BF
:101EA00010F06CFD0134E4B2BDE7142CFAD9022322
:101EB00003AA4FF4865138460393CDF8109010F0E2
:101EC0002BFD00222868032110F039FD286800222C
:101ED000042110F034FD28680022072110F02FFDA6
:101EE00000220521286810F02AFD4FF4FA5010F066
:101EF00045FD28680122032110F021FD0024D1E7CF
:101F0000FF9E0108149F0108148E01088C0F002009
:101F1000319F0108939F0108D59F01084C9F01083C
:101F2000B09F01082DE9F04387B04D4B4D4F4E4D0A
:101F30000493032402234C48039303AA4FF48651CD
:101F4000264610F0E9FC03AA4FF4C6512846CDE915
:101F50000474039610F0E0FC4FF47A7010F00EFD5C
:101F6000013CF0D1414DDFF8088128683E4E012246
:101F7000032110F0E4FC0324274603AA4FF4C651C2
:101F80003046CDE90484039710F0C6FC4FF47A7014
:101F900010F0F4FC013CF0D1DFF8D880324FDFF8CC
:101FA000D8900320FFF7B8FE06460A2010F0E6FCA2
:101FB0000120FFF7B1FEF32E2BD1032835D12F4B93
:101FC000049303AA02234FF486512748039310F089
:101FD000A3FC4FF4FA6010F0D1FC28680022032122
:101FE00010F0ADFC28680022042110F0A8FC28683D
:101FF0000022072110F0A3FC28680022062110F01F
:102000009EFC28680022052107B0BDE8F04310F0CF
:1020100096BC312E09D1022303AA4FF486513846CB
:10202000CDF81080039310F077FC4FF4167010F089
:10203000A5FC0A2CE3B20FD10223384603AA4FF4C1
:102040008651CDF81090039310F066FC41F2883071
:1020500010F094FC0134A4E7152BFBD1084BAFE73B
:10206000E49F0108FE9F0108148E01088C0F0020D8
:102070001CA00108939F0108B09F010838A0010827
:1020800082A001082DE9F04FDDB000230593234D18
:10209000049000230D9109930893079306930A93E4
:1020A0000D9B059A93423DD1981EFEF737FB0446DF
:1020B00001460798FEF73AFC214607460898FEF7C6
:1020C00035FC214606460998FEF730FC21460546B8
:1020D0000698FEF72BFC214680460A98FEF726FC60
:1020E0000F4B5093044602234FAA0C484F934FF4D2
:1020F000865110F011FC049A049BC2F89880C3F832
:10210000904010460023C2F89430C2F8A070C2F884
:10211000A460C2F8A8505DB0BDE8F08F148E01082D
:1021200077A10108BD4B5093059BBD4851934FAA21
:1021300003234FF4C6514F9310F0EEFB3020FFF70E
:10214000EBFD0B900C2010F019FC012312A914AA2E
:102150000FA8CDE91403CDE91613CDE91823139385
:102160000B9B0EAFF32B129718AC36D1AD4B50939F
:10217000059B51934FAA03234FF4C65128464F9312
:1021800010F0CAFBA84B00221868042110F0D7FBFE
:10219000062010F0F1FB4CAB0C9322460023A34C1D
:1021A0000B936FF03F033B70206816A9FFF738FDD3
:1021B0000C9A9DF83C3002F8013B0B9B0C920133CA
:1021C0003E2B0B9318AAECD1062010F0D5FB964BB2
:1021D00001221868042110F0B2FB954B0393954B34
:1021E000029300243E23CDE9003403224CAB294660
:1021F000204610F094FB9DF85C019DF85D119DF860
:102200005E219DF85F319DF86A719DF86BE19DF844
:102210006CC18DF841E060F307089DF854018DF81A
:1022200042C061F30F289DF8551162F3174860F31F
:1022300007069DF856219DF8620163F31F6861F35C
:102240000F269DF857319DF8631162F3174660F32E
:10225000070A9DF864219DF866018DF8440063F338
:102260001F6661F30F2A9DF865319DF867118DF89F
:10227000451062F3174A63F31F6A9DF868310B93A8
:102280000B9A9DF869318DF8473060F3070B61F3C5
:102290000F2B62F3174B3A4662F307096EF30F29CF
:1022A0009DF86D718DF840206CF317490B9A8DF8ED
:1022B000437067F31F6963F31F6B5F4B8DF8462014
:1022C000CDF8309003935B4B042710AACDE901436E
:1022D0000097134629460322204610F020FB574B57
:1022E0000393544B00970322CDE90143294611ABD8
:1022F000204610F014FB4046FEF7D6F8504ACDE9D0
:10230000000128211AA810F055FB5046FEF7CCF822
:102310004B4ACDE90001282124A810F04BFB584678
:10232000FEF7C2F8464ACDE9000128212EA810F098
:1023300041FB4846FEF7B8F838AFCDE90001404A06
:102340002821384610F036FB3046FEF7ADF83C4AFF
:10235000CDE90001282142A810F02CFB1AAB039311
:10236000384B0094CDE901430322234629462046F9
:1023700010F0D5FA42AB0393334B0094CDE90143FF
:10238000032223462946204610F0C9FA24AB0393C2
:102390002E4B0094CDE901430322234629462046D3
:1023A00010F0BDFA2EAB0393294B0094CDE9014305
:1023B000032223462946204610F0B1FA254B039705
:1023C000CDE901430094234603222946204610F01C
:1023D000A6FA9DF81430012B18D907985146FEF73C
:1023E000E9F8494607900998FEF7E4F8594609903C
:1023F0000898FEF7DFF8414608900698FEF7DAF8ED
:10240000314606900A98FEF7D5F80A9041F28830D6
:1024100010F0B4FA059B0133059341E6DBA00108F7
:10242000148E0108EDA00108880F0020900F0020F5
:1024300007A101087FA8010813A1010820A1010834
:102440002DA1010833A1010847A101085CA10108E1
:1024500064A101086EA1010870B58AB02E482F4E04
:102460000CF0BAFF044668B92D4B0893022307937A
:102470004FF48251034607AA2A4810F09CFE3460AC
:102480000AB070BD15F03FFC23680393054650B9B0
:10249000254B24490090CDE901030122034610F0A9
:1024A00072FA3560ECE70025204B0293CDE9005528
:1024B0002B461C490322284610F065FA1C4B346059
:1024C00002240893079417482B4607AA4FF4865115
:1024D00010F071FE17480CF07FFF174A034610609A
:1024E00030B9164ACDE907424FF4865107AA0CE0ED
:1024F000836814211B689847034650B1104BCDE9FF
:1025000007434FF482512B4607AA064810F053FEAA
:10251000B6E70C4AE6E700BF94A10108A00F00202F
:102520009BA101084C8E0108BCA1010810A2010862
:1025300037A201084DA20108A40F002053A20108F0
:1025400072A2010885A2010810B58CB0CDE9000186
:1025500003A968460EF000FA044C054A03464021E0
:10256000204615F0B7FF20460CB010BD0225002014
:1025700098A2010830B589B015F0CBFD0A220023DE
:10258000FEF7C0FA124B00250446019518688368CF
:1025900001A99B689847A8420ADA0E4B06930223CA
:1025A00005930D482B4605AA4FF4825110F003FE07
:1025B0000A4800234FF47A72A4FB0001FEF7A2FA46
:1025C000002102460198FFF7BFFF09B030BD00BFF0
:1025D000A00F0020AAA201084C8E010800CA9A3B55
:1025E00010B58CB0CDE9000103A968460EF0B4F92E
:1025F000044C054A03464021204615F06BFF204657
:102600000CB010BDC2240020C6A2010830B589B0AC
:1026100015F07FFD0A220023FEF774FA124B002505
:10262000044601951868836801A99B689847A842E9
:102630000ADA0E4B0693022305930D482B4605AA92
:102640004FF4825110F0B7FD0A4800234FF47A721C
:10265000A4FB0001FEF756FA002102460198FFF79D
:10266000BFFF09B030BD00BFA00F0020AAA2010823
:102670004C8E010800CA9A3B07B5009008440190AF
:102680006946074800F050FBDDE9003293424FF005
:10269000000234BF1A7003F8012C03B05DF804FB8C
:1026A000A52901082DE9F04F8DB01F46169B029217
:1026B000009302F00403C2F3C2020193531C820789
:1026C00005460E46049340F01C82041D002840F08D
:1026D0001B8201F00706341DC6F108064FF0000A00
:1026E0004FF004087B1ECDF80CA052465146C1465F
:1026F00005B127600498002807DCC8488742C0F06D
:102700003981C748874280F03581029810F0020E67
:1027100000F049814FF0010C601BBEF1000F00F08A
:102720002F81B0F5007FC0F02B816FF01500F9E02C
:1027300039B9252840F03B8101214FF00408C146FA
:1027400035E12B2824D81F2801D800212FE1A0F142
:10275000200CBCF10B0FF8D80FF2040E5EF82CF031
:10276000AF2900084B2700084B270008AF290008B5
:102770004B2700084B2700084B2700084B27000871
:102780004B2700084B2700083F290008AF29000805
:10279000A0F12D0C5FFA8CFEBEF14D0FD5D8BCF127
:1027A0004D0FD2D80FF2040E5EF82CF0AF290008BE
:1027B000AF2900084B270008AF290008AF290008FF
:1027C000AF290008AF290008AF290008AF29000889
:1027D000AF290008AF290008AF290008AF29000879
:1027E0004B2700084B2700084B2700084B27000801
:1027F0004B2700084B2700084B2700080129000839
:102800004B2700084B2700084B2700080129000828
:1028100001290008012900084B2700084B27000860
:102820004B2700084B270008AF2900084B2700085A
:102830004B2700084B2700084B2700084B270008B0
:102840004B2700084B2700084B2700084B270008A0
:102850004B2700084B270008E52800084B270008F5
:102860004B2700084B2700084B2700084B27000880
:102870004B2700084B2700084B27000801290008B8
:102880004B270008E5280008E52800080129000872
:102890000129000801290008AF290008E5280008DF
:1028A000332900084B270008AF2900084B270008F0
:1028B00039290008E5280008392900084B270008B5
:1028C0004B270008392900083B270008E5280008A5
:1028D0004B2700084B270008E52800084B27000875
:1028E0003B27000813F8011C6C2927D113F8021CA0
:1028F0006C294FF000013AD04FF00408C1461EE0A9
:10290000009800F1070B2BF00700F0E8028907346C
:10291000009024F0070455B105982044B04204D932
:102920006FF01B000DB0BDE8F08FC4E900890834DA
:1029300000214FF0080802E70021DDE70021013CFB
:102940004444C8F1000C04EA0C0425B1A9EB050CC1
:10295000A4446645E4D3732852D10498DDF800B04E
:1029600001385BF8047B0490CDF800B0C0E64FF06E
:102970000808C3E702984FF0000C00F0020ECBE607
:102980000F2A3FF6D2AE45B30DF1300EC0F38700EB
:102990009644BCF1000F1AD060F07F000EF8100CC6
:1029A0000AF1010A0132C5F108000434059013F858
:1029B000010F00287FF4BCAE611BB1F5806FBFF43E
:1029C000B4AE002D41D1A6F108046018AAE70EF8B4
:1029D000100C039801300390E4E7BCF1000F01D123
:1029E000019808B10136DDE73846CDE906210593A7
:1029F000FEF787FA0236DDE90621059B0644D1E79A
:102A0000B9F1040F0ED1009800F1040C0DB100686B
:102A100020600434CDF800C0C9E700BFF488010885
:102A200098BC0108B9F1080F7FF47FAE0098073019
:102A300020F0070000F1080CCDF800C01DB1D0E96E
:102A400000BCC4E900BC0834B1E7019B28608908D8
:102A500029709DF80C10A3B16870E97085F802A088
:102A6000BAF1000F06D008A84FF0000CC5F1010E16
:102A700062450AD10DF1200808EB0209C5F1010BEE
:102A800039E0019B6970EB70E8E710F8011B0B0659
:102A900008D504EB0E08464501F07F01FFF440AF76
:102AA00004F8011B0CF1010CE2E7BAF1000F03D0AE
:102AB00098F90020002A1CDB019B03BB98F800203A
:102AC00055F8227045F822303846FEF71AFA421CB3
:102AD00004EB0B0111448E42FFF422AF98F8001072
:102AE00004F8011B39462046009215F092FC009A2A
:102AF000144408F10108C145D7D1601B12E7002238
:102B0000E6E76FF00D000DE707293FF6E7AD07E7B1
:102B10000B6801330B60014B1B6818477C000020D9
:102B2000014B1860704700BF7C00002007B50B46C2
:102B3000002102460191034801A900F0F5F803B015
:102B40005DF804FB112B000830B585B0CDE901011B
:102B50000446002501A90548039500F0E5F8DDE9E4
:102B600002309842B8BF255405B030BDE72A0108AD
:102B70002DE9F843C368446905695F1E40F26C7330
:102B8000E1170135E41841F10001022D8CBF00234B
:102B90000123E41A61F100010029804656DA6FF43E
:102BA000C77020184FF4C8724FF0000361F10001A4
:102BB000FDF758FF284B024603FB0044D8E900907C
:102BC000D8F808803C23C617C8FB0306022DB4467C
:102BD000A0FB03068CBF6FF0020E4FF0090E03FB43
:102BE0000C6610EB090C4FEA940340F26D1000FBE9
:102BF00004333B444FF06400B4FBF0F405EB0E00EB
:102C0000A3EB04034FF09905144C05FB00F000F111
:102C100002004FF00505B0FBF5F00344A2FB0402EF
:102C200046EBE9761B180E4804FB01210D4A41F1E1
:102C300000011818A0FB020361F1000102FB013141
:102C400010EB0C0041EB0601BDE8F8834FF4C872AD
:102C500000232046ACE700BF70FEFFFFB13A020040
:102C60009405F5FF80510100F0B5084E0268034657
:102C70000A270020114601320C78A55D6D0701D4AA
:102C80001960F0BD07FB00403038F3E797B9010841
:102C90002DE9F84F15469A46D378224A13F802B028
:102CA0006F2B80460F460BF0030B29D024D8582BEE
:102CB00014BF0A261026DDF828903246002340462D
:102CC0003946FDF71FFF092AD4B21ED83034B0456B
:102CD000E4B277F1000309F8014D01D3D14511D8D1
:102CE0002B789B0605D5082E15D1AB7843F0080349
:102CF000AB704846BDE8F88F03F0F703702BD7E7B9
:102D00000826D8E780460F46D7E7BBF1010F0CBF76
:102D100037345734DBE7102EEBD1AB7843F0100398
:102D2000E6E700BF97B901082DE9F04F81469BB057
:102D30008A4615461C460026287810B9304600F011
:102D4000C5BD6B1C2528029306D05146C8470028F4
:102D5000C0F2BC85013626E2182200210CA815F02D
:102D600080FB6B78252B59D06A1C174612F8013B63
:102D70002B2B00F08B8079D8202B00F08C80232B1C
:102D800000F08E809DF8383003F04402442A03D1CD
:102D90006FF386138DF838309DF838300A9743F07A
:102DA00080038DF838303B782A2B7ED19DF839305E
:102DB00043F001038DF839307B1C0A931A782E2AD0
:102DC0009DF839200CBF0121002161F341028DF8EB
:102DD00039200BD15A1C0A925A782A2A7BD19DF8A5
:102DE000392042F004028DF8392002331A4612F8D5
:102DF000010B6C2800F0CF807DD8682800F084801B
:102E00006A2800F0D2804C2800F0D6809DF8392046
:102E10006FF3C6028DF839201A4680E0AA1C029290
:102E20008DF83B309DF83930DF0740F1708154F860
:102E300004BBBBF1000F07DA9DF8382042F0040212
:102E40008DF83820CBF1000B580740F1698154F818
:102E5000048BB8F1000F80F268819DF839306FF370
:102E600041038DF839304FF0FF385EE12D2B06D04D
:102E7000302B87D19DF8383043F0400303E09DF8B4
:102E8000383043F004038DF838306EE79DF8383061
:102E900043F00803F7E79DF8383043F01003F2E7FA
:102EA0009DF8383043F02003EDE70AA8FFF7DCFE79
:102EB0000A9BBB4281D09DF838100F90C1F34002AD
:102EC00042EAD072520062F07F0201F07D010A43B3
:102ED0008DF8382071E70AA8FFF7C6FE9DF8383054
:102EE0001090C3F3400242EAD07060F341038DF8C2
:102EF00038300A9B7AE774289DF8391059D07A281F
:102F000084D10B46062141E0597868299DF8391093
:102F10003AD1012262F3C6018DF839109A1C13468A
:102F200013F8012B0293782A8DF83B2000F2C5801C
:102F3000572A4ED8412A04D0A2F14503022B00F2B1
:102F4000BC809DF83A3002F0DF020421A2F1410872
:102F500061F30203D8F100029DF839108DF83A3080
:102F600042EB080262F3C7110A068DF83910CBB2A2
:102F700000F1CB8003F07802182A40F09B806FF3B9
:102F8000C6038DF8393082E00B46022161F3C60397
:102F90008DF83930C3E759786C299DF8391001D183
:102FA0000422B7E70B460321F0E79DF839300521ED
:102FB000ECE70B460721E9E7BDF8383023F4F0438E
:102FC00023F0020343F4804343F00203ADF83830AA
:102FD000A5E7A2F15803202B6FD801A151F823F0E7
:102FE00093300008BB300008BB300008BB3000083D
:102FF000BB300008BB300008BB300008BB30000805
:10300000BB300008432F0008BB3000089330000895
:1030100065300008432F0008432F0008432F0008A5
:10302000BB30000865300008BB300008BB3000082A
:10303000BB300008BB300008C930000893300008DE
:10304000ED300008BB300008BB300008ED30000850
:10305000BB30000893300008BB300008BB300008CC
:10306000933000089DF83A30012161F302038DF896
:103070003A309DF8393003F07803402B02BF9DF8B9
:10308000381041F001018DF83810632A05D0002373
:1030900006E09DF83A300221E7E7003B18BF012324
:1030A0009DF83820C2F340010B4363F341028DF8D1
:1030B0003820B7E613F0380FE9D09DF8383043F0E8
:1030C00001038DF83830E2E79DF83A30032262F3CD
:1030D00002038DF83A309DF8393003F07803A3F1FC
:1030E000400CDCF1000343EB0C03D9E79DF83A30C8
:1030F000032262F302038DF83A309DF8393013F061
:10310000780F14BF01230023CAE70123C8E79DF904
:103110003820002AB4BFDDF83CB04FF0FF3B93E607
:1031200099077FF5A0AEDDF840809DF839100023A7
:10313000CDE90F339DF83A3003F00702042A09D194
:103140008A0707D49DF93920002AB4BF4FF00D0833
:103150004FF0060803F00703012BC1F3C30137D179
:10316000CB1E042B21D8DFE803F00309092020003F
:1031700054F8043BDA17CDE90C3206E0073424F0AA
:103180000704F4E80223CDE90C239DF83870BB074F
:1031900056D0029B2A46514648460FF07BFD002838
:1031A000C0F294830644029DC6E554F8043B01290D
:1031B0004FEAE372CDE90C3205D19DF830300C9323
:1031C00000230D93E1E70229DFD1BDF93030D1E7CB
:1031D000022B23D1CB1E042B13D8DFE803F0030A04
:1031E0000A12120022680C920023201D0D9304463F
:1031F000CBE7E01D20F00700F0E80223CDE90C2327
:10320000F5E754F8043B0C9301294FF000030D93AC
:10321000D3D00229B9D1BDF83030D0E7042B09D181
:10322000E31D23F0070303F10804D3E90023CDE9EC
:103230000C23AAE7032B04BF54F8043B0C93A4E728
:103240009DF83B20782AAED8572A00F28C80252A98
:1032500000F0D480242AA6D9412A03D0A2F1450344
:10326000022BA0D8DDE90C13002BC0F2B781380780
:1032700000F1B68117F0100718BF2027C3F30A55D5
:10328000C3F31303CDE90813002D40F0AB8151EADD
:10329000030014BF01200020DB0243EA5153C9029E
:1032A000462A45EA010E43EAE57C08BF66225EEA4B
:1032B0000C0CCDE9081300F00382002840F0CB810C
:1032C000DDE908014FF0000C41F00041A5F2FE35A8
:1032D000099163464FF0050E15F1020FC0F2C2814D
:1032E000BCF1000F01D0CDE90801002DDDE9081087
:1032F00000F3CD8109980899C5F1040C1C3500FA3A
:1033000005F5ACF1200E21FA0CF120FA0EFE29434E
:1033100041EA0E0120FA0CF0CDE9081002F0DF01BD
:10332000472940F0D481DD1C02DB984580F2CB8137
:10333000023AB8F1000FD2B201DD08F1FF389DF872
:103340003810880600F1C381B8F1000FD4BF002106
:103350000121662A039140F0BC8113EB080540F17E
:10336000BA810025BAE1A2F15803202B3FF61BAF2A
:1033700001A050F823F000BF7F350008A7310008F6
:10338000A7310008A7310008A7310008A7310008BD
:10339000A7310008A7310008A731000865320008EE
:1033A000A7310008293400081F35000865320008DD
:1033B0006532000865320008A73100081F35000893
:1033C000A7310008A7310008A7310008A73100087D
:1033D000B53500087F35000883350008A73100089F
:1033E000A731000803340008A73100087F35000822
:1033F000A7310008A73100087F3500085146104664
:10340000A4E4B8F1000F0C9A09DB41461046039280
:1034100015F089F8039A0027151862B9C3E610461B
:103420000392FDF76EFDF5E70C9B8DF84C300027FD
:103430000DF14D0513AAAB1A07B101339DF83A00FF
:10344000C10640F1378202330F9940060B4444BF56
:1034500010995B18BBF1000F23DDABEB030B9DF85C
:1034600038305907C3F380081BD4580640F1368220
:10347000002F00F03682514638460392C847002894
:10348000C0F22482039A474601364FF030085E446A
:103490005B46002BA6EB0B000BF1FF3B00F30E820B
:1034A000064647B1514638460392C8470028C0F245
:1034B0000D82039A01369DF83A30590640F1658233
:1034C0009DF93930002BA6EB020680F219821746CF
:1034D000B846F31917F8010B702840F00582109FC9
:1034E0001E461F44BB1B002B00F348822B4642465E
:1034F000514648460FF0CEFB0028C0F2E781304429
:1035000006468344ABEB0603002B7FF74CAE5146D7
:103510002020C8470028C0F2D9810136F2E73D07D4
:103520002BD417F0100718BF2027DDE90C23002B40
:1035300005DA524263EB4303CDE90C232D270DF14D
:10354000650300930EAADDE90C0113ABFFF7A0FBA6
:103550000246B8F1000F0DF16505FFF65EAF9DF86C
:103560003810AB1A6FF3861198458DF838107FF636
:1035700054AFA8EB03030F934FE72B27D5E70027A2
:10358000DDE70C98002800F091810DF165030093B0
:103590000EAA13AB0021FFF77BFBBDF83A3003F016
:1035A000EF0343F4F04343F010030246ADF83A3022
:1035B0000027CEE70C9B07293FF6F5ADDFE801F0C9
:1035C0000C04060C08080C0C1E70ECE51E80EAE5E5
:1035D000F217C3E90062E6E51E60E4E52D274DE63B
:1035E0002B274BE640F2FF70854231D10132B948BA
:1035F000D2B20B43125C02F003021BD1012A11D19B
:1036000049238DF84C304E238DF84D3046238DF8EC
:103610004E309DF838306FF386138DF838300DF149
:103620004F0507E769238DF84C306E238DF84D3038
:103630006623ECE7012A07BF4E2341226E23612255
:103640000CBF8DF84C308DF84C308DF84D20DEE7F6
:10365000002021E6013D49185B41002BFADACDE953
:1036600008132DE6400840EAC1704908B1F1333F24
:10367000AC4605F10105F5D20EFB01F5A0FB0E01EC
:103680002944013B0CF102054FF0010C24E6023104
:1036900040F10000CDE9081008A8CDE903230FF0A0
:1036A000CAFA049B039ADDE90810013D0133491869
:1036B0004041002805F1FF35F9DACDE9081014E69C
:1036C00000231D4616E6A8EB0308662237E6002114
:1036D0003FE608F10105102DA8BF10251021079124
:1036E00000204FF00061CDE90A01DDE90A10A5B91B
:1036F000089D4919099D40EB0505B5F1805F1BD276
:10370000CDE90815662A40F09980002B23DC302192
:103710008DF84C100DF14D052FE0490841EAC071BC
:103720004008CDE90A100AA8CDE90423013D0FF0B5
:1037300082FADDE90423D8E7490841EAC57108A8FF
:103740006D08CDE90423CDE908150FF074FA059B47
:10375000049A0133D6E713AD079900290BDD07A9B9
:1037600008A8CDE904230FF07EFA059B05F8010BAC
:10377000013B049AF0D10F9300239DF8381089067D
:1037800002D4B8F1000F1DDD2E2105F8011B9BB1FD
:10379000B8F1000F16DD59424145A8BF41469DF8DA
:1037A0003A000F910029A8EB0108D4BF00210121A4
:1037B00061F345108DF83A00B8F1000F02DD07996A
:1037C000002956DC0399002963D1CDF8408002F02E
:1037D000DF01452921D1002B2946B8BF5B4201F802
:1037E000022BB4BF2D222B22632B6A7009DD6420CB
:1037F000B3FBF0F202F1300CE91C85F802C000FBCB
:1038000012330A200D46B3FBF0F200FB123302F133
:10381000300C303305F802CB4B700F9B002B43DC90
:10382000109B002BD4BF002301239DF83A2063F3A3
:10383000861200238DF83A202B70FBE507A908A813
:10384000CDE904230FF00FFADDE904239DF83810C9
:103850008DF84C00302818BF03F1FF33880602D4DE
:10386000B8F1000F12DD2E218DF84D100DF14E052F
:10387000A2E707A908A8CDE904230FF0F4F908F19D
:10388000FF38DDE9042305F8010B95E70DF14D053F
:1038900098E700211091284615F8011D3029FAD02B
:1038A0002E2918BF054692E70123BEE70A4D0746B9
:1038B0006A1FC0E5010748BF0133C5E551464046D0
:1038C0000392C8470028039ABFF6E2AD1BB0BDE8DB
:1038D000F08F00BF96B90108DEA201084FF0200862
:1038E000D5E54FF03008D2E55146C8470028BFF66D
:1038F000EFADEBE751460392C8470028039AE5DB9A
:103900001078374BC35C5B07174606EB020802F1E1
:103910000102EFD49DF83A300F9E990607D4B044C7
:10392000002EA8EB060206F1FF360FDC9046387831
:103930002E2808D15146C8470028C7DB002E08F1C1
:10394000010809DC0137A8EB07060EE051463020DC
:10395000C8470028E4DAB9E751463020C847013E9D
:10396000EAE75146C8470028B0DB1D4AB846F319BC
:1039700017F8010B125C5207F3D4B0E55146302022
:10398000C8470028A2DB0136ACE5D80601D41907E8
:1039900007D5514630200392C847002896DB039A8A
:1039A00001369DF83A30DB0608D59DF83B000392BE
:1039B0005146C847002889DB039A01360F9F3744D8
:1039C000BB1B002B01DC2B4692E5514630200392B5
:1039D000C8470028FFF67AAF039A0136F0E700BF28
:1039E00097B901080C4B1A6842F400721A601A6801
:1039F00042F480621A604FF01002EFF3118382F3F9
:103A00001288BFF36F8F83F31188BFF36F8F034B5F
:103A1000034A1A6000207047004000582802002026
:103A200000093D0030B51049104889B0002214F05B
:103A300072FB0F4D0F4900220023CDE9062300241D
:103A40000E23CDE90334CDE901440B4B00944FF430
:103A5000407228460BF0B8FE0849284614F0A9F930
:103A6000204609B030BD00BF813A0008C8090020D7
:103A7000000A0020E0860020A53C0008DFA2010823
:103A800001480BF0D3BF00BFFC030020014B53F8EB
:103A900020007047A48F010870B5124BBFF35B8FF5
:103AA00053E8005F6A1C43E800210029F8D1BFF306
:103AB0005B8F2DB90C4C0D4E361B3611B54200DB19
:103AC00070BD237B53B123689B690BB12046984797
:103AD000636804221968204600F092F90135103419
:103AE000ECE700BFB00F00205C8E01086C8E01086F
:103AF00010B5044C237813B903480BF097FF01234A
:103B0000237010BD42250020FC0300200C4BBFF3A6
:103B10005B8F53E8002F013243E800210029F8D1E0
:103B2000BFF35B8F58B1BFF35B8F064B53E8002F99
:103B3000013A43E800210029F8D1BFF35B8F7047B9
:103B4000AC0F0020A80F00200020064BBFF35B8FB6
:103B5000024653E8000F43E800210029F9D1BFF3E2
:103B60005B8F7047AC0F0020F8B5FFF7EDFF0A4CF4
:103B70000A4D2D1B07462D110026AE4200DBF8BD75
:103B800063685B792BB123681B6913B13946204602
:103B9000984701361034F0E75C8E01086C8E0108FE
:103BA000014902480FF041B9B08F0108B40F00205D
:103BB000084A08B500231370074A1360074B084AE8
:103BC0001A604FF47A7000F0FFFABDE80840FFF782
:103BD000E7BF00BF43250020AC0F0020800000207D
:103BE000D730010801460022014800230FF03EB9FA
:103BF000B40F002001480FF0CFB900BFB40F002070
:103C0000014601480FF014BAB40F002001480FF02C
:103C100043BA00BFB40F00201D4B1B782DE9F041C3
:103C2000054603B988B30FF063FA064618B16DB1C3
:103C30003046FFF7E5FF2DB9164B1B68002B01DD61
:103C4000FFF792FFBDE8F041FFF7E0BF124BBFF373
:103C50005B8F53E8002F013A43E800210029F8D197
:103C6000BFF35B8F0D4C0E4F3F1B3F11A846B8456D
:103C7000DEDA63685B7923B1236831461B6820462E
:103C8000984708F101081034F1E7BDE8F08100BF62
:103C900042250020AC0F0020A80F00205C8E0108F8
:103CA0006C8E010810B5FFF7F7FE0CF017FB0C4BFC
:103CB000186030B10B4B1B68092B02DD0A480BF072
:103CC000B5FE094C0020FFF7A7FF0028FAD14FF0FE
:103CD000FF324FF0FF3320460BF0CEFEF2E700BF7D
:103CE000F40F0020A80F0020FC03002013B51D4B8B
:103CF000BFF35B8F53E8002F511C43E800100028EE
:103D0000F8D1BFF35B8F184B1B7883B14FF01003D2
:103D1000EFF3118483F31288BFF36F8F0020FFF756
:103D20007BFF84F31188BFF36F8F02B010BD0F4B80
:103D30001B68002BF9D052B900220023CDE90023E3
:103D40000B4842F2107200230CF0F2FCEDE70A2A55
:103D5000EBD1074814F0EBF9064802B0BDE810407B
:103D60000BF064BEA80F002043250020F40F0020B4
:103D7000C8090020FC030020064B10B51B68044650
:103D800098472146A06004480FF0E6F8BDE81040CF
:103D9000FFF7ACBF80000020B40F0020F8B50E4F35
:103DA0003D7875B90D4C0E4EFFF776FE361B361179
:103DB000B54207DB0020FFF72FFF0028FAD10123CF
:103DC0003B70F8BD63685B791BB1236820465B6973
:103DD000984701351034EBE7432500205C8E01083D
:103DE0006C8E0108044A054B9B1AB1EBD30F34BF0C
:103DF00052F83100002070478C8D01085C8E01085C
:103E0000054A4368801A00110130012218711960B7
:103E10005A71FFF76DBE00BF5C8E01080EB403B58A
:103E200003AB014653F8042B04480193FEF77CFFD3
:103E300002B05DF804EB03B0704700BF31310108F8
:103E40002DE9F0471D46089B1746DA0604460E4644
:103E500005D499064CBF2B492B49FFF7DFFFDFF84C
:103E6000AC904FF00008A8452DDBDFF8A480DFF808
:103E7000A490DFF898A00025BD4232D2725D494679
:103E80002046FFF7CBFF0135102D23D12249DFF863
:103E90007C80DFF88890DFF888A02046FFF7BEFF1F
:103EA0000025AF4229D9725D12F8093013F0970F3F
:103EB00008BF2E2251462046FFF7B0FF0135102DD6
:103EC00014D1BDE8F08749462046FFF7A7FF08F167
:103ED0000108C8E76A07CFD151462046FFF79EFF89
:103EE000CAE741462046FFF799FFCCE76B07D8D1D8
:103EF00041462046FFF792FFD3E741462046FFF7B1
:103F00008DFFDBE7ECA20108EBA20108E8B701088E
:103F1000E6B70108EEA20108F4A2010897B901086A
:103F2000F6A201082DE9F04F87B01C4601F001030D
:103F300005929DF84090BDF948A004930746884635
:103F400001F0020B01F008060FF0D6F80246002837
:103F500044D03A493846FFF761FF0546BBF1000FF0
:103F600008D018F0440F3BD1354922463846FFF7B8
:103F700055FF0544049B53B1324B334953F8292074
:103F8000324B3846002A08BF1A46FFF747FF3EB1BA
:103F90002F4B304953F829203846FFF73FFF06469C
:103FA000BAF1000F16DB059B002B45D0012303FA65
:103FB00009F9294B294C19F0100F18BF1C4651461E
:103FC0009DF84400FFF70EFF214602463846FFF7F2
:103FD00025FF0644701907B0BDE8F08F0546BDE720
:103FE0001F4B18680028C4D01E4B4FF47A781B680A
:103FF000B4FBF3F44FF46161B4FBF0F300FB134442
:1040000008FB04F44FF03C0CB3FBF1F201FB12315E
:10401000B4FBF0FEB1FBFCF300FB1E440CFB1311E0
:1040200008FB04F40091B4FBF0F00F49CDE901E086
:104030003846FFF7F3FE9CE7084CC0E707A30108EA
:104040000BA30108C48F01087FA80108F9A2010889
:10405000D88F010830A3010803A30108FEA20108BC
:10406000F80F0020FC0F002014A3010838B50C46FF
:10407000E107054603D5084A0849FFF7CFFEE206E7
:1040800008D4A30628464CBF05490649BDE8384078
:10409000FFF7C4BE38BD00BFF9A201087FA8010820
:1040A000ECA20108EBA201082DE9FF470B8813F4ED
:1040B000E07F06460C469046C3F382194DD00A783D
:1040C0004B68C2F3C202002B44D025495B1A43F36C
:1040D000CF03CDE90123CDF80090A368002241462B
:1040E0003046FFF71FFF8246254655F80C3BC3F3C9
:1040F000492353B11B4F1C481C492B463246B9F18A
:10410000000F08BF38460EF062FC6788C7F3CB0784
:1041100097B12368C3F349231D44102F3C4628BFA1
:1041200010242946CDF80080534622463046FFF73A
:1041300087FE3F1B2544F0D1B9F1000F04D04A4659
:1041400041463046FFF792FF304604B0BDE8F047E5
:104150000EF0E1BF4FF0FF33BBE7CA46C4E700BF34
:104160008C8D01086731010831310108292D0008C3
:1041700073B542F20F738B4228BF0B4605680F4A96
:104180000446052168460EF0CEFC63680C495B6866
:1041900006460B2228460EF0B1FF63683246694698
:1041A00028465B680EF0AAFF636806495B681B221D
:1041B00028460EF0A3FF02B070BD00BF0EAC010890
:1041C00072A3010856A30108084A10B50123084C40
:1041D00013600021A04204D801B11360054B1860A0
:1041E00010BD40085B000121F4E700BFFC0F002078
:1041F00040420F00F80F00202DE9F04F87B0DDE9B5
:1042000011579A46109BDDF84CB00393044689463B
:104210009046CFB3CDF800B03B462A460C21002093
:10422000CDF814B0FEF73EFA0646039A08F00703ED
:1042300004F0070802F11300144C4FEAC80848EADA
:1042400083183044124B04EA462420F0070048EA61
:10425000040803EAC243800848EA0308FFF7C2FCE7
:10426000044640B13FB1CDF800B03B462A46314646
:104270000C30FEF717FA534642464946204607B02F
:10428000BDE8F04F0EF07CBF3E46CEE700FE0700D3
:104290000000F87FF8B5074F0D4604464618B442B3
:1042A00001D12846F8BD386814F8011B83685B68A3
:1042B0009847F4E718100020014B00201960704760
:1042C00008100020014B024A1A60704718100020A5
:1042D0007C8A0108024B034801221A700EF01BBFB2
:1042E000442500200C9001080148FFF741BF00BFA2
:1042F0000C900108064B10B518680C46FFF7C6FB7A
:1043000021460346BDE8104002480F22184700BF6F
:10431000081000200C90010808B5044813F064FD53
:10432000034B0020C3E9003308BD00BF2410002068
:104330001C100020F8B50646FCF7E3FD0546124FB9
:1043400012484FF0FF324FF0FF330BF0B5FA3C68E4
:10435000BC420ED100240D480BF026FB2046F8BDD0
:10436000A068FCF7CEFDA84206D07B689C42F1D045
:104370002468002CF4D1EDE7A1682A46304614F0F9
:10438000ABF80028F1D1E6E71C1000202410002033
:1043900030B5054687B015484FF0FF324FF0FF3378
:1043A0000BF08AFA0DB1A86890B9114B049302235F
:1043B00003931048002303AA4FF482516FF01504B1
:1043C0000EF0F9FE09480BF0EFFA204607B030BDB9
:1043D000FFF7B0FF044608B1074BE7E7074B5A6801
:1043E000C5E9003215605D60ECE700BF24100020D5
:1043F00098A30108B48D0108B1A301081C10002086
:10440000014910220A60704710ED00E072B640408A
:1044100080F31188BFF36F8FBFF34F8F30BF62B649
:10442000BFF36F8F704700BF2DE9F04786B080461D
:1044300000AF0C46002945D0E94688B06D46D1E969
:104440000012A36823482E464FF0050AC5E904016F
:10445000C5E9062346F80CAF1F48324600234FF447
:1044600021510EF0A8FED4E9031263691B48C5F878
:104470000CA0CD46C5E90401C5E90623AD461648A2
:10448000324600234FF421510EF095FE144AE369A1
:104490000325C7E90423CD46FD600F4807F10C0250
:1044A00000234FF4C2510EF086FE0E4AA369FD6050
:1044B000C7E904230848002307F10C024FF4C25156
:1044C0000EF079FE214640460AF0CEFF1837BD4671
:1044D000BDE8F087DAA301081C8E010809A40108D1
:1044E00038A4010847A4010843B2002B08DB0122CD
:1044F00000F01F0002FA00F05B09024A42F82300B4
:10450000704700BF00E100E043B2002B0DDB012249
:104510005B0900F01F0002FA00F02033034A42F862
:104520002300BFF34F8FBFF36F8F704700E100E0B0
:1045300043B2002BA8BF03F1604301F10101B8BFF2
:10454000064B4FEA0111ACBF03F5614300F00F00C9
:10455000C9B2B4BF195483F80013704714ED00E0DA
:1045600030BFFFF7FDBF00BF08B5084B084A23F076
:104570007F039360BFF34F8FBFF36F8F0AF0F2FF9B
:104580000BF026FF00F072FB0BF030F80000000883
:1045900000ED00E0094A0A4993680968D9670949AA
:1045A00098674B6843F080534B60002383F3118876
:1045B000BFF36F8F9368D86F704700BFD42200207D
:1045C0004497010800ED00E012498A684FF030007E
:1045D0001044EFF3098C80E8F01F102080F312885C
:1045E000BFF36F8F0C4F4FF000668A698A603E60A0
:1045F000906F0023936780F3118804B5104600F094
:1046000075FBBDE8044002F1300090E8F01F8CF328
:1046100009887047D422002004ED00E01EF0040F4A
:104620000CBFEFF30880EFF30980816911F8021CD9
:104630000229FFD001B50EF03AFE01BD42F8203C40
:10464000009B42F81C3C0A49019B42F8183C029B23
:1046500042F8143C21F001014FF0807342F8043C11
:1046600042F8081C0023203A02658367704700BFA8
:10467000412B0108094A0346906870B113F1160FE7
:10468000806E05D0A0F120029A4205D8834203D261
:10469000814228BF0020704700207047D4220020AC
:1046A00008B5094B98600D46144600F01FFB2046E4
:1046B00085F30988002163B681F31188BFF36F8FFA
:1046C000002200230EF03CFAD422002001B5EFF3C3
:1046D0000580A0F110004FEAC0000449014409C957
:1046E0009847BDE801400249084700009C8B01083B
:1046F000F5460008044B99689869884203D003493D
:104700004FF080520A607047D422002004ED00E090
:1047100070B586B0364B049306460D4635480224E4
:1047200003AA4FF4825103940EF0D0FD324B9B6AE2
:10473000DB0408D5314B2F4803AA4FF48251CDE951
:1047400003430EF0C3FD2C4B9B6A1C0509D52C4B73
:1047500004932848022303AA4FF4825103930EF0D6
:10476000B5FD254CA36A98051DD5264B049303AAD5
:1047700002234FF482511F4803930EF0A7FDA36B51
:10478000A26A11040FD5204A1A48CDE904234FF438
:10479000C251032303AA03930EF098FD1EB1A36A2E
:1047A00023F40043A362144B9B6A5A0509D5174BA7
:1047B00004931048022303AA4FF4825103930EF08E
:1047C00085FD0D4B9B6ADB0509D5114B0493094808
:1047D000022303AA4FF4825103930EF077FD064A99
:1047E000936A002043F47F439362287006B070BD43
:1047F00075A401081C8E010800ED00E08BA40108DF
:104800009CA40108AFA40108C8A40108DDA4010804
:10481000F8A4010810B586B0334B34480493022441
:1048200003AA4FF4825103940EF050FD304B9B6A63
:104830009B0108D52F4B2D4803AA4FF48251CDE997
:1048400003430EF043FD2A4B9B6ADC0109D52A4B3A
:1048500004932648022303AA4FF4825103930EF0D7
:1048600035FD234B9B6A180309D5244B04931F483D
:10487000022303AA4FF4825103930EF027FD1C4B31
:104880009B6A590309D51E4B04931848022303AAB7
:104890004FF4825103930EF019FD154B9B6A9A0356
:1048A00009D5184B04931148022303AA4FF48251EF
:1048B00003930EF00BFD0E4B9B6ADB0309D5124BE5
:1048C00004930A48022303AA4FF4825103930EF083
:1048D000FDFC074A936A6FEA03436FEA1343002023
:1048E000936206B010BD00BF10A501081C8E010820
:1048F00000ED00E028A501083BA5010855A5010829
:1049000073A5010898A50108B2A501082DE9F04199
:1049100086B03E4B0493074688463D481546022420
:1049200003AA4FF4825103940EF0D0FC394B9B6ADA
:10493000D80608D5384B364803AA4FF48251CDE942
:1049400003430EF0C3FC334B9B6A190709D5334B65
:1049500004932F48022303AA4FF4825103930EF0CD
:10496000B5FC2C4CA36A9A0721D46FF01506294B8D
:104970009B6AD80709D52A4B04932548022303AA2A
:104980004FF4825103930EF0A1FC224B9A6AD10698
:104990002ED49A6A92072BD400201E4A936A43F0C1
:1049A000FF03936200232B7006B0BDE8F0811D4B1E
:1049B00004931748022303AA4FF4825103930EF085
:1049C00085FC666BA36A1B06CFD5174B1048CDE953
:1049D000043603AA03234FF4C25103930EF076FC6E
:1049E000B8F1000FC3D0A36A23F08003A362BEE72F
:1049F0005B681B05D0D539463046FFF73BFE0028E3
:104A0000CAD080F309880220C7E700BFDDA50108EE
:104A10001C8E010800ED00E0F3A501089CA401082C
:104A200054A6010826A601083EA601087FB50BABD7
:104A300005930393054B02930023CDE90033012234
:104A40001846FFF7D9FB07B05DF804FB73A6010811
:104A50002DE9F043704B5E6891B00D46C6F3080433
:104A6000002787F31188BFF36F8F02F07F43B3F104
:104A70007F4F0DD102F00C03082B0BD1674B0C9329
:104A8000674802230BAA4FF482510B930EF01EFCD1
:104A90003D4603E0120701D40546012700238DF8A7
:104AA0001F30E31E092B00F29C80DFE803F0058D28
:104AB000918A9A9A9A9A9A95574E5A4B58480C93BB
:104AC0004FF002080BAA4FF48251CDF82C800EF063
:104AD000FDFBF46A4FF0000914EA08048DF81F90FA
:104AE0000AD0514BCDE90B834D480BAA4FF48251AC
:104AF0000EF0ECFB00240BE0F36A002B28DA4B4BA2
:104B000047480BAA4FF48251CDE90B830EF0DEFB30
:104B10009DF81F30CBB908AA05F1200628686968FE
:104B2000134603C30835B5421A46F7D10F9B002F31
:104B30006CD0C3F3080222B96FEA53236FEA432310
:104B40000F9308A92046FFF76FFC11B0BDE8F08372
:104B5000F36A5B00DCD5364B31480BAA4FF4825127
:104B6000CDE90B830EF0B2FBAB6933F8022C4DF6A6
:104B700002739A420AD096F82830ABB10DF11F02A9
:104B800001212846FFF7C2FE0446C1E72B68294AE7
:104B90002348CDE90C234FF4C25103230BAA0B93F6
:104BA0000EF094FB2C68B3E796F829302BB10DF189
:104BB0001F010120FFF7ACFDE6E7738D9BB2002BD0
:104BC000A6D0FFF727FEDFE70DF11F020021D8E78F
:104BD0000DF11F010020EDE7174B0C9302230B93FF
:104BE00082E7164A164B0E4916F4F87F18BF134693
:104BF000103CCDE903340024124B0293CDE900446C
:104C0000234601222046FFF711FF81E723F4FF73BB
:104C100023F0010394E700BF00ED00E0B4A6010813
:104C20001C8E0108DFA60108F6A6010817A70108D7
:104C300025A7010844A7010860A701089BA6010851
:104C400086A6010873A60108024A536943F01003BF
:104C50005361704700ED00E0EFF30880EFF3098146
:104C600001B57246FFF7F4FE01BD00BF0448002302
:104C70001021C21801333E2B82F80013F9D170477E
:104C800000E100E0102080F3118808484FF4026131
:104C9000401880F30988EFF314800221084380F361
:104CA0001488BFF36F8FFFF75FFC00004093002074
:104CB000064B9B68834207D1EFF3058323B1044A77
:104CC000536843F0805353600BF01EBBD422002086
:104CD00000ED00E0024B034A0348012100F086B8D2
:104CE00000000120000000201C900108826E054B8E
:104CF000203A1A60044A2021C3E901121846012112
:104D000000F07EB83810002000000B15F0B5284FD9
:104D100087B000268E4216DA4468002C45D0DBB1FD
:104D200004F1FF3C14EA0C0F10D0224BCDE90436FD
:104D300003230393204803AA00234FF4C2510EF02B
:104D40003AFA6FF01502104607B0F0BD1F2CECD9EF
:104D500005681CEA050FE8D1202C0568D0F808C0CA
:104D6000D2B210D9B4F1004F0FD8013CB4FA84F498
:104D7000C4F11F046400072A4CEA040407D90F4B4E
:104D8000CDE90432D4E70824F5E73E24F3E725F023
:104D90001F05154345F0100544F00104C7F898209D
:104DA000C7F89C500132C7F8A04001360C30B1E77B
:104DB00000ED00E088A701080C8E0108ABA70108F0
:104DC000044B0522C3F89420BFF34F8FBFF36F8FBE
:104DD000704700BF00ED00E0BFF35F8F024B002281
:104DE000C3F89420704700BF00ED00E010B5034CFD
:104DF00001232278FFF78AFF207010BD462500208E
:104E000008B5094A00231278FFF780FF10F1160F4A
:104E100003D0064B0022072800DD08BDC3F8980028
:104E2000C3F8A0200130F6E74625002000ED00E0A1
:104E300014490868082810B521D8FFF7CDFF124C97
:104E400049680022904201F10C0105D10F4B187006
:104E5000FFF7B6FF002010BDC4F8982051F80C3CB5
:104E600023F01F03134343F01003C4F89C3051F8A0
:104E7000043C43F00103C4F8A0300132E2E74FF0F4
:104E8000FF30E8E72890010800ED00E0462500200B
:104E9000014B1860704700BF84000020F8B50A4F2E
:104EA0000D46461EC0F10104A3199D4201DC2846AF
:104EB000F8BD73780A2B02D13B680D2098473B68F8
:104EC00016F8010F9847EFE78400002010B5074C53
:104ED0002368C2180648C0F1005101F580318A42AA
:104EE0003ABFC01822604FF0FF3010BD44100020C0
:104EF000D0C4002008B51D210448FFF7CFFF404073
:104F000080F311884FF0030002DF00BFD1A7010832
:104F1000024B1B6803B11847FF2070475410002054
:104F20001FB5144B144815490024C3E90044144B21
:104F30000360144B4360144B8360144BC360144BE9
:104F40008C60C1E900340822124BCB6004F048F8B1
:104F500070B100F0BFFA104B0390CDE90143204639
:104F60000E490094234601220EF0CDF96FF0150092
:104F700004B010BD48100020681000205810002018
:104F800081500008FD4F0008D5500008013301088A
:104F9000114F000803330108FEA70108FC8D01082A
:104FA00030B5124C91B02D23054607A88DF81C3062
:104FB00004F028FA9DF920302278934200D195B16F
:104FC000D8B20B4B20701B6803B198472378094A6D
:104FD000CDE90423032303930748002303AA4FF4D6
:104FE000C6510EF0E8F811B030BD00BF47250020D3
:104FF000501000201FA80108FC8D0108F0B50546DF
:10500000407885B070B100F071FA194B029300231B
:105010000390CDE900331749012218460EF073F9C9
:1050200005B0F0BD144B1B780BB1FFF7B9FF134B64
:105030001C68002CF4D0083C4FF6FF772388E878F2
:10504000BB4201D083420DD1AB68697901932B7BC0
:1050500000930039666895F91030B5F90E2018BF35
:105060000121B047A468002CDAD0083CE6E700BF75
:1050700037A80108FC8D01084B25002048100020AE
:105080001FB50446407860B100F030FA0C4B029333
:1050900000230390CDE900330A49012218460EF09F
:1050A00032F9094B1B7813B10020FFF779FF074B4A
:1050B00062781A70064804B0BDE810400AF0B6BC29
:1050C00052A80108FC8D01084B250020492500202D
:1050D0001404002030B5457895B00446ADB128469B
:1050E00000F004FA1A4B029300230390CDE9003339
:1050F0001849012218460EF006F9174B62781A700B
:1051000016480AF093FC15B030BD0378012B0AD085
:10511000042BF2D1124B0E9302230D934FF48651C0
:105120002B460DAA0FE007230AA88DF8283004F0BB
:1051300069F90C4B08930B9B0993032307934FF4D6
:10514000C6512B4607AA03480EF035F8D5E700BF35
:105150006AA80108FC8D01084A2500202C040020C3
:10516000A0A8010882A8010870B504469CB04FF0C1
:10517000FF324FF0FF335C480AF09EFB01261D23EF
:105180000AA88DF828308DF82C6004F011FA257DDE
:10519000002D53D1554B8DF814601B788DF81930C4
:1051A00002238DF818308DF84C3013A8236914931E
:1051B00004F0FEF903238DF84C3013A823681493F0
:1051C00004F0F6F909238DF84C3013A863681493A2
:1051D00004F0EEF908238DF84C3013A8A36814935B
:1051E00004F0E6F905A804F08DFC0446C0B100F017
:1051F00071F93F4B0390CDE9015328463D49009595
:105200002B4632460EF07FF8204600F07BF904462C
:10521000002854D034480AF0C7FB20461CB070BDAB
:105220004FF0FF3334484FF0FF320AF025FC334B88
:105230001878002843D000F077F9E8E7012D50D125
:1052400035238DF84C3013A82D4B149304F0B0F98E
:1052500006238DF84C3013A80023149304F0A8F90A
:1052600007238DF84C3013A82368149304F0A0F999
:105270000C238DF84C3013A8A368149304F098F90C
:105280000D238DF84C3013A8A368149304F090F903
:105290000E238DF84C3013A8A368149304F088F9FA
:1052A0000F238DF84C3013A86368149304F080F931
:1052B00013A88DF84C508DF8505004F079F9114B2B
:1052C0001B784BB92D238DF84C30084B13A81B7855
:1052D0008DF8503004F06CF90120FFF761FE0024D6
:1052E00098E76FF0150495E7BC03002048250020DF
:1052F000C0A80108FC8D01082C0400204A250020CC
:10530000000300014B25002010B50C4B1B788AB020
:1053100004461BB16FF015000AB010BD2D238DF8A7
:10532000080001A88DF8043004F042F90028F1D1FA
:10533000034B1C70034B1C70EEE700BF4B25002095
:105340004825002047250020F0B507468BB01546BC
:105350001C460E46002960D031484FF0FF324FF016
:10536000FF330AF0A9FA04A9284603F0EBFF88B33B
:1053700000F0B0F800242B4B03900293CDE90044D9
:1053800029492346012220460DF0BDFF01258DF855
:1053900014400794ADF820408DF8224005A804F091
:1053A00091FC044638B300F095F8204B029300239B
:1053B000CDE900331C490390012218460DF0A3FFEC
:1053C000204600F09FF8044615480AF0EDFA204602
:1053D0000BB0F0BD64B1012C0AD0154BADF82050D4
:1053E0001B788DF8187007968DF822300025D5E7C8
:1053F0008DF81440F1E74FF0FF330E484FF0FF32C5
:105400000AF03AFB0C4B187808B100F08DF8002D2B
:10541000044618BF6FF00A04D6E76FF01504D6E70C
:10542000D0030020D5A80108FC8D0108FAA80108C6
:105430004725002014040020492500200023836014
:10544000054B596800F1080211B9C3E90022704701
:105450000A605A60704700BF48100020014B186076
:10546000704700BF5010002010B590B003F062FFED
:10547000044680B100F02EF8124B029300230390F3
:10548000CDE900331846104901220DF03CFF6FF0C2
:10549000150010B010BD062305A908208DF81430A2
:1054A0000FF096F9094BC0B21870094B18703023F1
:1054B0008DF81C3007A81423089304F079F82046CF
:1054C000E7E700BF12A90108FC8D0108482500206C
:1054D0004725002017289ABF024B53F820000248A6
:1054E000704700BF2491010840A901080F289ABF06
:1054F000024B53F820000248704700BF8890010813
:1055000050A901081628034608D8064A52F8200078
:1055100030B9002B18BF6FF0150070476FF0150001
:10552000704700BFC89001080F28034608D8064AF4
:1055300052F8200030B9002B18BF6FF015007047EB
:105540006FF01500704700BF4890010801480AF04D
:10555000A1BB00BF88000020014B18605960704754
:1055600078100020024B1A685B6802600B6070477D
:105570007810002008B50DF0E8FE024B1B68C01A39
:1055800008BD00BF80100020014812F0D0BD00BF50
:105590001003002007B50A22A0FB022300210020EF
:1055A000CDE9000102480BF0C3F803B05DF804FB3D
:1055B0001003002008B50DF0C8FE014B186008BDAF
:1055C00080100020014B1868704700BF8010002039
:1055D0002DE9F347284C9A46A36807460D46164620
:1055E0007BB1264B00205B6B9847D4F8088020687D
:1055F000CDF800A033462A463946C04702B0BDE880
:10560000F08704F13C020223D4F80490BFF35B8FCF
:1056100052E8001F012903D142E800300028F7D1E9
:10562000BFF35B8F9046E9D1636C1A78AA4288BFBA
:105630001D70636C206C1A78394612F0EAFEA36C78
:1056400003B11E80E36C0BB183F800A00B4BDB6A47
:10565000984700216160BFF35B8F58E8003F48E83E
:105660000012002AF9D1BFF35B8F484602B0BDE8B3
:10567000F0470BF00BB900BF84100020989201088E
:1056800070B5134EBFF35B8F06F13C04022354E860
:10569000002F012A03D144E800310029F7D1BFF3DC
:1056A0005B8F0CBF012000204FF000050ED1094B8D
:1056B000DB6A98477560BFF35B8F54E8003F44E8AE
:1056C0000052002AF9D1BFF35B8F012070BD00BFEB
:1056D0008410002098920108064B10B55C68FFF713
:1056E000CFFF30B12CB100212046BDE810400BF0B7
:1056F000CDB810BD84100020F0B5044687B0006816
:105700000E4612F000FB2568034670B92A68039222
:105710001E4A1F490090CDE9010201220DF050FE02
:105720006FF01205284607B0F0BDE38821793343B6
:10573000D802D5F808C02F6906D513F4402F03D03E
:10574000DA0748BF83F440233868012623F4801227
:105750008E40DB074CBF3043B0433860DCF800308C
:105760002846984705460028DCD02379049323680F
:1057700005901B680393074B02930023CDE9003388
:105780000349012218460DF01BFECBE7D8AB0108F8
:10579000448E0108F1AB010870B50D461049BFF306
:1057A0005B8F01F13C04012054E8006F002E04D10E
:1057B00044E8000CBCF1000FF6D1BFF35B8F0BD1B6
:1057C000084E4B60D4B2736D214698472846B36AA1
:1057D00021469847002070BD6FF00F00FBE700BF27
:1057E00084100020989201082DE9F043002695B01E
:1057F0002A4F05AB8046894614463146102209A837
:10580000CDE90533CDE9076612F02BFE3A6B012591
:1058100005AB8DF831500D93002A3CD02246494605
:105820004046FFF7B9FF00281ADBE4B2CDE9016476
:105830001B4C3B8F97F83520009397F8341097F85E
:105840003630646A03952846A0470A22A840A0FB88
:105850000223294609A80AF0BDFFB04203DB00205D
:1058600015B0BDE8F0830F4B1293022311930E483D
:10587000334611AA4FF482510DF09DFCFFF700FF53
:105880000028ECD14FF0FF324FF0FF33294609A832
:105890000AF0A0FFE3E76FF01500E1E784100020B5
:1058A0009892010811AC0108448E0108F0B593B03C
:1058B00000258DF8072003AC10220F4607A82946C3
:1058C000CDE90344CDE9055512F0CBFD264B0B94F1
:1058D00001268DF8296003F13C02BFF35B8F52E88B
:1058E000001FA94203D142E800600028F7D1BFF3AE
:1058F0005B8F35D10DF10702C3E901455A641B4C9A
:105900001A9A9A641B9ADA641F64FF21636D304609
:105910009847636B28469847DDE91823314607A866
:105920000AF058FF041E0ADAFFF7AAFE50B94FF03A
:10593000FF324FF0FF33314607A80AF04BFF9DF8C6
:1059400007400AE00A4B109302230F9309482B46A5
:105950000FAA4FF486510DF02EFC204613B0F0BD77
:105960006FF00F04F9E700BF84100020989201083F
:105970002DAC0108448E010810B539B9FFF780FE3F
:1059800000280CBF6FF01500002010BD0F4BBFF3B7
:105990005B8F03F13C02012052E8004F002C04D140
:1059A00042E8000CBCF1000FF6D1BFF35B8F09D1C8
:1059B000074C9960636DFF2198470020636B9847FF
:1059C0000020E2E76FF00F00DFE700BF8410002047
:1059D00098920108F0B5274DBFF35B8F8BB00C4652
:1059E000012655E8003F002B03D145E80062002A5C
:1059F000F7D1BFF35B8F39D11F4F2068FB68984701
:105A0000E37A03B320686168A5F10C0303C3A068BF
:105A1000186000224FF47A63CDE9072323890293AB
:105A2000A379019363790093CDE90522CDE903269B
:105A3000FD69237994F90A103046A847FFF720FE44
:105A400000200BB0F0BD0A22029222890393CDE917
:105A50000032CDE90836CDE90633CDE90433BD691E
:105A6000A379627921793046A847E7E76FF00F0004
:105A7000E7E700BFC01000209892010838B508463B
:105A800011461A460B4BBFF35B8F012453E8005FAE
:105A9000002D04D143E8004CBCF1000FF6D1BFF358
:105AA0005B8F04D1044BDB6B9847002038BD6FF04F
:105AB0000F00FBE7C01000209892010838B50E4B8C
:105AC000BFF35B8F03F13C02002452E8001F42E861
